{
  "address": "0xf7F53ad28C9c3E300fDc25dd752F369dF9BcEE81",
  "abi": [
    {
      "inputs": [
        {
          "internalType": "address",
          "name": "_token",
          "type": "address"
        },
        {
          "internalType": "address",
          "name": "_beneficiary",
          "type": "address"
        },
        {
          "internalType": "uint256",
          "name": "_startTimestamp",
          "type": "uint256"
        },
        {
          "internalType": "uint256",
          "name": "_cliffInMonths",
          "type": "uint256"
        }
      ],
      "stateMutability": "nonpayable",
      "type": "constructor"
    },
    {
      "anonymous": false,
      "inputs": [
        {
          "indexed": false,
          "internalType": "uint256",
          "name": "amount",
          "type": "uint256"
        }
      ],
      "name": "Released",
      "type": "event"
    },
    {
      "inputs": [],
      "name": "SECONDS_PER_MONTH",
      "outputs": [
        {
          "internalType": "uint256",
          "name": "",
          "type": "uint256"
        }
      ],
      "stateMutability": "view",
      "type": "function"
    },
    {
      "inputs": [],
      "name": "beneficiary",
      "outputs": [
        {
          "internalType": "address",
          "name": "",
          "type": "address"
        }
      ],
      "stateMutability": "view",
      "type": "function"
    },
    {
      "inputs": [],
      "name": "blockTimestamp",
      "outputs": [
        {
          "internalType": "uint256",
          "name": "",
          "type": "uint256"
        }
      ],
      "stateMutability": "view",
      "type": "function"
    },
    {
      "inputs": [],
      "name": "cliffInMonths",
      "outputs": [
        {
          "internalType": "uint256",
          "name": "",
          "type": "uint256"
        }
      ],
      "stateMutability": "view",
      "type": "function"
    },
    {
      "inputs": [],
      "name": "release",
      "outputs": [],
      "stateMutability": "nonpayable",
      "type": "function"
    },
    {
      "inputs": [],
      "name": "released",
      "outputs": [
        {
          "internalType": "uint256",
          "name": "",
          "type": "uint256"
        }
      ],
      "stateMutability": "view",
      "type": "function"
    },
    {
      "inputs": [],
      "name": "startTimestamp",
      "outputs": [
        {
          "internalType": "uint256",
          "name": "",
          "type": "uint256"
        }
      ],
      "stateMutability": "view",
      "type": "function"
    },
    {
      "inputs": [],
      "name": "token",
      "outputs": [
        {
          "internalType": "contract IERC20",
          "name": "",
          "type": "address"
        }
      ],
      "stateMutability": "view",
      "type": "function"
    },
    {
      "inputs": [],
      "name": "vestedAmount",
      "outputs": [
        {
          "internalType": "uint256",
          "name": "",
          "type": "uint256"
        }
      ],
      "stateMutability": "view",
      "type": "function"
    }
  ],
  "transactionHash": "0x69b5aa3ad737262974504f0d9f4c4c5389f3bd5343c9fdbd5224d5f38cbfecb6",
  "args": [
    "0x1400bA572e9e18a58Fc6cA359c0Cc9550395a5a4",
    "0x42C930A33280a7218bc924732d67dd84D6247Af4",
    0,
    3
  ],
  "numDeployments": 2,
  "solcInputHash": "aac1dd2113c9686bd16bbfc96082348f",
  "bytecode": "0x61010060405234801561001157600080fd5b50604051610d8e380380610d8e8339818101604052608081101561003457600080fd5b8101908080519060200190929190805190602001909291908051906020019092919080519060200190929190505050600073ffffffffffffffffffffffffffffffffffffffff168373ffffffffffffffffffffffffffffffffffffffff1614156100e9576040517f08c379a0000000000000000000000000000000000000000000000000000000008152600401808060200182810382526022815260200180610d6c6022913960400191505060405180910390fd5b8373ffffffffffffffffffffffffffffffffffffffff1660a08173ffffffffffffffffffffffffffffffffffffffff1660601b815250508273ffffffffffffffffffffffffffffffffffffffff1660808173ffffffffffffffffffffffffffffffffffffffff1660601b815250508060c081815250506000821461016d578161017c565b61017b61018c60201b60201c565b5b60e0818152505050505050610194565b600042905090565b60805160601c60a05160601c60c05160e051610b7f6101ed600039806101ed528061022a52806104ee52508061027d52806104bc5250806102b0528061043c52806105125250806101c7528061041a5250610b7f6000f3fe608060405234801561001057600080fd5b50600436106100935760003560e01c8063928d89ae11610066578063928d89ae146101125780639613252114610130578063adb618321461014e578063e6fd48bc1461016c578063fc0c546a1461018a57610093565b806310786deb1461009857806338af3eed146100b657806344b1231f146100ea57806386d1a69f14610108575b600080fd5b6100a06101be565b6040518082815260200191505060405180910390f35b6100be6101c5565b604051808273ffffffffffffffffffffffffffffffffffffffff16815260200191505060405180910390f35b6100f26101e9565b6040518082815260200191505060405180910390f35b610110610378565b005b61011a6104ba565b6040518082815260200191505060405180910390f35b6101386104de565b6040518082815260200191505060405180910390f35b6101566104e4565b6040518082815260200191505060405180910390f35b6101746104ec565b6040518082815260200191505060405180910390f35b610192610510565b604051808273ffffffffffffffffffffffffffffffffffffffff16815260200191505060405180910390f35b62278d0081565b7f000000000000000000000000000000000000000000000000000000000000000081565b60007f00000000000000000000000000000000000000000000000000000000000000006102146104e4565b10156102235760009050610375565b600061025f7f00000000000000000000000000000000000000000000000000000000000000006102516104e4565b61053490919063ffffffff16565b9050600061027962278d00836105b790919063ffffffff16565b90507f00000000000000000000000000000000000000000000000000000000000000008110156102ae57600092505050610375565b7f000000000000000000000000000000000000000000000000000000000000000073ffffffffffffffffffffffffffffffffffffffff166370a08231306040518263ffffffff1660e01b8152600401808273ffffffffffffffffffffffffffffffffffffffff16815260200191505060206040518083038186803b15801561033557600080fd5b505afa158015610349573d6000803e3d6000fd5b505050506040513d602081101561035f57600080fd5b8101908080519060200190929190505050925050505b90565b60006103826101e9565b9050600081116103fa576040517f08c379a000000000000000000000000000000000000000000000000000000000815260040180806020018281038252601b8152602001807f436c6966663a204e6f20746f6b656e7320746f2072656c65617365000000000081525060200191505060405180910390fd5b61040f8160005461064090919063ffffffff16565b6000819055506104807f0000000000000000000000000000000000000000000000000000000000000000827f000000000000000000000000000000000000000000000000000000000000000073ffffffffffffffffffffffffffffffffffffffff166106c89092919063ffffffff16565b7ffb81f9b30d73d830c3544b34d827c08142579ee75710b490bab0b3995468c565816040518082815260200191505060405180910390a150565b7f000000000000000000000000000000000000000000000000000000000000000081565b60005481565b600042905090565b7f000000000000000000000000000000000000000000000000000000000000000081565b7f000000000000000000000000000000000000000000000000000000000000000081565b6000828211156105ac576040517f08c379a000000000000000000000000000000000000000000000000000000000815260040180806020018281038252601e8152602001807f536166654d6174683a207375627472616374696f6e206f766572666c6f77000081525060200191505060405180910390fd5b818303905092915050565b600080821161062e576040517f08c379a000000000000000000000000000000000000000000000000000000000815260040180806020018281038252601a8152602001807f536166654d6174683a206469766973696f6e206279207a65726f00000000000081525060200191505060405180910390fd5b81838161063757fe5b04905092915050565b6000808284019050838110156106be576040517f08c379a000000000000000000000000000000000000000000000000000000000815260040180806020018281038252601b8152602001807f536166654d6174683a206164646974696f6e206f766572666c6f77000000000081525060200191505060405180910390fd5b8091505092915050565b6107658363a9059cbb60e01b8484604051602401808373ffffffffffffffffffffffffffffffffffffffff16815260200182815260200192505050604051602081830303815290604052907bffffffffffffffffffffffffffffffffffffffffffffffffffffffff19166020820180517bffffffffffffffffffffffffffffffffffffffffffffffffffffffff838183161783525050505061076a565b505050565b60606107cc826040518060400160405280602081526020017f5361666545524332303a206c6f772d6c6576656c2063616c6c206661696c65648152508573ffffffffffffffffffffffffffffffffffffffff166108599092919063ffffffff16565b9050600081511115610854578080602001905160208110156107ed57600080fd5b8101908080519060200190929190505050610853576040517f08c379a000000000000000000000000000000000000000000000000000000000815260040180806020018281038252602a815260200180610b20602a913960400191505060405180910390fd5b5b505050565b60606108688484600085610871565b90509392505050565b6060824710156108cc576040517f08c379a0000000000000000000000000000000000000000000000000000000008152600401808060200182810382526026815260200180610afa6026913960400191505060405180910390fd5b6108d585610a1a565b610947576040517f08c379a000000000000000000000000000000000000000000000000000000000815260040180806020018281038252601d8152602001807f416464726573733a2063616c6c20746f206e6f6e2d636f6e747261637400000081525060200191505060405180910390fd5b600060608673ffffffffffffffffffffffffffffffffffffffff1685876040518082805190602001908083835b602083106109975780518252602082019150602081019050602083039250610974565b6001836020036101000a03801982511681845116808217855250505050505090500191505060006040518083038185875af1925050503d80600081146109f9576040519150601f19603f3d011682016040523d82523d6000602084013e6109fe565b606091505b5091509150610a0e828286610a2d565b92505050949350505050565b600080823b905060008111915050919050565b60608315610a3d57829050610af2565b600083511115610a505782518084602001fd5b816040517f08c379a00000000000000000000000000000000000000000000000000000000081526004018080602001828103825283818151815260200191508051906020019080838360005b83811015610ab7578082015181840152602081019050610a9c565b50505050905090810190601f168015610ae45780820380516001836020036101000a031916815260200191505b509250505060405180910390fd5b939250505056fe416464726573733a20696e73756666696369656e742062616c616e636520666f722063616c6c5361666545524332303a204552433230206f7065726174696f6e20646964206e6f742073756363656564a264697066735822122068f0da3063f8727257e2ff52f3f035172c982ef34c5b3eaba9cc52cb096c3ff664736f6c634300060c0033436c6966663a2042656e65666963696172792063616e6e6f7420626520656d707479",
  "devdoc": {
    "details": "A token holder contract that can release its token balance with a cliff period. Optionally revocable by the owner.",
    "kind": "dev",
    "methods": {
      "constructor": {
        "details": "Creates a cliff contract that locks its balance of any ERC20 token and only allows release to the beneficiary once the cliff has passed.",
        "params": {
          "_beneficiary": "address of the beneficiary to whom vested tokens are transferred",
          "_cliffInMonths": "duration in months of the cliff in which tokens will begin to vest"
        }
      },
      "vestedAmount()": {
        "details": "Calculates the amount that has already vested but hasn't been released yet."
      }
    },
    "title": "Cliff",
    "version": 1
  },
  "userdoc": {
    "kind": "user",
    "methods": {
      "release()": {
        "notice": "Transfers vested tokens to beneficiary."
      }
    },
    "version": 1
  },
  "storageLayout": {
    "storage": [
      {
        "astId": 12431,
        "contract": "src/Cliff.sol:Cliff",
        "label": "released",
        "offset": 0,
        "slot": "0",
        "type": "t_uint256"
      }
    ],
    "types": {
      "t_uint256": {
        "encoding": "inplace",
        "label": "uint256",
        "numberOfBytes": "32"
      }
    }
  }
}