{
  "address": "0x8F4FfB4484482da6306E5dF9A2BA658dBA038E81",
  "abi": [
    {
      "inputs": [
        {
          "internalType": "address",
          "name": "_factory",
          "type": "address"
        },
        {
          "internalType": "address",
          "name": "_bar",
          "type": "address"
        },
        {
          "internalType": "address",
          "name": "_joe",
          "type": "address"
        },
        {
          "internalType": "address",
          "name": "_wFIL",
          "type": "address"
        }
      ],
      "stateMutability": "nonpayable",
      "type": "constructor"
    },
    {
      "anonymous": false,
      "inputs": [
        {
          "indexed": true,
          "internalType": "address",
          "name": "token",
          "type": "address"
        },
        {
          "indexed": true,
          "internalType": "address",
          "name": "bridge",
          "type": "address"
        }
      ],
      "name": "LogBridgeSet",
      "type": "event"
    },
    {
      "anonymous": false,
      "inputs": [
        {
          "indexed": true,
          "internalType": "address",
          "name": "server",
          "type": "address"
        },
        {
          "indexed": true,
          "internalType": "address",
          "name": "token0",
          "type": "address"
        },
        {
          "indexed": true,
          "internalType": "address",
          "name": "token1",
          "type": "address"
        },
        {
          "indexed": false,
          "internalType": "uint256",
          "name": "amount0",
          "type": "uint256"
        },
        {
          "indexed": false,
          "internalType": "uint256",
          "name": "amount1",
          "type": "uint256"
        },
        {
          "indexed": false,
          "internalType": "uint256",
          "name": "amountJOE",
          "type": "uint256"
        }
      ],
      "name": "LogConvert",
      "type": "event"
    },
    {
      "anonymous": false,
      "inputs": [
        {
          "indexed": true,
          "internalType": "address",
          "name": "previousOwner",
          "type": "address"
        },
        {
          "indexed": true,
          "internalType": "address",
          "name": "newOwner",
          "type": "address"
        }
      ],
      "name": "OwnershipTransferred",
      "type": "event"
    },
    {
      "inputs": [],
      "name": "bar",
      "outputs": [
        {
          "internalType": "address",
          "name": "",
          "type": "address"
        }
      ],
      "stateMutability": "view",
      "type": "function"
    },
    {
      "inputs": [
        {
          "internalType": "address",
          "name": "token",
          "type": "address"
        }
      ],
      "name": "bridgeFor",
      "outputs": [
        {
          "internalType": "address",
          "name": "bridge",
          "type": "address"
        }
      ],
      "stateMutability": "view",
      "type": "function"
    },
    {
      "inputs": [],
      "name": "claimOwnership",
      "outputs": [],
      "stateMutability": "nonpayable",
      "type": "function"
    },
    {
      "inputs": [
        {
          "internalType": "address",
          "name": "token0",
          "type": "address"
        },
        {
          "internalType": "address",
          "name": "token1",
          "type": "address"
        }
      ],
      "name": "convert",
      "outputs": [],
      "stateMutability": "nonpayable",
      "type": "function"
    },
    {
      "inputs": [
        {
          "internalType": "address[]",
          "name": "token0",
          "type": "address[]"
        },
        {
          "internalType": "address[]",
          "name": "token1",
          "type": "address[]"
        }
      ],
      "name": "convertMultiple",
      "outputs": [],
      "stateMutability": "nonpayable",
      "type": "function"
    },
    {
      "inputs": [],
      "name": "factory",
      "outputs": [
        {
          "internalType": "contract IJoeFactory",
          "name": "",
          "type": "address"
        }
      ],
      "stateMutability": "view",
      "type": "function"
    },
    {
      "inputs": [],
      "name": "owner",
      "outputs": [
        {
          "internalType": "address",
          "name": "",
          "type": "address"
        }
      ],
      "stateMutability": "view",
      "type": "function"
    },
    {
      "inputs": [],
      "name": "pendingOwner",
      "outputs": [
        {
          "internalType": "address",
          "name": "",
          "type": "address"
        }
      ],
      "stateMutability": "view",
      "type": "function"
    },
    {
      "inputs": [
        {
          "internalType": "address",
          "name": "token",
          "type": "address"
        },
        {
          "internalType": "address",
          "name": "bridge",
          "type": "address"
        }
      ],
      "name": "setBridge",
      "outputs": [],
      "stateMutability": "nonpayable",
      "type": "function"
    },
    {
      "inputs": [
        {
          "internalType": "address",
          "name": "newOwner",
          "type": "address"
        },
        {
          "internalType": "bool",
          "name": "direct",
          "type": "bool"
        },
        {
          "internalType": "bool",
          "name": "renounce",
          "type": "bool"
        }
      ],
      "name": "transferOwnership",
      "outputs": [],
      "stateMutability": "nonpayable",
      "type": "function"
    }
  ],
  "transactionHash": "0x2944c8d71bb4796e4a97d618017403ae75ca4387f9f8d4652f614556fefea53a",
  "args": [
    "0x811A9DCb0a52cd068BD4D2DCd689f5207F01137A",
    "0x71ADd5d742021e497814FB9f7C12946a9A1EB69f",
    "0xA1DE7f0c8F99888EEF00578321c29eFB2d10E8A8",
    "0x1228c8da5429753457c4D8117f4868AA775E1795"
  ],
  "numDeployments": 6,
  "solcInputHash": "6f522e8551a18a440a72f8db81fd2215",
  "bytecode": "0x61010060405234801561001157600080fd5b50604051611a9b380380611a9b8339818101604052608081101561003457600080fd5b5080516020820151604080840151606090940151600080546001600160a01b0319163390811782559251949593949192917f8be0079c531659141344cd1fd0a4f28419497f9722a3daafe3b4186f6b6457e0908290a36001600160601b0319606094851b811660805292841b831660a05290831b821660c05290911b1660e05260805160601c60a05160601c60c05160601c60e05160601c611938610163600039806105c552806106e35280610d415280610d7e5280610f235280610f605280610f895280610fb65280610ff3528061101c5250806105885280610cab5280610cf05280610dde5280610e235280610e875280610ecc528061114f52508061079a5280610d125280610e455280610eee528061117152508061076752806107c052806111a152506119386000f3fe608060405234801561001057600080fd5b506004361061009e5760003560e01c8063a761a93911610066578063a761a939146101f7578063bd1b820c1461021d578063c45a01551461024b578063e30c397814610253578063febb0f7e1461025b5761009e565b8063078dfbe7146100a3578063303e6aa4146100db5780634e71e0c81461019d5780638da5cb5b146101a55780639d22ae8c146101c9575b600080fd5b6100d9600480360360608110156100b957600080fd5b506001600160a01b03813516906020810135151590604001351515610263565b005b6100d9600480360360408110156100f157600080fd5b81019060208101813564010000000081111561010c57600080fd5b82018360208201111561011e57600080fd5b8035906020019184602083028401116401000000008311171561014057600080fd5b91939092909160208101903564010000000081111561015e57600080fd5b82018360208201111561017057600080fd5b8035906020019184602083028401116401000000008311171561019257600080fd5b5090925090506103ab565b6100d9610456565b6101ad610518565b604080516001600160a01b039092168252519081900360200190f35b6100d9600480360360408110156101df57600080fd5b506001600160a01b0381358116916020013516610527565b6101ad6004803603602081101561020d57600080fd5b50356001600160a01b03166106c0565b6100d96004803603604081101561023357600080fd5b506001600160a01b0381358116916020013516610708565b6101ad610765565b6101ad610789565b6101ad610798565b6000546001600160a01b031633146102c2576040805162461bcd60e51b815260206004820181905260248201527f4f776e61626c653a2063616c6c6572206973206e6f7420746865206f776e6572604482015290519081900360640190fd5b811561038a576001600160a01b0383161515806102dc5750805b610325576040805162461bcd60e51b81526020600482015260156024820152744f776e61626c653a207a65726f206164647265737360581b604482015290519081900360640190fd5b600080546040516001600160a01b03808716939216917f8be0079c531659141344cd1fd0a4f28419497f9722a3daafe3b4186f6b6457e091a3600080546001600160a01b0385166001600160a01b0319918216179091556001805490911690556103a6565b600180546001600160a01b0319166001600160a01b0385161790555b505050565b3332146103fa576040805162461bcd60e51b81526020600482015260186024820152774a6f654d616b657256323a206d7573742075736520454f4160401b604482015290519081900360640190fd5b8260005b8181101561044e5761044686868381811061041557fe5b905060200201356001600160a01b031685858481811061043157fe5b905060200201356001600160a01b03166107bc565b6001016103fe565b505050505050565b6001546001600160a01b03163381146104b6576040805162461bcd60e51b815260206004820181905260248201527f4f776e61626c653a2063616c6c657220213d2070656e64696e67206f776e6572604482015290519081900360640190fd5b600080546040516001600160a01b03808516939216917f8be0079c531659141344cd1fd0a4f28419497f9722a3daafe3b4186f6b6457e091a3600080546001600160a01b039092166001600160a01b0319928316179055600180549091169055565b6000546001600160a01b031681565b6000546001600160a01b03163314610586576040805162461bcd60e51b815260206004820181905260248201527f4f776e61626c653a2063616c6c6572206973206e6f7420746865206f776e6572604482015290519081900360640190fd5b7f00000000000000000000000000000000000000000000000000000000000000006001600160a01b0316826001600160a01b0316141580156105fa57507f00000000000000000000000000000000000000000000000000000000000000006001600160a01b0316826001600160a01b031614155b80156106185750806001600160a01b0316826001600160a01b031614155b610669576040805162461bcd60e51b815260206004820152601a60248201527f4a6f654d616b657256323a20496e76616c696420627269646765000000000000604482015290519081900360640190fd5b6001600160a01b0382811660008181526002602052604080822080546001600160a01b0319169486169485179055517f2e103aa707acc565f9a1547341914802b2bfe977fd79c595209f248ae4b006139190a35050565b6001600160a01b03808216600090815260026020526040902054168061070357507f00000000000000000000000000000000000000000000000000000000000000005b919050565b333214610757576040805162461bcd60e51b81526020600482015260186024820152774a6f654d616b657256323a206d7573742075736520454f4160401b604482015290519081900360640190fd5b61076182826107bc565b5050565b7f000000000000000000000000000000000000000000000000000000000000000081565b6001546001600160a01b031681565b7f000000000000000000000000000000000000000000000000000000000000000081565b60007f00000000000000000000000000000000000000000000000000000000000000006001600160a01b031663e6a4390584846040518363ffffffff1660e01b815260040180836001600160a01b03168152602001826001600160a01b031681526020019250505060206040518083038186803b15801561083c57600080fd5b505afa158015610850573d6000803e3d6000fd5b505050506040513d602081101561086657600080fd5b505190506001600160a01b0381166108c5576040805162461bcd60e51b815260206004820152601860248201527f4a6f654d616b657256323a20496e76616c696420706169720000000000000000604482015290519081900360640190fd5b61095381826001600160a01b03166370a08231306040518263ffffffff1660e01b815260040180826001600160a01b0316815260200191505060206040518083038186803b15801561091657600080fd5b505afa15801561092a573d6000803e3d6000fd5b505050506040513d602081101561094057600080fd5b50516001600160a01b0384169190610b15565b6040805163226bf2d160e21b815230600482015281516001600160a01b038416926389afcb4492602480820193918290030181600087803b15801561099757600080fd5b505af11580156109ab573d6000803e3d6000fd5b505050506040513d60408110156109c157600080fd5b5050604080516370a0823160e01b815230600482015290516000916001600160a01b038616916370a0823191602480820192602092909190829003018186803b158015610a0d57600080fd5b505afa158015610a21573d6000803e3d6000fd5b505050506040513d6020811015610a3757600080fd5b5051604080516370a0823160e01b815230600482015290519192506000916001600160a01b038616916370a08231916024808301926020929190829003018186803b158015610a8557600080fd5b505afa158015610a99573d6000803e3d6000fd5b505050506040513d6020811015610aaf57600080fd5b505190506001600160a01b03808516908616337fd06b1d7ed79b664d17472c6f6997b929f1abe463ccccb4e5b6a0038f2f730c158585610af18b8b8484610c7f565b60408051938452602084019290925282820152519081900360600190a45050505050565b604080516001600160a01b038481166024830152604480830185905283518084039091018152606490920183526020820180516001600160e01b031663a9059cbb60e01b178152925182516000946060949389169392918291908083835b60208310610b925780518252601f199092019160209182019101610b73565b6001836020036101000a0380198251168184511680821785525050505050509050019150506000604051808303816000865af19150503d8060008114610bf4576040519150601f19603f3d011682016040523d82523d6000602084013e610bf9565b606091505b5091509150818015610c27575080511580610c275750808060200190516020811015610c2457600080fd5b50515b610c78576040805162461bcd60e51b815260206004820152601a60248201527f5361666545524332303a205472616e73666572206661696c6564000000000000604482015290519081900360640190fd5b5050505050565b6000836001600160a01b0316856001600160a01b03161415610ddc576000610ca784846110f0565b90507f00000000000000000000000000000000000000000000000000000000000000006001600160a01b0316866001600160a01b03161415610d3f57610d376001600160a01b037f0000000000000000000000000000000000000000000000000000000000000000167f000000000000000000000000000000000000000000000000000000000000000083610b15565b809150610dd6565b7f00000000000000000000000000000000000000000000000000000000000000006001600160a01b0316866001600160a01b03161415610daa57610da37f000000000000000000000000000000000000000000000000000000000000000082611147565b9150610dd6565b6000610db5876106c0565b9050610dc38782843061119c565b9150610dd28182846000610c7f565b9250505b506110e8565b7f00000000000000000000000000000000000000000000000000000000000000006001600160a01b0316856001600160a01b03161415610e8557610e6a6001600160a01b037f0000000000000000000000000000000000000000000000000000000000000000167f000000000000000000000000000000000000000000000000000000000000000085610b15565b610e7e83610e788685611147565b906110f0565b90506110e8565b7f00000000000000000000000000000000000000000000000000000000000000006001600160a01b0316846001600160a01b03161415610f2157610f136001600160a01b037f0000000000000000000000000000000000000000000000000000000000000000167f000000000000000000000000000000000000000000000000000000000000000084610b15565b610e7e82610e788786611147565b7f00000000000000000000000000000000000000000000000000000000000000006001600160a01b0316856001600160a01b03161415610fb457610e7e7f0000000000000000000000000000000000000000000000000000000000000000610faf85610e78887f0000000000000000000000000000000000000000000000000000000000000000883061119c565b611147565b7f00000000000000000000000000000000000000000000000000000000000000006001600160a01b0316846001600160a01b0316141561104257610e7e7f0000000000000000000000000000000000000000000000000000000000000000610faf84610e78897f0000000000000000000000000000000000000000000000000000000000000000893061119c565b600061104d866106c0565b9050600061105a866106c0565b9050856001600160a01b0316826001600160a01b031614156110945761108d82876110878a868a3061119c565b87610c7f565b92506110e5565b866001600160a01b0316816001600160a01b031614156110c55761108d8782876110c08a868a3061119c565b610c7f565b6110e282826110d68a868a3061119c565b6110c08a868a3061119c565b92505b50505b949350505050565b81810181811015611141576040805162461bcd60e51b8152602060048201526016602482015275536166654d6174683a20416464204f766572666c6f7760501b604482015290519081900360640190fd5b92915050565b6000611195837f0000000000000000000000000000000000000000000000000000000000000000847f000000000000000000000000000000000000000000000000000000000000000061119c565b9392505050565b6000807f00000000000000000000000000000000000000000000000000000000000000006001600160a01b031663e6a4390587876040518363ffffffff1660e01b815260040180836001600160a01b03168152602001826001600160a01b031681526020019250505060206040518083038186803b15801561121d57600080fd5b505afa158015611231573d6000803e3d6000fd5b505050506040513d602081101561124757600080fd5b505190506001600160a01b0381166112a6576040805162461bcd60e51b815260206004820152601a60248201527f4a6f654d616b657256323a2043616e6e6f7420636f6e76657274000000000000604482015290519081900360640190fd5b600080826001600160a01b0316630902f1ac6040518163ffffffff1660e01b815260040160606040518083038186803b1580156112e257600080fd5b505afa1580156112f6573d6000803e3d6000fd5b505050506040513d606081101561130c57600080fd5b5080516020909101516dffffffffffffffffffffffffffff91821693501690506113406001600160a01b0389168488610b15565b826001600160a01b0316630dfe16816040518163ffffffff1660e01b815260040160206040518083038186803b15801561137957600080fd5b505afa15801561138d573d6000803e3d6000fd5b505050506040513d60208110156113a357600080fd5b50516001600160a01b038981169116141561143a5781886001600160a01b03166370a08231856040518263ffffffff1660e01b815260040180826001600160a01b0316815260200191505060206040518083038186803b15801561140657600080fd5b505afa15801561141a573d6000803e3d6000fd5b505050506040513d602081101561143057600080fd5b50510395506114b8565b80886001600160a01b03166370a08231856040518263ffffffff1660e01b815260040180826001600160a01b0316815260200191505060206040518083038186803b15801561148857600080fd5b505afa15801561149c573d6000803e3d6000fd5b505050506040513d60208110156114b257600080fd5b50510395505b6000876001600160a01b03166370a08231876040518263ffffffff1660e01b815260040180826001600160a01b0316815260200191505060206040518083038186803b15801561150757600080fd5b505afa15801561151b573d6000803e3d6000fd5b505050506040513d602081101561153157600080fd5b505190506000611543886103e561189d565b9050846001600160a01b0316630dfe16816040518163ffffffff1660e01b815260040160206040518083038186803b15801561157e57600080fd5b505afa158015611592573d6000803e3d6000fd5b505050506040513d60208110156115a857600080fd5b50516001600160a01b038b8116911614156116f65760006115cf82610e78876103e861189d565b6115d9838661189d565b816115e057fe5b0490506001600160a01b03861663022c0d9f6000838b826040519080825280601f01601f191660200182016040528015611621576020820181803683370190505b506040518563ffffffff1660e01b815260040180858152602001848152602001836001600160a01b0316815260200180602001828103825283818151815260200191508051906020019080838360005b83811015611689578181015183820152602001611671565b50505050905090810190601f1680156116b65780820380516001836020036101000a031916815260200191505b5095505050505050600060405180830381600087803b1580156116d857600080fd5b505af11580156116ec573d6000803e3d6000fd5b5050505050611814565b600061170882610e78866103e861189d565b611712838761189d565b8161171957fe5b604080516000808252602082019092529290910492506001600160a01b0388169163022c0d9f9184918c906040518563ffffffff1660e01b815260040180858152602001848152602001836001600160a01b0316815260200180602001828103825283818151815260200191508051906020019080838360005b838110156117ab578181015183820152602001611793565b50505050905090810190601f1680156117d85780820380516001836020036101000a031916815260200191505b5095505050505050600060405180830381600087803b1580156117fa57600080fd5b505af115801561180e573d6000803e3d6000fd5b50505050505b81896001600160a01b03166370a08231896040518263ffffffff1660e01b815260040180826001600160a01b0316815260200191505060206040518083038186803b15801561186257600080fd5b505afa158015611876573d6000803e3d6000fd5b505050506040513d602081101561188c57600080fd5b5051039a9950505050505050505050565b60008115806118b8575050808202828282816118b557fe5b04145b611141576040805162461bcd60e51b8152602060048201526016602482015275536166654d6174683a204d756c204f766572666c6f7760501b604482015290519081900360640190fdfea264697066735822122040ba1941e5abdfe422af3e2e5ee774072937cde90a506eea4e86440cf11740ac64736f6c634300060c0033",
  "devdoc": {
    "kind": "dev",
    "methods": {
      "transferOwnership(address,bool,bool)": {
        "params": {
          "direct": "True if `newOwner` should be set immediately. False if `newOwner` needs to use `claimOwnership`.",
          "newOwner": "Address of the new owner.",
          "renounce": "Allows the `newOwner` to be `address(0)` if `direct` and `renounce` is True. Has no effect otherwise."
        }
      }
    },
    "version": 1
  },
  "userdoc": {
    "kind": "user",
    "methods": {
      "claimOwnership()": {
        "notice": "Needs to be called by `pendingOwner` to claim ownership."
      },
      "transferOwnership(address,bool,bool)": {
        "notice": "Transfers ownership to `newOwner`. Either directly or claimable by the new pending owner. Can only be invoked by the current `owner`."
      }
    },
    "version": 1
  },
  "storageLayout": {
    "storage": [
      {
        "astId": 26306,
        "contract": "src/JoeMakerV2.sol:JoeMakerV2",
        "label": "owner",
        "offset": 0,
        "slot": "0",
        "type": "t_address"
      },
      {
        "astId": 26308,
        "contract": "src/JoeMakerV2.sol:JoeMakerV2",
        "label": "pendingOwner",
        "offset": 0,
        "slot": "1",
        "type": "t_address"
      },
      {
        "astId": 13448,
        "contract": "src/JoeMakerV2.sol:JoeMakerV2",
        "label": "_bridges",
        "offset": 0,
        "slot": "2",
        "type": "t_mapping(t_address,t_address)"
      }
    ],
    "types": {
      "t_address": {
        "encoding": "inplace",
        "label": "address",
        "numberOfBytes": "20"
      },
      "t_mapping(t_address,t_address)": {
        "encoding": "mapping",
        "key": "t_address",
        "label": "mapping(address => address)",
        "numberOfBytes": "32",
        "value": "t_address"
      }
    }
  }
}