{
  "address": "0x3EF932fd6B59B1A18Ef6d06054F392726Ad0caB6",
  "abi": [
    {
      "anonymous": false,
      "inputs": [
        {
          "indexed": true,
          "internalType": "address",
          "name": "owner",
          "type": "address"
        },
        {
          "indexed": true,
          "internalType": "address",
          "name": "spender",
          "type": "address"
        },
        {
          "indexed": false,
          "internalType": "uint256",
          "name": "value",
          "type": "uint256"
        }
      ],
      "name": "Approval",
      "type": "event"
    },
    {
      "anonymous": false,
      "inputs": [
        {
          "indexed": true,
          "internalType": "address",
          "name": "delegator",
          "type": "address"
        },
        {
          "indexed": true,
          "internalType": "address",
          "name": "fromDelegate",
          "type": "address"
        },
        {
          "indexed": true,
          "internalType": "address",
          "name": "toDelegate",
          "type": "address"
        }
      ],
      "name": "DelegateChanged",
      "type": "event"
    },
    {
      "anonymous": false,
      "inputs": [
        {
          "indexed": true,
          "internalType": "address",
          "name": "delegate",
          "type": "address"
        },
        {
          "indexed": false,
          "internalType": "uint256",
          "name": "previousBalance",
          "type": "uint256"
        },
        {
          "indexed": false,
          "internalType": "uint256",
          "name": "newBalance",
          "type": "uint256"
        }
      ],
      "name": "DelegateVotesChanged",
      "type": "event"
    },
    {
      "anonymous": false,
      "inputs": [
        {
          "indexed": true,
          "internalType": "address",
          "name": "from",
          "type": "address"
        },
        {
          "indexed": true,
          "internalType": "address",
          "name": "to",
          "type": "address"
        },
        {
          "indexed": false,
          "internalType": "uint256",
          "name": "value",
          "type": "uint256"
        }
      ],
      "name": "Transfer",
      "type": "event"
    },
    {
      "inputs": [],
      "name": "DELEGATION_TYPEHASH",
      "outputs": [
        {
          "internalType": "bytes32",
          "name": "",
          "type": "bytes32"
        }
      ],
      "stateMutability": "view",
      "type": "function"
    },
    {
      "inputs": [],
      "name": "DOMAIN_TYPEHASH",
      "outputs": [
        {
          "internalType": "bytes32",
          "name": "",
          "type": "bytes32"
        }
      ],
      "stateMutability": "view",
      "type": "function"
    },
    {
      "inputs": [
        {
          "internalType": "address",
          "name": "owner",
          "type": "address"
        },
        {
          "internalType": "address",
          "name": "spender",
          "type": "address"
        }
      ],
      "name": "allowance",
      "outputs": [
        {
          "internalType": "uint256",
          "name": "",
          "type": "uint256"
        }
      ],
      "stateMutability": "view",
      "type": "function"
    },
    {
      "inputs": [
        {
          "internalType": "address",
          "name": "spender",
          "type": "address"
        },
        {
          "internalType": "uint256",
          "name": "amount",
          "type": "uint256"
        }
      ],
      "name": "approve",
      "outputs": [
        {
          "internalType": "bool",
          "name": "",
          "type": "bool"
        }
      ],
      "stateMutability": "nonpayable",
      "type": "function"
    },
    {
      "inputs": [
        {
          "internalType": "address",
          "name": "account",
          "type": "address"
        }
      ],
      "name": "balanceOf",
      "outputs": [
        {
          "internalType": "uint256",
          "name": "",
          "type": "uint256"
        }
      ],
      "stateMutability": "view",
      "type": "function"
    },
    {
      "inputs": [
        {
          "internalType": "address",
          "name": "",
          "type": "address"
        },
        {
          "internalType": "uint32",
          "name": "",
          "type": "uint32"
        }
      ],
      "name": "checkpoints",
      "outputs": [
        {
          "internalType": "uint32",
          "name": "fromBlock",
          "type": "uint32"
        },
        {
          "internalType": "uint256",
          "name": "votes",
          "type": "uint256"
        }
      ],
      "stateMutability": "view",
      "type": "function"
    },
    {
      "inputs": [],
      "name": "decimals",
      "outputs": [
        {
          "internalType": "uint8",
          "name": "",
          "type": "uint8"
        }
      ],
      "stateMutability": "view",
      "type": "function"
    },
    {
      "inputs": [
        {
          "internalType": "address",
          "name": "spender",
          "type": "address"
        },
        {
          "internalType": "uint256",
          "name": "subtractedValue",
          "type": "uint256"
        }
      ],
      "name": "decreaseAllowance",
      "outputs": [
        {
          "internalType": "bool",
          "name": "",
          "type": "bool"
        }
      ],
      "stateMutability": "nonpayable",
      "type": "function"
    },
    {
      "inputs": [
        {
          "internalType": "address",
          "name": "delegatee",
          "type": "address"
        }
      ],
      "name": "delegate",
      "outputs": [],
      "stateMutability": "nonpayable",
      "type": "function"
    },
    {
      "inputs": [
        {
          "internalType": "address",
          "name": "delegatee",
          "type": "address"
        },
        {
          "internalType": "uint256",
          "name": "nonce",
          "type": "uint256"
        },
        {
          "internalType": "uint256",
          "name": "expiry",
          "type": "uint256"
        },
        {
          "internalType": "uint8",
          "name": "v",
          "type": "uint8"
        },
        {
          "internalType": "bytes32",
          "name": "r",
          "type": "bytes32"
        },
        {
          "internalType": "bytes32",
          "name": "s",
          "type": "bytes32"
        }
      ],
      "name": "delegateBySig",
      "outputs": [],
      "stateMutability": "nonpayable",
      "type": "function"
    },
    {
      "inputs": [
        {
          "internalType": "address",
          "name": "delegator",
          "type": "address"
        }
      ],
      "name": "delegates",
      "outputs": [
        {
          "internalType": "address",
          "name": "",
          "type": "address"
        }
      ],
      "stateMutability": "view",
      "type": "function"
    },
    {
      "inputs": [
        {
          "internalType": "address",
          "name": "account",
          "type": "address"
        }
      ],
      "name": "getCurrentVotes",
      "outputs": [
        {
          "internalType": "uint256",
          "name": "",
          "type": "uint256"
        }
      ],
      "stateMutability": "view",
      "type": "function"
    },
    {
      "inputs": [
        {
          "internalType": "address",
          "name": "account",
          "type": "address"
        },
        {
          "internalType": "uint256",
          "name": "blockNumber",
          "type": "uint256"
        }
      ],
      "name": "getPriorVotes",
      "outputs": [
        {
          "internalType": "uint256",
          "name": "",
          "type": "uint256"
        }
      ],
      "stateMutability": "view",
      "type": "function"
    },
    {
      "inputs": [
        {
          "internalType": "address",
          "name": "spender",
          "type": "address"
        },
        {
          "internalType": "uint256",
          "name": "addedValue",
          "type": "uint256"
        }
      ],
      "name": "increaseAllowance",
      "outputs": [
        {
          "internalType": "bool",
          "name": "",
          "type": "bool"
        }
      ],
      "stateMutability": "nonpayable",
      "type": "function"
    },
    {
      "inputs": [],
      "name": "maxSupply",
      "outputs": [
        {
          "internalType": "uint256",
          "name": "",
          "type": "uint256"
        }
      ],
      "stateMutability": "view",
      "type": "function"
    },
    {
      "inputs": [
        {
          "internalType": "address",
          "name": "_to",
          "type": "address"
        },
        {
          "internalType": "uint256",
          "name": "_amount",
          "type": "uint256"
        }
      ],
      "name": "mint",
      "outputs": [],
      "stateMutability": "nonpayable",
      "type": "function"
    },
    {
      "inputs": [],
      "name": "name",
      "outputs": [
        {
          "internalType": "string",
          "name": "",
          "type": "string"
        }
      ],
      "stateMutability": "view",
      "type": "function"
    },
    {
      "inputs": [
        {
          "internalType": "address",
          "name": "",
          "type": "address"
        }
      ],
      "name": "nonces",
      "outputs": [
        {
          "internalType": "uint256",
          "name": "",
          "type": "uint256"
        }
      ],
      "stateMutability": "view",
      "type": "function"
    },
    {
      "inputs": [
        {
          "internalType": "address",
          "name": "",
          "type": "address"
        }
      ],
      "name": "numCheckpoints",
      "outputs": [
        {
          "internalType": "uint32",
          "name": "",
          "type": "uint32"
        }
      ],
      "stateMutability": "view",
      "type": "function"
    },
    {
      "inputs": [],
      "name": "symbol",
      "outputs": [
        {
          "internalType": "string",
          "name": "",
          "type": "string"
        }
      ],
      "stateMutability": "view",
      "type": "function"
    },
    {
      "inputs": [],
      "name": "totalSupply",
      "outputs": [
        {
          "internalType": "uint256",
          "name": "",
          "type": "uint256"
        }
      ],
      "stateMutability": "view",
      "type": "function"
    },
    {
      "inputs": [
        {
          "internalType": "address",
          "name": "to",
          "type": "address"
        },
        {
          "internalType": "uint256",
          "name": "amount",
          "type": "uint256"
        }
      ],
      "name": "transfer",
      "outputs": [
        {
          "internalType": "bool",
          "name": "",
          "type": "bool"
        }
      ],
      "stateMutability": "nonpayable",
      "type": "function"
    },
    {
      "inputs": [
        {
          "internalType": "address",
          "name": "from",
          "type": "address"
        },
        {
          "internalType": "address",
          "name": "to",
          "type": "address"
        },
        {
          "internalType": "uint256",
          "name": "amount",
          "type": "uint256"
        }
      ],
      "name": "transferFrom",
      "outputs": [
        {
          "internalType": "bool",
          "name": "",
          "type": "bool"
        }
      ],
      "stateMutability": "nonpayable",
      "type": "function"
    }
  ],
  "transactionHash": "0x0f6196f13670fb472fc0bb0bbbbf9df1ce5f481abf29b180f076dc4c00673539",
  "args": [],
  "numDeployments": 1,
  "solcInputHash": "98f718af8c09d59653ed46e8d96798fc",
  "bytecode": "0x60806040526b019d971e4fe8401e740000006005553480156200002157600080fd5b506040518060400160405280600881526020017f4a6f65546f6b656e0000000000000000000000000000000000000000000000008152506040518060400160405280600381526020017f4a4f45000000000000000000000000000000000000000000000000000000000081525081600390816200009f919062000334565b508060049081620000b1919062000334565b5050506200041b565b600081519050919050565b7f4e487b7100000000000000000000000000000000000000000000000000000000600052604160045260246000fd5b7f4e487b7100000000000000000000000000000000000000000000000000000000600052602260045260246000fd5b600060028204905060018216806200013c57607f821691505b602082108103620001525762000151620000f4565b5b50919050565b60008190508160005260206000209050919050565b60006020601f8301049050919050565b600082821b905092915050565b600060088302620001bc7fffffffffffffffffffffffffffffffffffffffffffffffffffffffffffffffff826200017d565b620001c886836200017d565b95508019841693508086168417925050509392505050565b6000819050919050565b6000819050919050565b6000620002156200020f6200020984620001e0565b620001ea565b620001e0565b9050919050565b6000819050919050565b6200023183620001f4565b6200024962000240826200021c565b8484546200018a565b825550505050565b600090565b6200026062000251565b6200026d81848462000226565b505050565b5b8181101562000295576200028960008262000256565b60018101905062000273565b5050565b601f821115620002e457620002ae8162000158565b620002b9846200016d565b81016020851015620002c9578190505b620002e1620002d8856200016d565b83018262000272565b50505b505050565b600082821c905092915050565b60006200030960001984600802620002e9565b1980831691505092915050565b6000620003248383620002f6565b9150826002028217905092915050565b6200033f82620000ba565b67ffffffffffffffff8111156200035b576200035a620000c5565b5b62000367825462000123565b6200037482828562000299565b600060209050601f831160018114620003ac576000841562000397578287015190505b620003a3858262000316565b86555062000413565b601f198416620003bc8662000158565b60005b82811015620003e657848901518255600182019150602085019450602081019050620003bf565b8683101562000406578489015162000402601f891682620002f6565b8355505b6001600288020188555050505b505050505050565b612f15806200042b6000396000f3fe608060405234801561001057600080fd5b506004361061014d5760003560e01c806370a08231116100c3578063b4b5ea571161007c578063b4b5ea5714610400578063c3cda52014610430578063d5abeb011461044c578063dd62ed3e1461046a578063e7a324dc1461049a578063f1127ed8146104b85761014d565b806370a08231146102f2578063782d6fe1146103225780637ecebe001461035257806395d89b4114610382578063a457c2d7146103a0578063a9059cbb146103d05761014d565b8063313ce56711610115578063313ce5671461020c578063395093511461022a57806340c10f191461025a578063587cde1e146102765780635c19a95c146102a65780636fcfff45146102c25761014d565b806306fdde0314610152578063095ea7b31461017057806318160ddd146101a057806320606b70146101be57806323b872dd146101dc575b600080fd5b61015a6104e9565b6040516101679190611f54565b60405180910390f35b61018a6004803603810190610185919061200f565b61057b565b604051610197919061206a565b60405180910390f35b6101a861059e565b6040516101b59190612094565b60405180910390f35b6101c66105a8565b6040516101d391906120c8565b60405180910390f35b6101f660048036038101906101f191906120e3565b6105cc565b604051610203919061206a565b60405180910390f35b6102146105fb565b6040516102219190612152565b60405180910390f35b610244600480360381019061023f919061200f565b610604565b604051610251919061206a565b60405180910390f35b610274600480360381019061026f919061200f565b61063b565b005b610290600480360381019061028b919061216d565b61070b565b60405161029d91906121a9565b60405180910390f35b6102c060048036038101906102bb919061216d565b610774565b005b6102dc60048036038101906102d7919061216d565b610781565b6040516102e991906121e3565b60405180910390f35b61030c6004803603810190610307919061216d565b6107a4565b6040516103199190612094565b60405180910390f35b61033c6004803603810190610337919061200f565b6107ec565b6040516103499190612094565b60405180910390f35b61036c6004803603810190610367919061216d565b610bc1565b6040516103799190612094565b60405180910390f35b61038a610bd9565b6040516103979190611f54565b60405180910390f35b6103ba60048036038101906103b5919061200f565b610c6b565b6040516103c7919061206a565b60405180910390f35b6103ea60048036038101906103e5919061200f565b610ce2565b6040516103f7919061206a565b60405180910390f35b61041a6004803603810190610415919061216d565b610d05565b6040516104279190612094565b60405180910390f35b61044a60048036038101906104459190612256565b610de4565b005b610454611078565b6040516104619190612094565b60405180910390f35b610484600480360381019061047f91906122e3565b61107e565b6040516104919190612094565b60405180910390f35b6104a2611105565b6040516104af91906120c8565b60405180910390f35b6104d260048036038101906104cd919061234f565b611129565b6040516104e092919061238f565b60405180910390f35b6060600380546104f8906123e7565b80601f0160208091040260200160405190810160405280929190818152602001828054610524906123e7565b80156105715780601f1061054657610100808354040283529160200191610571565b820191906000526020600020905b81548152906001019060200180831161055457829003601f168201915b5050505050905090565b60008061058661116a565b9050610593818585611172565b600191505092915050565b6000600254905090565b7f8cad95687ba82c2ce50e74f7b754645e5117c3a5bec8151c0726d5857980a86681565b6000806105d761116a565b90506105e485828561133b565b6105ef8585856113c7565b60019150509392505050565b60006012905090565b60008061060f61116a565b9050610630818585610621858961107e565b61062b9190612447565b611172565b600191505092915050565b6005548161064761059e565b6106519190612447565b1115610692576040517f08c379a00000000000000000000000000000000000000000000000000000000081526004016106899061250f565b60405180910390fd5b61069c828261163d565b6107076000600660008573ffffffffffffffffffffffffffffffffffffffff1673ffffffffffffffffffffffffffffffffffffffff16815260200190815260200160002060009054906101000a900473ffffffffffffffffffffffffffffffffffffffff1683611793565b5050565b6000600660008373ffffffffffffffffffffffffffffffffffffffff1673ffffffffffffffffffffffffffffffffffffffff16815260200190815260200160002060009054906101000a900473ffffffffffffffffffffffffffffffffffffffff169050919050565b61077e3382611a34565b50565b60086020528060005260406000206000915054906101000a900463ffffffff1681565b60008060008373ffffffffffffffffffffffffffffffffffffffff1673ffffffffffffffffffffffffffffffffffffffff168152602001908152602001600020549050919050565b6000438210610830576040517f08c379a0000000000000000000000000000000000000000000000000000000008152600401610827906125a1565b60405180910390fd5b6000600860008573ffffffffffffffffffffffffffffffffffffffff1673ffffffffffffffffffffffffffffffffffffffff16815260200190815260200160002060009054906101000a900463ffffffff16905060008163ffffffff160361089c576000915050610bbb565b82600760008673ffffffffffffffffffffffffffffffffffffffff1673ffffffffffffffffffffffffffffffffffffffff16815260200190815260200160002060006001846108eb91906125c1565b63ffffffff1663ffffffff16815260200190815260200160002060000160009054906101000a900463ffffffff1663ffffffff161161099857600760008573ffffffffffffffffffffffffffffffffffffffff1673ffffffffffffffffffffffffffffffffffffffff168152602001908152602001600020600060018361097291906125c1565b63ffffffff1663ffffffff16815260200190815260200160002060010154915050610bbb565b82600760008673ffffffffffffffffffffffffffffffffffffffff1673ffffffffffffffffffffffffffffffffffffffff16815260200190815260200160002060008063ffffffff16815260200190815260200160002060000160009054906101000a900463ffffffff1663ffffffff161115610a19576000915050610bbb565b600080600183610a2991906125c1565b90505b8163ffffffff168163ffffffff161115610b5557600060028383610a5091906125c1565b610a5a9190612624565b82610a6591906125c1565b90506000600760008973ffffffffffffffffffffffffffffffffffffffff1673ffffffffffffffffffffffffffffffffffffffff16815260200190815260200160002060008363ffffffff1663ffffffff1681526020019081526020016000206040518060400160405290816000820160009054906101000a900463ffffffff1663ffffffff1663ffffffff168152602001600182015481525050905086816000015163ffffffff1603610b2457806020015195505050505050610bbb565b86816000015163ffffffff161015610b3e57819350610b4e565b600182610b4b91906125c1565b92505b5050610a2c565b600760008773ffffffffffffffffffffffffffffffffffffffff1673ffffffffffffffffffffffffffffffffffffffff16815260200190815260200160002060008363ffffffff1663ffffffff1681526020019081526020016000206001015493505050505b92915050565b60096020528060005260406000206000915090505481565b606060048054610be8906123e7565b80601f0160208091040260200160405190810160405280929190818152602001828054610c14906123e7565b8015610c615780601f10610c3657610100808354040283529160200191610c61565b820191906000526020600020905b815481529060010190602001808311610c4457829003601f168201915b5050505050905090565b600080610c7661116a565b90506000610c84828661107e565b905083811015610cc9576040517f08c379a0000000000000000000000000000000000000000000000000000000008152600401610cc0906126c7565b60405180910390fd5b610cd68286868403611172565b60019250505092915050565b600080610ced61116a565b9050610cfa8185856113c7565b600191505092915050565b600080600860008473ffffffffffffffffffffffffffffffffffffffff1673ffffffffffffffffffffffffffffffffffffffff16815260200190815260200160002060009054906101000a900463ffffffff16905060008163ffffffff1611610d6f576000610ddc565b600760008473ffffffffffffffffffffffffffffffffffffffff1673ffffffffffffffffffffffffffffffffffffffff1681526020019081526020016000206000600183610dbd91906125c1565b63ffffffff1663ffffffff168152602001908152602001600020600101545b915050919050565b60007f8cad95687ba82c2ce50e74f7b754645e5117c3a5bec8151c0726d5857980a866610e0f6104e9565b80519060200120610e1e611ba5565b30604051602001610e3294939291906126e7565b60405160208183030381529060405280519060200120905060007fe48329057bfd03d55e49b547132e39cffd9c1820ad7b9d4c5307691425d15adf888888604051602001610e83949392919061272c565b60405160208183030381529060405280519060200120905060008282604051602001610eb09291906127e9565b604051602081830303815290604052805190602001209050600060018288888860405160008152602001604052604051610eed9493929190612820565b6020604051602081039080840390855afa158015610f0f573d6000803e3d6000fd5b505050602060405103519050600073ffffffffffffffffffffffffffffffffffffffff168173ffffffffffffffffffffffffffffffffffffffff1603610f8a576040517f08c379a0000000000000000000000000000000000000000000000000000000008152600401610f81906128d7565b60405180910390fd5b600960008273ffffffffffffffffffffffffffffffffffffffff1673ffffffffffffffffffffffffffffffffffffffff1681526020019081526020016000206000815480929190610fda906128f7565b91905055891461101f576040517f08c379a0000000000000000000000000000000000000000000000000000000008152600401611016906129b1565b60405180910390fd5b87421115611062576040517f08c379a000000000000000000000000000000000000000000000000000000000815260040161105990612a43565b60405180910390fd5b61106c818b611a34565b50505050505050505050565b60055481565b6000600160008473ffffffffffffffffffffffffffffffffffffffff1673ffffffffffffffffffffffffffffffffffffffff16815260200190815260200160002060008373ffffffffffffffffffffffffffffffffffffffff1673ffffffffffffffffffffffffffffffffffffffff16815260200190815260200160002054905092915050565b7fe48329057bfd03d55e49b547132e39cffd9c1820ad7b9d4c5307691425d15adf81565b6007602052816000526040600020602052806000526040600020600091509150508060000160009054906101000a900463ffffffff16908060010154905082565b600033905090565b600073ffffffffffffffffffffffffffffffffffffffff168373ffffffffffffffffffffffffffffffffffffffff16036111e1576040517f08c379a00000000000000000000000000000000000000000000000000000000081526004016111d890612ad5565b60405180910390fd5b600073ffffffffffffffffffffffffffffffffffffffff168273ffffffffffffffffffffffffffffffffffffffff1603611250576040517f08c379a000000000000000000000000000000000000000000000000000000000815260040161124790612b67565b60405180910390fd5b80600160008573ffffffffffffffffffffffffffffffffffffffff1673ffffffffffffffffffffffffffffffffffffffff16815260200190815260200160002060008473ffffffffffffffffffffffffffffffffffffffff1673ffffffffffffffffffffffffffffffffffffffff168152602001908152602001600020819055508173ffffffffffffffffffffffffffffffffffffffff168373ffffffffffffffffffffffffffffffffffffffff167f8c5be1e5ebec7d5bd14f71427d1e84f3dd0314c0f7b2291e5b200ac8c7c3b9258360405161132e9190612094565b60405180910390a3505050565b6000611347848461107e565b90507fffffffffffffffffffffffffffffffffffffffffffffffffffffffffffffffff81146113c157818110156113b3576040517f08c379a00000000000000000000000000000000000000000000000000000000081526004016113aa90612bd3565b60405180910390fd5b6113c08484848403611172565b5b50505050565b600073ffffffffffffffffffffffffffffffffffffffff168373ffffffffffffffffffffffffffffffffffffffff1603611436576040517f08c379a000000000000000000000000000000000000000000000000000000000815260040161142d90612c65565b60405180910390fd5b600073ffffffffffffffffffffffffffffffffffffffff168273ffffffffffffffffffffffffffffffffffffffff16036114a5576040517f08c379a000000000000000000000000000000000000000000000000000000000815260040161149c90612cf7565b60405180910390fd5b6114b0838383611bb2565b60008060008573ffffffffffffffffffffffffffffffffffffffff1673ffffffffffffffffffffffffffffffffffffffff16815260200190815260200160002054905081811015611536576040517f08c379a000000000000000000000000000000000000000000000000000000000815260040161152d90612d89565b60405180910390fd5b8181036000808673ffffffffffffffffffffffffffffffffffffffff1673ffffffffffffffffffffffffffffffffffffffff16815260200190815260200160002081905550816000808573ffffffffffffffffffffffffffffffffffffffff1673ffffffffffffffffffffffffffffffffffffffff168152602001908152602001600020600082825401925050819055508273ffffffffffffffffffffffffffffffffffffffff168473ffffffffffffffffffffffffffffffffffffffff167fddf252ad1be2c89b69c2b068fc378daa952ba7f163c4a11628f55a4df523b3ef846040516116249190612094565b60405180910390a3611637848484611bb7565b50505050565b600073ffffffffffffffffffffffffffffffffffffffff168273ffffffffffffffffffffffffffffffffffffffff16036116ac576040517f08c379a00000000000000000000000000000000000000000000000000000000081526004016116a390612df5565b60405180910390fd5b6116b860008383611bb2565b80600260008282546116ca9190612447565b92505081905550806000808473ffffffffffffffffffffffffffffffffffffffff1673ffffffffffffffffffffffffffffffffffffffff168152602001908152602001600020600082825401925050819055508173ffffffffffffffffffffffffffffffffffffffff16600073ffffffffffffffffffffffffffffffffffffffff167fddf252ad1be2c89b69c2b068fc378daa952ba7f163c4a11628f55a4df523b3ef8360405161177b9190612094565b60405180910390a361178f60008383611bb7565b5050565b8173ffffffffffffffffffffffffffffffffffffffff168373ffffffffffffffffffffffffffffffffffffffff16141580156117cf5750600081115b15611a2f57600073ffffffffffffffffffffffffffffffffffffffff168373ffffffffffffffffffffffffffffffffffffffff1614611901576000600860008573ffffffffffffffffffffffffffffffffffffffff1673ffffffffffffffffffffffffffffffffffffffff16815260200190815260200160002060009054906101000a900463ffffffff1690506000808263ffffffff16116118725760006118df565b600760008673ffffffffffffffffffffffffffffffffffffffff1673ffffffffffffffffffffffffffffffffffffffff16815260200190815260200160002060006001846118c091906125c1565b63ffffffff1663ffffffff168152602001908152602001600020600101545b9050600083826118ef9190612e15565b90506118fd86848484611bbc565b5050505b600073ffffffffffffffffffffffffffffffffffffffff168273ffffffffffffffffffffffffffffffffffffffff1614611a2e576000600860008473ffffffffffffffffffffffffffffffffffffffff1673ffffffffffffffffffffffffffffffffffffffff16815260200190815260200160002060009054906101000a900463ffffffff1690506000808263ffffffff161161199f576000611a0c565b600760008573ffffffffffffffffffffffffffffffffffffffff1673ffffffffffffffffffffffffffffffffffffffff16815260200190815260200160002060006001846119ed91906125c1565b63ffffffff1663ffffffff168152602001908152602001600020600101545b905060008382611a1c9190612447565b9050611a2a85848484611bbc565b5050505b5b505050565b6000600660008473ffffffffffffffffffffffffffffffffffffffff1673ffffffffffffffffffffffffffffffffffffffff16815260200190815260200160002060009054906101000a900473ffffffffffffffffffffffffffffffffffffffff1690506000611aa3846107a4565b905082600660008673ffffffffffffffffffffffffffffffffffffffff1673ffffffffffffffffffffffffffffffffffffffff16815260200190815260200160002060006101000a81548173ffffffffffffffffffffffffffffffffffffffff021916908373ffffffffffffffffffffffffffffffffffffffff1602179055508273ffffffffffffffffffffffffffffffffffffffff168273ffffffffffffffffffffffffffffffffffffffff168573ffffffffffffffffffffffffffffffffffffffff167f3134e8a2e6d97e929a7e54011ea5485d7d196dd5f0ba4d4ef95803e8e3fc257f60405160405180910390a4611b9f828483611793565b50505050565b6000804690508091505090565b505050565b505050565b6000611be043604051806060016040528060338152602001612ead60339139611e65565b905060008463ffffffff16118015611c7e57508063ffffffff16600760008773ffffffffffffffffffffffffffffffffffffffff1673ffffffffffffffffffffffffffffffffffffffff1681526020019081526020016000206000600187611c4891906125c1565b63ffffffff1663ffffffff16815260200190815260200160002060000160009054906101000a900463ffffffff1663ffffffff16145b15611cf85781600760008773ffffffffffffffffffffffffffffffffffffffff1673ffffffffffffffffffffffffffffffffffffffff1681526020019081526020016000206000600187611cd291906125c1565b63ffffffff1663ffffffff16815260200190815260200160002060010181905550611e0e565b60405180604001604052808263ffffffff16815260200183815250600760008773ffffffffffffffffffffffffffffffffffffffff1673ffffffffffffffffffffffffffffffffffffffff16815260200190815260200160002060008663ffffffff1663ffffffff16815260200190815260200160002060008201518160000160006101000a81548163ffffffff021916908363ffffffff16021790555060208201518160010155905050600184611db09190612e49565b600860008773ffffffffffffffffffffffffffffffffffffffff1673ffffffffffffffffffffffffffffffffffffffff16815260200190815260200160002060006101000a81548163ffffffff021916908363ffffffff1602179055505b8473ffffffffffffffffffffffffffffffffffffffff167fdec2bacdd2f05b59de34da9b523dff8be42e5e38e818c82fdb0bae774387a7248484604051611e56929190612e83565b60405180910390a25050505050565b600064010000000083108290611eb1576040517f08c379a0000000000000000000000000000000000000000000000000000000008152600401611ea89190611f54565b60405180910390fd5b5082905092915050565b600081519050919050565b600082825260208201905092915050565b60005b83811015611ef5578082015181840152602081019050611eda565b83811115611f04576000848401525b50505050565b6000601f19601f8301169050919050565b6000611f2682611ebb565b611f308185611ec6565b9350611f40818560208601611ed7565b611f4981611f0a565b840191505092915050565b60006020820190508181036000830152611f6e8184611f1b565b905092915050565b600080fd5b600073ffffffffffffffffffffffffffffffffffffffff82169050919050565b6000611fa682611f7b565b9050919050565b611fb681611f9b565b8114611fc157600080fd5b50565b600081359050611fd381611fad565b92915050565b6000819050919050565b611fec81611fd9565b8114611ff757600080fd5b50565b60008135905061200981611fe3565b92915050565b6000806040838503121561202657612025611f76565b5b600061203485828601611fc4565b925050602061204585828601611ffa565b9150509250929050565b60008115159050919050565b6120648161204f565b82525050565b600060208201905061207f600083018461205b565b92915050565b61208e81611fd9565b82525050565b60006020820190506120a96000830184612085565b92915050565b6000819050919050565b6120c2816120af565b82525050565b60006020820190506120dd60008301846120b9565b92915050565b6000806000606084860312156120fc576120fb611f76565b5b600061210a86828701611fc4565b935050602061211b86828701611fc4565b925050604061212c86828701611ffa565b9150509250925092565b600060ff82169050919050565b61214c81612136565b82525050565b60006020820190506121676000830184612143565b92915050565b60006020828403121561218357612182611f76565b5b600061219184828501611fc4565b91505092915050565b6121a381611f9b565b82525050565b60006020820190506121be600083018461219a565b92915050565b600063ffffffff82169050919050565b6121dd816121c4565b82525050565b60006020820190506121f860008301846121d4565b92915050565b61220781612136565b811461221257600080fd5b50565b600081359050612224816121fe565b92915050565b612233816120af565b811461223e57600080fd5b50565b6000813590506122508161222a565b92915050565b60008060008060008060c0878903121561227357612272611f76565b5b600061228189828a01611fc4565b965050602061229289828a01611ffa565b95505060406122a389828a01611ffa565b94505060606122b489828a01612215565b93505060806122c589828a01612241565b92505060a06122d689828a01612241565b9150509295509295509295565b600080604083850312156122fa576122f9611f76565b5b600061230885828601611fc4565b925050602061231985828601611fc4565b9150509250929050565b61232c816121c4565b811461233757600080fd5b50565b60008135905061234981612323565b92915050565b6000806040838503121561236657612365611f76565b5b600061237485828601611fc4565b92505060206123858582860161233a565b9150509250929050565b60006040820190506123a460008301856121d4565b6123b16020830184612085565b9392505050565b7f4e487b7100000000000000000000000000000000000000000000000000000000600052602260045260246000fd5b600060028204905060018216806123ff57607f821691505b602082108103612412576124116123b8565b5b50919050565b7f4e487b7100000000000000000000000000000000000000000000000000000000600052601160045260246000fd5b600061245282611fd9565b915061245d83611fd9565b9250827fffffffffffffffffffffffffffffffffffffffffffffffffffffffffffffffff0382111561249257612491612418565b5b828201905092915050565b7f4a4f453a3a6d696e743a2063616e6e6f7420657863656564206d61782073757060008201527f706c790000000000000000000000000000000000000000000000000000000000602082015250565b60006124f9602383611ec6565b91506125048261249d565b604082019050919050565b60006020820190508181036000830152612528816124ec565b9050919050565b7f4a4f453a3a6765745072696f72566f7465733a206e6f7420796574206465746560008201527f726d696e65640000000000000000000000000000000000000000000000000000602082015250565b600061258b602683611ec6565b91506125968261252f565b604082019050919050565b600060208201905081810360008301526125ba8161257e565b9050919050565b60006125cc826121c4565b91506125d7836121c4565b9250828210156125ea576125e9612418565b5b828203905092915050565b7f4e487b7100000000000000000000000000000000000000000000000000000000600052601260045260246000fd5b600061262f826121c4565b915061263a836121c4565b92508261264a576126496125f5565b5b828204905092915050565b7f45524332303a2064656372656173656420616c6c6f77616e63652062656c6f7760008201527f207a65726f000000000000000000000000000000000000000000000000000000602082015250565b60006126b1602583611ec6565b91506126bc82612655565b604082019050919050565b600060208201905081810360008301526126e0816126a4565b9050919050565b60006080820190506126fc60008301876120b9565b61270960208301866120b9565b6127166040830185612085565b612723606083018461219a565b95945050505050565b600060808201905061274160008301876120b9565b61274e602083018661219a565b61275b6040830185612085565b6127686060830184612085565b95945050505050565b600081905092915050565b7f1901000000000000000000000000000000000000000000000000000000000000600082015250565b60006127b2600283612771565b91506127bd8261277c565b600282019050919050565b6000819050919050565b6127e36127de826120af565b6127c8565b82525050565b60006127f4826127a5565b915061280082856127d2565b60208201915061281082846127d2565b6020820191508190509392505050565b600060808201905061283560008301876120b9565b6128426020830186612143565b61284f60408301856120b9565b61285c60608301846120b9565b95945050505050565b7f4a4f453a3a64656c656761746542795369673a20696e76616c6964207369676e60008201527f6174757265000000000000000000000000000000000000000000000000000000602082015250565b60006128c1602583611ec6565b91506128cc82612865565b604082019050919050565b600060208201905081810360008301526128f0816128b4565b9050919050565b600061290282611fd9565b91507fffffffffffffffffffffffffffffffffffffffffffffffffffffffffffffffff820361293457612933612418565b5b600182019050919050565b7f4a4f453a3a64656c656761746542795369673a20696e76616c6964206e6f6e6360008201527f6500000000000000000000000000000000000000000000000000000000000000602082015250565b600061299b602183611ec6565b91506129a68261293f565b604082019050919050565b600060208201905081810360008301526129ca8161298e565b9050919050565b7f4a4f453a3a64656c656761746542795369673a207369676e617475726520657860008201527f7069726564000000000000000000000000000000000000000000000000000000602082015250565b6000612a2d602583611ec6565b9150612a38826129d1565b604082019050919050565b60006020820190508181036000830152612a5c81612a20565b9050919050565b7f45524332303a20617070726f76652066726f6d20746865207a65726f2061646460008201527f7265737300000000000000000000000000000000000000000000000000000000602082015250565b6000612abf602483611ec6565b9150612aca82612a63565b604082019050919050565b60006020820190508181036000830152612aee81612ab2565b9050919050565b7f45524332303a20617070726f766520746f20746865207a65726f20616464726560008201527f7373000000000000000000000000000000000000000000000000000000000000602082015250565b6000612b51602283611ec6565b9150612b5c82612af5565b604082019050919050565b60006020820190508181036000830152612b8081612b44565b9050919050565b7f45524332303a20696e73756666696369656e7420616c6c6f77616e6365000000600082015250565b6000612bbd601d83611ec6565b9150612bc882612b87565b602082019050919050565b60006020820190508181036000830152612bec81612bb0565b9050919050565b7f45524332303a207472616e736665722066726f6d20746865207a65726f20616460008201527f6472657373000000000000000000000000000000000000000000000000000000602082015250565b6000612c4f602583611ec6565b9150612c5a82612bf3565b604082019050919050565b60006020820190508181036000830152612c7e81612c42565b9050919050565b7f45524332303a207472616e7366657220746f20746865207a65726f206164647260008201527f6573730000000000000000000000000000000000000000000000000000000000602082015250565b6000612ce1602383611ec6565b9150612cec82612c85565b604082019050919050565b60006020820190508181036000830152612d1081612cd4565b9050919050565b7f45524332303a207472616e7366657220616d6f756e742065786365656473206260008201527f616c616e63650000000000000000000000000000000000000000000000000000602082015250565b6000612d73602683611ec6565b9150612d7e82612d17565b604082019050919050565b60006020820190508181036000830152612da281612d66565b9050919050565b7f45524332303a206d696e7420746f20746865207a65726f206164647265737300600082015250565b6000612ddf601f83611ec6565b9150612dea82612da9565b602082019050919050565b60006020820190508181036000830152612e0e81612dd2565b9050919050565b6000612e2082611fd9565b9150612e2b83611fd9565b925082821015612e3e57612e3d612418565b5b828203905092915050565b6000612e54826121c4565b9150612e5f836121c4565b92508263ffffffff03821115612e7857612e77612418565b5b828201905092915050565b6000604082019050612e986000830185612085565b612ea56020830184612085565b939250505056fe4a4f453a3a5f7772697465436865636b706f696e743a20626c6f636b206e756d62657220657863656564732033322062697473a2646970667358221220a0601ac3865e1bf8e5c7026283f491613fc52ae18082ce07e991ba9af78753c064736f6c634300080f0033",
  "devdoc": {
    "kind": "dev",
    "methods": {
      "allowance(address,address)": {
        "details": "See {IERC20-allowance}."
      },
      "approve(address,uint256)": {
        "details": "See {IERC20-approve}. NOTE: If `amount` is the maximum `uint256`, the allowance is not updated on `transferFrom`. This is semantically equivalent to an infinite approval. Requirements: - `spender` cannot be the zero address."
      },
      "balanceOf(address)": {
        "details": "See {IERC20-balanceOf}."
      },
      "decimals()": {
        "details": "Returns the number of decimals used to get its user representation. For example, if `decimals` equals `2`, a balance of `505` tokens should be displayed to a user as `5.05` (`505 / 10 ** 2`). Tokens usually opt for a value of 18, imitating the relationship between Ether and Wei. This is the value {ERC20} uses, unless this function is overridden; NOTE: This information is only used for _display_ purposes: it in no way affects any of the arithmetic of the contract, including {IERC20-balanceOf} and {IERC20-transfer}."
      },
      "decreaseAllowance(address,uint256)": {
        "details": "Atomically decreases the allowance granted to `spender` by the caller. This is an alternative to {approve} that can be used as a mitigation for problems described in {IERC20-approve}. Emits an {Approval} event indicating the updated allowance. Requirements: - `spender` cannot be the zero address. - `spender` must have allowance for the caller of at least `subtractedValue`."
      },
      "delegate(address)": {
        "params": {
          "delegatee": "The address to delegate votes to"
        }
      },
      "delegateBySig(address,uint256,uint256,uint8,bytes32,bytes32)": {
        "params": {
          "delegatee": "The address to delegate votes to",
          "expiry": "The time at which to expire the signature",
          "nonce": "The contract state required to match the signature",
          "r": "Half of the ECDSA signature pair",
          "s": "Half of the ECDSA signature pair",
          "v": "The recovery byte of the signature"
        }
      },
      "delegates(address)": {
        "params": {
          "delegator": "The address to get delegatee for"
        }
      },
      "getCurrentVotes(address)": {
        "params": {
          "account": "The address to get votes balance"
        },
        "returns": {
          "_0": "The number of current votes for `account`"
        }
      },
      "getPriorVotes(address,uint256)": {
        "details": "Block number must be a finalized block or else this function will revert to prevent misinformation.",
        "params": {
          "account": "The address of the account to check",
          "blockNumber": "The block number to get the vote balance at"
        },
        "returns": {
          "_0": "The number of votes the account had as of the given block"
        }
      },
      "increaseAllowance(address,uint256)": {
        "details": "Atomically increases the allowance granted to `spender` by the caller. This is an alternative to {approve} that can be used as a mitigation for problems described in {IERC20-approve}. Emits an {Approval} event indicating the updated allowance. Requirements: - `spender` cannot be the zero address."
      },
      "name()": {
        "details": "Returns the name of the token."
      },
      "symbol()": {
        "details": "Returns the symbol of the token, usually a shorter version of the name."
      },
      "totalSupply()": {
        "details": "See {IERC20-totalSupply}."
      },
      "transfer(address,uint256)": {
        "details": "See {IERC20-transfer}. Requirements: - `to` cannot be the zero address. - the caller must have a balance of at least `amount`."
      },
      "transferFrom(address,address,uint256)": {
        "details": "See {IERC20-transferFrom}. Emits an {Approval} event indicating the updated allowance. This is not required by the EIP. See the note at the beginning of {ERC20}. NOTE: Does not update the allowance if the current allowance is the maximum `uint256`. Requirements: - `from` and `to` cannot be the zero address. - `from` must have a balance of at least `amount`. - the caller must have allowance for ``from``'s tokens of at least `amount`."
      }
    },
    "version": 1
  },
  "userdoc": {
    "events": {
      "DelegateChanged(address,address,address)": {
        "notice": "An event thats emitted when an account changes its delegate"
      },
      "DelegateVotesChanged(address,uint256,uint256)": {
        "notice": "An event thats emitted when a delegate account's vote balance changes"
      }
    },
    "kind": "user",
    "methods": {
      "DELEGATION_TYPEHASH()": {
        "notice": "The EIP-712 typehash for the delegation struct used by the contract"
      },
      "DOMAIN_TYPEHASH()": {
        "notice": "The EIP-712 typehash for the contract's domain"
      },
      "checkpoints(address,uint32)": {
        "notice": "A record of votes checkpoints for each account, by index"
      },
      "delegate(address)": {
        "notice": "Delegate votes from `msg.sender` to `delegatee`"
      },
      "delegateBySig(address,uint256,uint256,uint8,bytes32,bytes32)": {
        "notice": "Delegates votes from signatory to `delegatee`"
      },
      "delegates(address)": {
        "notice": "Delegate votes from `msg.sender` to `delegatee`"
      },
      "getCurrentVotes(address)": {
        "notice": "Gets the current votes balance for `account`"
      },
      "getPriorVotes(address,uint256)": {
        "notice": "Determine the prior number of votes for an account as of a block number"
      },
      "maxSupply()": {
        "notice": "Total number of tokens"
      },
      "mint(address,uint256)": {
        "notice": "Creates `_amount` token to `_to`. Must only be called by the owner (MasterJoe)."
      },
      "nonces(address)": {
        "notice": "A record of states for signing / validating signatures"
      },
      "numCheckpoints(address)": {
        "notice": "The number of checkpoints for each account"
      }
    },
    "version": 1
  },
  "storageLayout": {
    "storage": [
      {
        "astId": 23355,
        "contract": "src-tokens/JoeToken.sol:JoeToken",
        "label": "_balances",
        "offset": 0,
        "slot": "0",
        "type": "t_mapping(t_address,t_uint256)"
      },
      {
        "astId": 23361,
        "contract": "src-tokens/JoeToken.sol:JoeToken",
        "label": "_allowances",
        "offset": 0,
        "slot": "1",
        "type": "t_mapping(t_address,t_mapping(t_address,t_uint256))"
      },
      {
        "astId": 23363,
        "contract": "src-tokens/JoeToken.sol:JoeToken",
        "label": "_totalSupply",
        "offset": 0,
        "slot": "2",
        "type": "t_uint256"
      },
      {
        "astId": 23365,
        "contract": "src-tokens/JoeToken.sol:JoeToken",
        "label": "_name",
        "offset": 0,
        "slot": "3",
        "type": "t_string_storage"
      },
      {
        "astId": 23367,
        "contract": "src-tokens/JoeToken.sol:JoeToken",
        "label": "_symbol",
        "offset": 0,
        "slot": "4",
        "type": "t_string_storage"
      },
      {
        "astId": 25086,
        "contract": "src-tokens/JoeToken.sol:JoeToken",
        "label": "maxSupply",
        "offset": 0,
        "slot": "5",
        "type": "t_uint256"
      },
      {
        "astId": 25126,
        "contract": "src-tokens/JoeToken.sol:JoeToken",
        "label": "_delegates",
        "offset": 0,
        "slot": "6",
        "type": "t_mapping(t_address,t_address)"
      },
      {
        "astId": 25139,
        "contract": "src-tokens/JoeToken.sol:JoeToken",
        "label": "checkpoints",
        "offset": 0,
        "slot": "7",
        "type": "t_mapping(t_address,t_mapping(t_uint32,t_struct(Checkpoint)25131_storage))"
      },
      {
        "astId": 25144,
        "contract": "src-tokens/JoeToken.sol:JoeToken",
        "label": "numCheckpoints",
        "offset": 0,
        "slot": "8",
        "type": "t_mapping(t_address,t_uint32)"
      },
      {
        "astId": 25161,
        "contract": "src-tokens/JoeToken.sol:JoeToken",
        "label": "nonces",
        "offset": 0,
        "slot": "9",
        "type": "t_mapping(t_address,t_uint256)"
      }
    ],
    "types": {
      "t_address": {
        "encoding": "inplace",
        "label": "address",
        "numberOfBytes": "20"
      },
      "t_mapping(t_address,t_address)": {
        "encoding": "mapping",
        "key": "t_address",
        "label": "mapping(address => address)",
        "numberOfBytes": "32",
        "value": "t_address"
      },
      "t_mapping(t_address,t_mapping(t_address,t_uint256))": {
        "encoding": "mapping",
        "key": "t_address",
        "label": "mapping(address => mapping(address => uint256))",
        "numberOfBytes": "32",
        "value": "t_mapping(t_address,t_uint256)"
      },
      "t_mapping(t_address,t_mapping(t_uint32,t_struct(Checkpoint)25131_storage))": {
        "encoding": "mapping",
        "key": "t_address",
        "label": "mapping(address => mapping(uint32 => struct JoeToken.Checkpoint))",
        "numberOfBytes": "32",
        "value": "t_mapping(t_uint32,t_struct(Checkpoint)25131_storage)"
      },
      "t_mapping(t_address,t_uint256)": {
        "encoding": "mapping",
        "key": "t_address",
        "label": "mapping(address => uint256)",
        "numberOfBytes": "32",
        "value": "t_uint256"
      },
      "t_mapping(t_address,t_uint32)": {
        "encoding": "mapping",
        "key": "t_address",
        "label": "mapping(address => uint32)",
        "numberOfBytes": "32",
        "value": "t_uint32"
      },
      "t_mapping(t_uint32,t_struct(Checkpoint)25131_storage)": {
        "encoding": "mapping",
        "key": "t_uint32",
        "label": "mapping(uint32 => struct JoeToken.Checkpoint)",
        "numberOfBytes": "32",
        "value": "t_struct(Checkpoint)25131_storage"
      },
      "t_string_storage": {
        "encoding": "bytes",
        "label": "string",
        "numberOfBytes": "32"
      },
      "t_struct(Checkpoint)25131_storage": {
        "encoding": "inplace",
        "label": "struct JoeToken.Checkpoint",
        "members": [
          {
            "astId": 25128,
            "contract": "src-tokens/JoeToken.sol:JoeToken",
            "label": "fromBlock",
            "offset": 0,
            "slot": "0",
            "type": "t_uint32"
          },
          {
            "astId": 25130,
            "contract": "src-tokens/JoeToken.sol:JoeToken",
            "label": "votes",
            "offset": 0,
            "slot": "1",
            "type": "t_uint256"
          }
        ],
        "numberOfBytes": "64"
      },
      "t_uint256": {
        "encoding": "inplace",
        "label": "uint256",
        "numberOfBytes": "32"
      },
      "t_uint32": {
        "encoding": "inplace",
        "label": "uint32",
        "numberOfBytes": "4"
      }
    }
  }
}