{
  "address": "0xc4e12924648Bb4F7F465F7ddd2665D29DdBB399d",
  "abi": [
    {
      "anonymous": false,
      "inputs": [
        {
          "indexed": true,
          "internalType": "address",
          "name": "owner",
          "type": "address"
        },
        {
          "indexed": true,
          "internalType": "address",
          "name": "spender",
          "type": "address"
        },
        {
          "indexed": false,
          "internalType": "uint256",
          "name": "value",
          "type": "uint256"
        }
      ],
      "name": "Approval",
      "type": "event"
    },
    {
      "anonymous": false,
      "inputs": [
        {
          "indexed": true,
          "internalType": "address",
          "name": "delegator",
          "type": "address"
        },
        {
          "indexed": true,
          "internalType": "address",
          "name": "fromDelegate",
          "type": "address"
        },
        {
          "indexed": true,
          "internalType": "address",
          "name": "toDelegate",
          "type": "address"
        }
      ],
      "name": "DelegateChanged",
      "type": "event"
    },
    {
      "anonymous": false,
      "inputs": [
        {
          "indexed": true,
          "internalType": "address",
          "name": "delegate",
          "type": "address"
        },
        {
          "indexed": false,
          "internalType": "uint256",
          "name": "previousBalance",
          "type": "uint256"
        },
        {
          "indexed": false,
          "internalType": "uint256",
          "name": "newBalance",
          "type": "uint256"
        }
      ],
      "name": "DelegateVotesChanged",
      "type": "event"
    },
    {
      "anonymous": false,
      "inputs": [
        {
          "indexed": true,
          "internalType": "address",
          "name": "previousOwner",
          "type": "address"
        },
        {
          "indexed": true,
          "internalType": "address",
          "name": "newOwner",
          "type": "address"
        }
      ],
      "name": "OwnershipTransferred",
      "type": "event"
    },
    {
      "anonymous": false,
      "inputs": [
        {
          "indexed": true,
          "internalType": "address",
          "name": "from",
          "type": "address"
        },
        {
          "indexed": true,
          "internalType": "address",
          "name": "to",
          "type": "address"
        },
        {
          "indexed": false,
          "internalType": "uint256",
          "name": "value",
          "type": "uint256"
        }
      ],
      "name": "Transfer",
      "type": "event"
    },
    {
      "inputs": [],
      "name": "DELEGATION_TYPEHASH",
      "outputs": [
        {
          "internalType": "bytes32",
          "name": "",
          "type": "bytes32"
        }
      ],
      "stateMutability": "view",
      "type": "function"
    },
    {
      "inputs": [],
      "name": "DOMAIN_TYPEHASH",
      "outputs": [
        {
          "internalType": "bytes32",
          "name": "",
          "type": "bytes32"
        }
      ],
      "stateMutability": "view",
      "type": "function"
    },
    {
      "inputs": [
        {
          "internalType": "address",
          "name": "owner",
          "type": "address"
        },
        {
          "internalType": "address",
          "name": "spender",
          "type": "address"
        }
      ],
      "name": "allowance",
      "outputs": [
        {
          "internalType": "uint256",
          "name": "",
          "type": "uint256"
        }
      ],
      "stateMutability": "view",
      "type": "function"
    },
    {
      "inputs": [
        {
          "internalType": "address",
          "name": "spender",
          "type": "address"
        },
        {
          "internalType": "uint256",
          "name": "amount",
          "type": "uint256"
        }
      ],
      "name": "approve",
      "outputs": [
        {
          "internalType": "bool",
          "name": "",
          "type": "bool"
        }
      ],
      "stateMutability": "nonpayable",
      "type": "function"
    },
    {
      "inputs": [
        {
          "internalType": "address",
          "name": "account",
          "type": "address"
        }
      ],
      "name": "balanceOf",
      "outputs": [
        {
          "internalType": "uint256",
          "name": "",
          "type": "uint256"
        }
      ],
      "stateMutability": "view",
      "type": "function"
    },
    {
      "inputs": [
        {
          "internalType": "address",
          "name": "",
          "type": "address"
        },
        {
          "internalType": "uint32",
          "name": "",
          "type": "uint32"
        }
      ],
      "name": "checkpoints",
      "outputs": [
        {
          "internalType": "uint32",
          "name": "fromBlock",
          "type": "uint32"
        },
        {
          "internalType": "uint256",
          "name": "votes",
          "type": "uint256"
        }
      ],
      "stateMutability": "view",
      "type": "function"
    },
    {
      "inputs": [],
      "name": "decimals",
      "outputs": [
        {
          "internalType": "uint8",
          "name": "",
          "type": "uint8"
        }
      ],
      "stateMutability": "view",
      "type": "function"
    },
    {
      "inputs": [
        {
          "internalType": "address",
          "name": "spender",
          "type": "address"
        },
        {
          "internalType": "uint256",
          "name": "subtractedValue",
          "type": "uint256"
        }
      ],
      "name": "decreaseAllowance",
      "outputs": [
        {
          "internalType": "bool",
          "name": "",
          "type": "bool"
        }
      ],
      "stateMutability": "nonpayable",
      "type": "function"
    },
    {
      "inputs": [
        {
          "internalType": "address",
          "name": "delegatee",
          "type": "address"
        }
      ],
      "name": "delegate",
      "outputs": [],
      "stateMutability": "nonpayable",
      "type": "function"
    },
    {
      "inputs": [
        {
          "internalType": "address",
          "name": "delegatee",
          "type": "address"
        },
        {
          "internalType": "uint256",
          "name": "nonce",
          "type": "uint256"
        },
        {
          "internalType": "uint256",
          "name": "expiry",
          "type": "uint256"
        },
        {
          "internalType": "uint8",
          "name": "v",
          "type": "uint8"
        },
        {
          "internalType": "bytes32",
          "name": "r",
          "type": "bytes32"
        },
        {
          "internalType": "bytes32",
          "name": "s",
          "type": "bytes32"
        }
      ],
      "name": "delegateBySig",
      "outputs": [],
      "stateMutability": "nonpayable",
      "type": "function"
    },
    {
      "inputs": [
        {
          "internalType": "address",
          "name": "delegator",
          "type": "address"
        }
      ],
      "name": "delegates",
      "outputs": [
        {
          "internalType": "address",
          "name": "",
          "type": "address"
        }
      ],
      "stateMutability": "view",
      "type": "function"
    },
    {
      "inputs": [
        {
          "internalType": "address",
          "name": "account",
          "type": "address"
        }
      ],
      "name": "getCurrentVotes",
      "outputs": [
        {
          "internalType": "uint256",
          "name": "",
          "type": "uint256"
        }
      ],
      "stateMutability": "view",
      "type": "function"
    },
    {
      "inputs": [
        {
          "internalType": "address",
          "name": "account",
          "type": "address"
        },
        {
          "internalType": "uint256",
          "name": "blockNumber",
          "type": "uint256"
        }
      ],
      "name": "getPriorVotes",
      "outputs": [
        {
          "internalType": "uint256",
          "name": "",
          "type": "uint256"
        }
      ],
      "stateMutability": "view",
      "type": "function"
    },
    {
      "inputs": [
        {
          "internalType": "address",
          "name": "spender",
          "type": "address"
        },
        {
          "internalType": "uint256",
          "name": "addedValue",
          "type": "uint256"
        }
      ],
      "name": "increaseAllowance",
      "outputs": [
        {
          "internalType": "bool",
          "name": "",
          "type": "bool"
        }
      ],
      "stateMutability": "nonpayable",
      "type": "function"
    },
    {
      "inputs": [],
      "name": "maxSupply",
      "outputs": [
        {
          "internalType": "uint256",
          "name": "",
          "type": "uint256"
        }
      ],
      "stateMutability": "view",
      "type": "function"
    },
    {
      "inputs": [
        {
          "internalType": "address",
          "name": "_to",
          "type": "address"
        },
        {
          "internalType": "uint256",
          "name": "_amount",
          "type": "uint256"
        }
      ],
      "name": "mint",
      "outputs": [],
      "stateMutability": "nonpayable",
      "type": "function"
    },
    {
      "inputs": [],
      "name": "name",
      "outputs": [
        {
          "internalType": "string",
          "name": "",
          "type": "string"
        }
      ],
      "stateMutability": "view",
      "type": "function"
    },
    {
      "inputs": [
        {
          "internalType": "address",
          "name": "",
          "type": "address"
        }
      ],
      "name": "nonces",
      "outputs": [
        {
          "internalType": "uint256",
          "name": "",
          "type": "uint256"
        }
      ],
      "stateMutability": "view",
      "type": "function"
    },
    {
      "inputs": [
        {
          "internalType": "address",
          "name": "",
          "type": "address"
        }
      ],
      "name": "numCheckpoints",
      "outputs": [
        {
          "internalType": "uint32",
          "name": "",
          "type": "uint32"
        }
      ],
      "stateMutability": "view",
      "type": "function"
    },
    {
      "inputs": [],
      "name": "owner",
      "outputs": [
        {
          "internalType": "address",
          "name": "",
          "type": "address"
        }
      ],
      "stateMutability": "view",
      "type": "function"
    },
    {
      "inputs": [],
      "name": "renounceOwnership",
      "outputs": [],
      "stateMutability": "nonpayable",
      "type": "function"
    },
    {
      "inputs": [],
      "name": "symbol",
      "outputs": [
        {
          "internalType": "string",
          "name": "",
          "type": "string"
        }
      ],
      "stateMutability": "view",
      "type": "function"
    },
    {
      "inputs": [],
      "name": "totalSupply",
      "outputs": [
        {
          "internalType": "uint256",
          "name": "",
          "type": "uint256"
        }
      ],
      "stateMutability": "view",
      "type": "function"
    },
    {
      "inputs": [
        {
          "internalType": "address",
          "name": "to",
          "type": "address"
        },
        {
          "internalType": "uint256",
          "name": "amount",
          "type": "uint256"
        }
      ],
      "name": "transfer",
      "outputs": [
        {
          "internalType": "bool",
          "name": "",
          "type": "bool"
        }
      ],
      "stateMutability": "nonpayable",
      "type": "function"
    },
    {
      "inputs": [
        {
          "internalType": "address",
          "name": "from",
          "type": "address"
        },
        {
          "internalType": "address",
          "name": "to",
          "type": "address"
        },
        {
          "internalType": "uint256",
          "name": "amount",
          "type": "uint256"
        }
      ],
      "name": "transferFrom",
      "outputs": [
        {
          "internalType": "bool",
          "name": "",
          "type": "bool"
        }
      ],
      "stateMutability": "nonpayable",
      "type": "function"
    },
    {
      "inputs": [
        {
          "internalType": "address",
          "name": "newOwner",
          "type": "address"
        }
      ],
      "name": "transferOwnership",
      "outputs": [],
      "stateMutability": "nonpayable",
      "type": "function"
    }
  ],
  "transactionHash": "0x0843ac7981ace36b1379918c24f646cde2f7d7a080b8592a1567d95fb8b4f83d",
  "args": [],
  "numDeployments": 2,
  "solcInputHash": "30ee6c9369e8acad1d8e125731606dc7",
  "bytecode": "0x60806040526b019d971e4fe8401e740000006006553480156200002157600080fd5b506040518060400160405280600881526020017f4a6f65546f6b656e0000000000000000000000000000000000000000000000008152506040518060400160405280600381526020017f4a4f45000000000000000000000000000000000000000000000000000000000081525081600390816200009f9190620003c8565b508060049081620000b19190620003c8565b505050620000d4620000c8620000da60201b60201c565b620000e260201b60201c565b620004af565b600033905090565b6000600560009054906101000a900473ffffffffffffffffffffffffffffffffffffffff16905081600560006101000a81548173ffffffffffffffffffffffffffffffffffffffff021916908373ffffffffffffffffffffffffffffffffffffffff1602179055505050565b600081519050919050565b7f4e487b7100000000000000000000000000000000000000000000000000000000600052604160045260246000fd5b7f4e487b7100000000000000000000000000000000000000000000000000000000600052602260045260246000fd5b60006002820490506001821680620001d057607f821691505b602082108103620001e657620001e562000188565b5b50919050565b60008190508160005260206000209050919050565b60006020601f8301049050919050565b600082821b905092915050565b600060088302620002507fffffffffffffffffffffffffffffffffffffffffffffffffffffffffffffffff8262000211565b6200025c868362000211565b95508019841693508086168417925050509392505050565b6000819050919050565b6000819050919050565b6000620002a9620002a36200029d8462000274565b6200027e565b62000274565b9050919050565b6000819050919050565b620002c58362000288565b620002dd620002d482620002b0565b8484546200021e565b825550505050565b600090565b620002f4620002e5565b62000301818484620002ba565b505050565b5b8181101562000329576200031d600082620002ea565b60018101905062000307565b5050565b601f82111562000378576200034281620001ec565b6200034d8462000201565b810160208510156200035d578190505b620003756200036c8562000201565b83018262000306565b50505b505050565b600082821c905092915050565b60006200039d600019846008026200037d565b1980831691505092915050565b6000620003b883836200038a565b9150826002028217905092915050565b620003d3826200014e565b67ffffffffffffffff811115620003ef57620003ee62000159565b5b620003fb8254620001b7565b620004088282856200032d565b600060209050601f8311600181146200044057600084156200042b578287015190505b620004378582620003aa565b865550620004a7565b601f1984166200045086620001ec565b60005b828110156200047a5784890151825560018201915060208501945060208101905062000453565b868310156200049a578489015162000496601f8916826200038a565b8355505b6001600288020188555050505b505050505050565b61324b80620004bf6000396000f3fe608060405234801561001057600080fd5b506004361061018e5760003560e01c8063782d6fe1116100de578063b4b5ea5711610097578063dd62ed3e11610071578063dd62ed3e146104d3578063e7a324dc14610503578063f1127ed814610521578063f2fde38b146105525761018e565b8063b4b5ea5714610469578063c3cda52014610499578063d5abeb01146104b55761018e565b8063782d6fe11461036d5780637ecebe001461039d5780638da5cb5b146103cd57806395d89b41146103eb578063a457c2d714610409578063a9059cbb146104395761018e565b8063395093511161014b5780635c19a95c116101255780635c19a95c146102e75780636fcfff451461030357806370a0823114610333578063715018a6146103635761018e565b8063395093511461026b57806340c10f191461029b578063587cde1e146102b75761018e565b806306fdde0314610193578063095ea7b3146101b157806318160ddd146101e157806320606b70146101ff57806323b872dd1461021d578063313ce5671461024d575b600080fd5b61019b61056e565b6040516101a8919061218c565b60405180910390f35b6101cb60048036038101906101c69190612247565b610600565b6040516101d891906122a2565b60405180910390f35b6101e9610623565b6040516101f691906122cc565b60405180910390f35b61020761062d565b6040516102149190612300565b60405180910390f35b6102376004803603810190610232919061231b565b610651565b60405161024491906122a2565b60405180910390f35b610255610680565b604051610262919061238a565b60405180910390f35b61028560048036038101906102809190612247565b610689565b60405161029291906122a2565b60405180910390f35b6102b560048036038101906102b09190612247565b6106c0565b005b6102d160048036038101906102cc91906123a5565b610798565b6040516102de91906123e1565b60405180910390f35b61030160048036038101906102fc91906123a5565b610801565b005b61031d600480360381019061031891906123a5565b61080e565b60405161032a919061241b565b60405180910390f35b61034d600480360381019061034891906123a5565b610831565b60405161035a91906122cc565b60405180910390f35b61036b610879565b005b61038760048036038101906103829190612247565b61088d565b60405161039491906122cc565b60405180910390f35b6103b760048036038101906103b291906123a5565b610c62565b6040516103c491906122cc565b60405180910390f35b6103d5610c7a565b6040516103e291906123e1565b60405180910390f35b6103f3610ca4565b604051610400919061218c565b60405180910390f35b610423600480360381019061041e9190612247565b610d36565b60405161043091906122a2565b60405180910390f35b610453600480360381019061044e9190612247565b610dad565b60405161046091906122a2565b60405180910390f35b610483600480360381019061047e91906123a5565b610dd0565b60405161049091906122cc565b60405180910390f35b6104b360048036038101906104ae919061248e565b610eaf565b005b6104bd611143565b6040516104ca91906122cc565b60405180910390f35b6104ed60048036038101906104e8919061251b565b611149565b6040516104fa91906122cc565b60405180910390f35b61050b6111d0565b6040516105189190612300565b60405180910390f35b61053b60048036038101906105369190612587565b6111f4565b6040516105499291906125c7565b60405180910390f35b61056c600480360381019061056791906123a5565b611235565b005b60606003805461057d9061261f565b80601f01602080910402602001604051908101604052809291908181526020018280546105a99061261f565b80156105f65780601f106105cb576101008083540402835291602001916105f6565b820191906000526020600020905b8154815290600101906020018083116105d957829003601f168201915b5050505050905090565b60008061060b6112b8565b90506106188185856112c0565b600191505092915050565b6000600254905090565b7f8cad95687ba82c2ce50e74f7b754645e5117c3a5bec8151c0726d5857980a86681565b60008061065c6112b8565b9050610669858285611489565b610674858585611515565b60019150509392505050565b60006012905090565b6000806106946112b8565b90506106b58185856106a68589611149565b6106b0919061267f565b6112c0565b600191505092915050565b6106c861178b565b600654816106d4610623565b6106de919061267f565b111561071f576040517f08c379a000000000000000000000000000000000000000000000000000000000815260040161071690612747565b60405180910390fd5b6107298282611809565b6107946000600760008573ffffffffffffffffffffffffffffffffffffffff1673ffffffffffffffffffffffffffffffffffffffff16815260200190815260200160002060009054906101000a900473ffffffffffffffffffffffffffffffffffffffff168361195f565b5050565b6000600760008373ffffffffffffffffffffffffffffffffffffffff1673ffffffffffffffffffffffffffffffffffffffff16815260200190815260200160002060009054906101000a900473ffffffffffffffffffffffffffffffffffffffff169050919050565b61080b3382611c00565b50565b60096020528060005260406000206000915054906101000a900463ffffffff1681565b60008060008373ffffffffffffffffffffffffffffffffffffffff1673ffffffffffffffffffffffffffffffffffffffff168152602001908152602001600020549050919050565b61088161178b565b61088b6000611d71565b565b60004382106108d1576040517f08c379a00000000000000000000000000000000000000000000000000000000081526004016108c8906127d9565b60405180910390fd5b6000600960008573ffffffffffffffffffffffffffffffffffffffff1673ffffffffffffffffffffffffffffffffffffffff16815260200190815260200160002060009054906101000a900463ffffffff16905060008163ffffffff160361093d576000915050610c5c565b82600860008673ffffffffffffffffffffffffffffffffffffffff1673ffffffffffffffffffffffffffffffffffffffff168152602001908152602001600020600060018461098c91906127f9565b63ffffffff1663ffffffff16815260200190815260200160002060000160009054906101000a900463ffffffff1663ffffffff1611610a3957600860008573ffffffffffffffffffffffffffffffffffffffff1673ffffffffffffffffffffffffffffffffffffffff1681526020019081526020016000206000600183610a1391906127f9565b63ffffffff1663ffffffff16815260200190815260200160002060010154915050610c5c565b82600860008673ffffffffffffffffffffffffffffffffffffffff1673ffffffffffffffffffffffffffffffffffffffff16815260200190815260200160002060008063ffffffff16815260200190815260200160002060000160009054906101000a900463ffffffff1663ffffffff161115610aba576000915050610c5c565b600080600183610aca91906127f9565b90505b8163ffffffff168163ffffffff161115610bf657600060028383610af191906127f9565b610afb919061285c565b82610b0691906127f9565b90506000600860008973ffffffffffffffffffffffffffffffffffffffff1673ffffffffffffffffffffffffffffffffffffffff16815260200190815260200160002060008363ffffffff1663ffffffff1681526020019081526020016000206040518060400160405290816000820160009054906101000a900463ffffffff1663ffffffff1663ffffffff168152602001600182015481525050905086816000015163ffffffff1603610bc557806020015195505050505050610c5c565b86816000015163ffffffff161015610bdf57819350610bef565b600182610bec91906127f9565b92505b5050610acd565b600860008773ffffffffffffffffffffffffffffffffffffffff1673ffffffffffffffffffffffffffffffffffffffff16815260200190815260200160002060008363ffffffff1663ffffffff1681526020019081526020016000206001015493505050505b92915050565b600a6020528060005260406000206000915090505481565b6000600560009054906101000a900473ffffffffffffffffffffffffffffffffffffffff16905090565b606060048054610cb39061261f565b80601f0160208091040260200160405190810160405280929190818152602001828054610cdf9061261f565b8015610d2c5780601f10610d0157610100808354040283529160200191610d2c565b820191906000526020600020905b815481529060010190602001808311610d0f57829003601f168201915b5050505050905090565b600080610d416112b8565b90506000610d4f8286611149565b905083811015610d94576040517f08c379a0000000000000000000000000000000000000000000000000000000008152600401610d8b906128ff565b60405180910390fd5b610da182868684036112c0565b60019250505092915050565b600080610db86112b8565b9050610dc5818585611515565b600191505092915050565b600080600960008473ffffffffffffffffffffffffffffffffffffffff1673ffffffffffffffffffffffffffffffffffffffff16815260200190815260200160002060009054906101000a900463ffffffff16905060008163ffffffff1611610e3a576000610ea7565b600860008473ffffffffffffffffffffffffffffffffffffffff1673ffffffffffffffffffffffffffffffffffffffff1681526020019081526020016000206000600183610e8891906127f9565b63ffffffff1663ffffffff168152602001908152602001600020600101545b915050919050565b60007f8cad95687ba82c2ce50e74f7b754645e5117c3a5bec8151c0726d5857980a866610eda61056e565b80519060200120610ee9611ddd565b30604051602001610efd949392919061291f565b60405160208183030381529060405280519060200120905060007fe48329057bfd03d55e49b547132e39cffd9c1820ad7b9d4c5307691425d15adf888888604051602001610f4e9493929190612964565b60405160208183030381529060405280519060200120905060008282604051602001610f7b929190612a21565b604051602081830303815290604052805190602001209050600060018288888860405160008152602001604052604051610fb89493929190612a58565b6020604051602081039080840390855afa158015610fda573d6000803e3d6000fd5b505050602060405103519050600073ffffffffffffffffffffffffffffffffffffffff168173ffffffffffffffffffffffffffffffffffffffff1603611055576040517f08c379a000000000000000000000000000000000000000000000000000000000815260040161104c90612b0f565b60405180910390fd5b600a60008273ffffffffffffffffffffffffffffffffffffffff1673ffffffffffffffffffffffffffffffffffffffff16815260200190815260200160002060008154809291906110a590612b2f565b9190505589146110ea576040517f08c379a00000000000000000000000000000000000000000000000000000000081526004016110e190612be9565b60405180910390fd5b8742111561112d576040517f08c379a000000000000000000000000000000000000000000000000000000000815260040161112490612c7b565b60405180910390fd5b611137818b611c00565b50505050505050505050565b60065481565b6000600160008473ffffffffffffffffffffffffffffffffffffffff1673ffffffffffffffffffffffffffffffffffffffff16815260200190815260200160002060008373ffffffffffffffffffffffffffffffffffffffff1673ffffffffffffffffffffffffffffffffffffffff16815260200190815260200160002054905092915050565b7fe48329057bfd03d55e49b547132e39cffd9c1820ad7b9d4c5307691425d15adf81565b6008602052816000526040600020602052806000526040600020600091509150508060000160009054906101000a900463ffffffff16908060010154905082565b61123d61178b565b600073ffffffffffffffffffffffffffffffffffffffff168173ffffffffffffffffffffffffffffffffffffffff16036112ac576040517f08c379a00000000000000000000000000000000000000000000000000000000081526004016112a390612d0d565b60405180910390fd5b6112b581611d71565b50565b600033905090565b600073ffffffffffffffffffffffffffffffffffffffff168373ffffffffffffffffffffffffffffffffffffffff160361132f576040517f08c379a000000000000000000000000000000000000000000000000000000000815260040161132690612d9f565b60405180910390fd5b600073ffffffffffffffffffffffffffffffffffffffff168273ffffffffffffffffffffffffffffffffffffffff160361139e576040517f08c379a000000000000000000000000000000000000000000000000000000000815260040161139590612e31565b60405180910390fd5b80600160008573ffffffffffffffffffffffffffffffffffffffff1673ffffffffffffffffffffffffffffffffffffffff16815260200190815260200160002060008473ffffffffffffffffffffffffffffffffffffffff1673ffffffffffffffffffffffffffffffffffffffff168152602001908152602001600020819055508173ffffffffffffffffffffffffffffffffffffffff168373ffffffffffffffffffffffffffffffffffffffff167f8c5be1e5ebec7d5bd14f71427d1e84f3dd0314c0f7b2291e5b200ac8c7c3b9258360405161147c91906122cc565b60405180910390a3505050565b60006114958484611149565b90507fffffffffffffffffffffffffffffffffffffffffffffffffffffffffffffffff811461150f5781811015611501576040517f08c379a00000000000000000000000000000000000000000000000000000000081526004016114f890612e9d565b60405180910390fd5b61150e84848484036112c0565b5b50505050565b600073ffffffffffffffffffffffffffffffffffffffff168373ffffffffffffffffffffffffffffffffffffffff1603611584576040517f08c379a000000000000000000000000000000000000000000000000000000000815260040161157b90612f2f565b60405180910390fd5b600073ffffffffffffffffffffffffffffffffffffffff168273ffffffffffffffffffffffffffffffffffffffff16036115f3576040517f08c379a00000000000000000000000000000000000000000000000000000000081526004016115ea90612fc1565b60405180910390fd5b6115fe838383611dea565b60008060008573ffffffffffffffffffffffffffffffffffffffff1673ffffffffffffffffffffffffffffffffffffffff16815260200190815260200160002054905081811015611684576040517f08c379a000000000000000000000000000000000000000000000000000000000815260040161167b90613053565b60405180910390fd5b8181036000808673ffffffffffffffffffffffffffffffffffffffff1673ffffffffffffffffffffffffffffffffffffffff16815260200190815260200160002081905550816000808573ffffffffffffffffffffffffffffffffffffffff1673ffffffffffffffffffffffffffffffffffffffff168152602001908152602001600020600082825401925050819055508273ffffffffffffffffffffffffffffffffffffffff168473ffffffffffffffffffffffffffffffffffffffff167fddf252ad1be2c89b69c2b068fc378daa952ba7f163c4a11628f55a4df523b3ef8460405161177291906122cc565b60405180910390a3611785848484611def565b50505050565b6117936112b8565b73ffffffffffffffffffffffffffffffffffffffff166117b1610c7a565b73ffffffffffffffffffffffffffffffffffffffff1614611807576040517f08c379a00000000000000000000000000000000000000000000000000000000081526004016117fe906130bf565b60405180910390fd5b565b600073ffffffffffffffffffffffffffffffffffffffff168273ffffffffffffffffffffffffffffffffffffffff1603611878576040517f08c379a000000000000000000000000000000000000000000000000000000000815260040161186f9061312b565b60405180910390fd5b61188460008383611dea565b8060026000828254611896919061267f565b92505081905550806000808473ffffffffffffffffffffffffffffffffffffffff1673ffffffffffffffffffffffffffffffffffffffff168152602001908152602001600020600082825401925050819055508173ffffffffffffffffffffffffffffffffffffffff16600073ffffffffffffffffffffffffffffffffffffffff167fddf252ad1be2c89b69c2b068fc378daa952ba7f163c4a11628f55a4df523b3ef8360405161194791906122cc565b60405180910390a361195b60008383611def565b5050565b8173ffffffffffffffffffffffffffffffffffffffff168373ffffffffffffffffffffffffffffffffffffffff161415801561199b5750600081115b15611bfb57600073ffffffffffffffffffffffffffffffffffffffff168373ffffffffffffffffffffffffffffffffffffffff1614611acd576000600960008573ffffffffffffffffffffffffffffffffffffffff1673ffffffffffffffffffffffffffffffffffffffff16815260200190815260200160002060009054906101000a900463ffffffff1690506000808263ffffffff1611611a3e576000611aab565b600860008673ffffffffffffffffffffffffffffffffffffffff1673ffffffffffffffffffffffffffffffffffffffff1681526020019081526020016000206000600184611a8c91906127f9565b63ffffffff1663ffffffff168152602001908152602001600020600101545b905060008382611abb919061314b565b9050611ac986848484611df4565b5050505b600073ffffffffffffffffffffffffffffffffffffffff168273ffffffffffffffffffffffffffffffffffffffff1614611bfa576000600960008473ffffffffffffffffffffffffffffffffffffffff1673ffffffffffffffffffffffffffffffffffffffff16815260200190815260200160002060009054906101000a900463ffffffff1690506000808263ffffffff1611611b6b576000611bd8565b600860008573ffffffffffffffffffffffffffffffffffffffff1673ffffffffffffffffffffffffffffffffffffffff1681526020019081526020016000206000600184611bb991906127f9565b63ffffffff1663ffffffff168152602001908152602001600020600101545b905060008382611be8919061267f565b9050611bf685848484611df4565b5050505b5b505050565b6000600760008473ffffffffffffffffffffffffffffffffffffffff1673ffffffffffffffffffffffffffffffffffffffff16815260200190815260200160002060009054906101000a900473ffffffffffffffffffffffffffffffffffffffff1690506000611c6f84610831565b905082600760008673ffffffffffffffffffffffffffffffffffffffff1673ffffffffffffffffffffffffffffffffffffffff16815260200190815260200160002060006101000a81548173ffffffffffffffffffffffffffffffffffffffff021916908373ffffffffffffffffffffffffffffffffffffffff1602179055508273ffffffffffffffffffffffffffffffffffffffff168273ffffffffffffffffffffffffffffffffffffffff168573ffffffffffffffffffffffffffffffffffffffff167f3134e8a2e6d97e929a7e54011ea5485d7d196dd5f0ba4d4ef95803e8e3fc257f60405160405180910390a4611d6b82848361195f565b50505050565b6000600560009054906101000a900473ffffffffffffffffffffffffffffffffffffffff16905081600560006101000a81548173ffffffffffffffffffffffffffffffffffffffff021916908373ffffffffffffffffffffffffffffffffffffffff1602179055505050565b6000804690508091505090565b505050565b505050565b6000611e18436040518060600160405280603381526020016131e36033913961209d565b905060008463ffffffff16118015611eb657508063ffffffff16600860008773ffffffffffffffffffffffffffffffffffffffff1673ffffffffffffffffffffffffffffffffffffffff1681526020019081526020016000206000600187611e8091906127f9565b63ffffffff1663ffffffff16815260200190815260200160002060000160009054906101000a900463ffffffff1663ffffffff16145b15611f305781600860008773ffffffffffffffffffffffffffffffffffffffff1673ffffffffffffffffffffffffffffffffffffffff1681526020019081526020016000206000600187611f0a91906127f9565b63ffffffff1663ffffffff16815260200190815260200160002060010181905550612046565b60405180604001604052808263ffffffff16815260200183815250600860008773ffffffffffffffffffffffffffffffffffffffff1673ffffffffffffffffffffffffffffffffffffffff16815260200190815260200160002060008663ffffffff1663ffffffff16815260200190815260200160002060008201518160000160006101000a81548163ffffffff021916908363ffffffff16021790555060208201518160010155905050600184611fe8919061317f565b600960008773ffffffffffffffffffffffffffffffffffffffff1673ffffffffffffffffffffffffffffffffffffffff16815260200190815260200160002060006101000a81548163ffffffff021916908363ffffffff1602179055505b8473ffffffffffffffffffffffffffffffffffffffff167fdec2bacdd2f05b59de34da9b523dff8be42e5e38e818c82fdb0bae774387a724848460405161208e9291906131b9565b60405180910390a25050505050565b6000640100000000831082906120e9576040517f08c379a00000000000000000000000000000000000000000000000000000000081526004016120e0919061218c565b60405180910390fd5b5082905092915050565b600081519050919050565b600082825260208201905092915050565b60005b8381101561212d578082015181840152602081019050612112565b8381111561213c576000848401525b50505050565b6000601f19601f8301169050919050565b600061215e826120f3565b61216881856120fe565b935061217881856020860161210f565b61218181612142565b840191505092915050565b600060208201905081810360008301526121a68184612153565b905092915050565b600080fd5b600073ffffffffffffffffffffffffffffffffffffffff82169050919050565b60006121de826121b3565b9050919050565b6121ee816121d3565b81146121f957600080fd5b50565b60008135905061220b816121e5565b92915050565b6000819050919050565b61222481612211565b811461222f57600080fd5b50565b6000813590506122418161221b565b92915050565b6000806040838503121561225e5761225d6121ae565b5b600061226c858286016121fc565b925050602061227d85828601612232565b9150509250929050565b60008115159050919050565b61229c81612287565b82525050565b60006020820190506122b76000830184612293565b92915050565b6122c681612211565b82525050565b60006020820190506122e160008301846122bd565b92915050565b6000819050919050565b6122fa816122e7565b82525050565b600060208201905061231560008301846122f1565b92915050565b600080600060608486031215612334576123336121ae565b5b6000612342868287016121fc565b9350506020612353868287016121fc565b925050604061236486828701612232565b9150509250925092565b600060ff82169050919050565b6123848161236e565b82525050565b600060208201905061239f600083018461237b565b92915050565b6000602082840312156123bb576123ba6121ae565b5b60006123c9848285016121fc565b91505092915050565b6123db816121d3565b82525050565b60006020820190506123f660008301846123d2565b92915050565b600063ffffffff82169050919050565b612415816123fc565b82525050565b6000602082019050612430600083018461240c565b92915050565b61243f8161236e565b811461244a57600080fd5b50565b60008135905061245c81612436565b92915050565b61246b816122e7565b811461247657600080fd5b50565b60008135905061248881612462565b92915050565b60008060008060008060c087890312156124ab576124aa6121ae565b5b60006124b989828a016121fc565b96505060206124ca89828a01612232565b95505060406124db89828a01612232565b94505060606124ec89828a0161244d565b93505060806124fd89828a01612479565b92505060a061250e89828a01612479565b9150509295509295509295565b60008060408385031215612532576125316121ae565b5b6000612540858286016121fc565b9250506020612551858286016121fc565b9150509250929050565b612564816123fc565b811461256f57600080fd5b50565b6000813590506125818161255b565b92915050565b6000806040838503121561259e5761259d6121ae565b5b60006125ac858286016121fc565b92505060206125bd85828601612572565b9150509250929050565b60006040820190506125dc600083018561240c565b6125e960208301846122bd565b9392505050565b7f4e487b7100000000000000000000000000000000000000000000000000000000600052602260045260246000fd5b6000600282049050600182168061263757607f821691505b60208210810361264a576126496125f0565b5b50919050565b7f4e487b7100000000000000000000000000000000000000000000000000000000600052601160045260246000fd5b600061268a82612211565b915061269583612211565b9250827fffffffffffffffffffffffffffffffffffffffffffffffffffffffffffffffff038211156126ca576126c9612650565b5b828201905092915050565b7f4a4f453a3a6d696e743a2063616e6e6f7420657863656564206d61782073757060008201527f706c790000000000000000000000000000000000000000000000000000000000602082015250565b60006127316023836120fe565b915061273c826126d5565b604082019050919050565b6000602082019050818103600083015261276081612724565b9050919050565b7f4a4f453a3a6765745072696f72566f7465733a206e6f7420796574206465746560008201527f726d696e65640000000000000000000000000000000000000000000000000000602082015250565b60006127c36026836120fe565b91506127ce82612767565b604082019050919050565b600060208201905081810360008301526127f2816127b6565b9050919050565b6000612804826123fc565b915061280f836123fc565b92508282101561282257612821612650565b5b828203905092915050565b7f4e487b7100000000000000000000000000000000000000000000000000000000600052601260045260246000fd5b6000612867826123fc565b9150612872836123fc565b9250826128825761288161282d565b5b828204905092915050565b7f45524332303a2064656372656173656420616c6c6f77616e63652062656c6f7760008201527f207a65726f000000000000000000000000000000000000000000000000000000602082015250565b60006128e96025836120fe565b91506128f48261288d565b604082019050919050565b60006020820190508181036000830152612918816128dc565b9050919050565b600060808201905061293460008301876122f1565b61294160208301866122f1565b61294e60408301856122bd565b61295b60608301846123d2565b95945050505050565b600060808201905061297960008301876122f1565b61298660208301866123d2565b61299360408301856122bd565b6129a060608301846122bd565b95945050505050565b600081905092915050565b7f1901000000000000000000000000000000000000000000000000000000000000600082015250565b60006129ea6002836129a9565b91506129f5826129b4565b600282019050919050565b6000819050919050565b612a1b612a16826122e7565b612a00565b82525050565b6000612a2c826129dd565b9150612a388285612a0a565b602082019150612a488284612a0a565b6020820191508190509392505050565b6000608082019050612a6d60008301876122f1565b612a7a602083018661237b565b612a8760408301856122f1565b612a9460608301846122f1565b95945050505050565b7f4a4f453a3a64656c656761746542795369673a20696e76616c6964207369676e60008201527f6174757265000000000000000000000000000000000000000000000000000000602082015250565b6000612af96025836120fe565b9150612b0482612a9d565b604082019050919050565b60006020820190508181036000830152612b2881612aec565b9050919050565b6000612b3a82612211565b91507fffffffffffffffffffffffffffffffffffffffffffffffffffffffffffffffff8203612b6c57612b6b612650565b5b600182019050919050565b7f4a4f453a3a64656c656761746542795369673a20696e76616c6964206e6f6e6360008201527f6500000000000000000000000000000000000000000000000000000000000000602082015250565b6000612bd36021836120fe565b9150612bde82612b77565b604082019050919050565b60006020820190508181036000830152612c0281612bc6565b9050919050565b7f4a4f453a3a64656c656761746542795369673a207369676e617475726520657860008201527f7069726564000000000000000000000000000000000000000000000000000000602082015250565b6000612c656025836120fe565b9150612c7082612c09565b604082019050919050565b60006020820190508181036000830152612c9481612c58565b9050919050565b7f4f776e61626c653a206e6577206f776e657220697320746865207a65726f206160008201527f6464726573730000000000000000000000000000000000000000000000000000602082015250565b6000612cf76026836120fe565b9150612d0282612c9b565b604082019050919050565b60006020820190508181036000830152612d2681612cea565b9050919050565b7f45524332303a20617070726f76652066726f6d20746865207a65726f2061646460008201527f7265737300000000000000000000000000000000000000000000000000000000602082015250565b6000612d896024836120fe565b9150612d9482612d2d565b604082019050919050565b60006020820190508181036000830152612db881612d7c565b9050919050565b7f45524332303a20617070726f766520746f20746865207a65726f20616464726560008201527f7373000000000000000000000000000000000000000000000000000000000000602082015250565b6000612e1b6022836120fe565b9150612e2682612dbf565b604082019050919050565b60006020820190508181036000830152612e4a81612e0e565b9050919050565b7f45524332303a20696e73756666696369656e7420616c6c6f77616e6365000000600082015250565b6000612e87601d836120fe565b9150612e9282612e51565b602082019050919050565b60006020820190508181036000830152612eb681612e7a565b9050919050565b7f45524332303a207472616e736665722066726f6d20746865207a65726f20616460008201527f6472657373000000000000000000000000000000000000000000000000000000602082015250565b6000612f196025836120fe565b9150612f2482612ebd565b604082019050919050565b60006020820190508181036000830152612f4881612f0c565b9050919050565b7f45524332303a207472616e7366657220746f20746865207a65726f206164647260008201527f6573730000000000000000000000000000000000000000000000000000000000602082015250565b6000612fab6023836120fe565b9150612fb682612f4f565b604082019050919050565b60006020820190508181036000830152612fda81612f9e565b9050919050565b7f45524332303a207472616e7366657220616d6f756e742065786365656473206260008201527f616c616e63650000000000000000000000000000000000000000000000000000602082015250565b600061303d6026836120fe565b915061304882612fe1565b604082019050919050565b6000602082019050818103600083015261306c81613030565b9050919050565b7f4f776e61626c653a2063616c6c6572206973206e6f7420746865206f776e6572600082015250565b60006130a96020836120fe565b91506130b482613073565b602082019050919050565b600060208201905081810360008301526130d88161309c565b9050919050565b7f45524332303a206d696e7420746f20746865207a65726f206164647265737300600082015250565b6000613115601f836120fe565b9150613120826130df565b602082019050919050565b6000602082019050818103600083015261314481613108565b9050919050565b600061315682612211565b915061316183612211565b92508282101561317457613173612650565b5b828203905092915050565b600061318a826123fc565b9150613195836123fc565b92508263ffffffff038211156131ae576131ad612650565b5b828201905092915050565b60006040820190506131ce60008301856122bd565b6131db60208301846122bd565b939250505056fe4a4f453a3a5f7772697465436865636b706f696e743a20626c6f636b206e756d62657220657863656564732033322062697473a2646970667358221220cefa297ba02b66f0270b0b2c316d292cfbfc5c0b10c2341350e5fd347b074bd864736f6c634300080f0033",
  "devdoc": {
    "kind": "dev",
    "methods": {
      "allowance(address,address)": {
        "details": "See {IERC20-allowance}."
      },
      "approve(address,uint256)": {
        "details": "See {IERC20-approve}. NOTE: If `amount` is the maximum `uint256`, the allowance is not updated on `transferFrom`. This is semantically equivalent to an infinite approval. Requirements: - `spender` cannot be the zero address."
      },
      "balanceOf(address)": {
        "details": "See {IERC20-balanceOf}."
      },
      "decimals()": {
        "details": "Returns the number of decimals used to get its user representation. For example, if `decimals` equals `2`, a balance of `505` tokens should be displayed to a user as `5.05` (`505 / 10 ** 2`). Tokens usually opt for a value of 18, imitating the relationship between Ether and Wei. This is the value {ERC20} uses, unless this function is overridden; NOTE: This information is only used for _display_ purposes: it in no way affects any of the arithmetic of the contract, including {IERC20-balanceOf} and {IERC20-transfer}."
      },
      "decreaseAllowance(address,uint256)": {
        "details": "Atomically decreases the allowance granted to `spender` by the caller. This is an alternative to {approve} that can be used as a mitigation for problems described in {IERC20-approve}. Emits an {Approval} event indicating the updated allowance. Requirements: - `spender` cannot be the zero address. - `spender` must have allowance for the caller of at least `subtractedValue`."
      },
      "delegate(address)": {
        "params": {
          "delegatee": "The address to delegate votes to"
        }
      },
      "delegateBySig(address,uint256,uint256,uint8,bytes32,bytes32)": {
        "params": {
          "delegatee": "The address to delegate votes to",
          "expiry": "The time at which to expire the signature",
          "nonce": "The contract state required to match the signature",
          "r": "Half of the ECDSA signature pair",
          "s": "Half of the ECDSA signature pair",
          "v": "The recovery byte of the signature"
        }
      },
      "delegates(address)": {
        "params": {
          "delegator": "The address to get delegatee for"
        }
      },
      "getCurrentVotes(address)": {
        "params": {
          "account": "The address to get votes balance"
        },
        "returns": {
          "_0": "The number of current votes for `account`"
        }
      },
      "getPriorVotes(address,uint256)": {
        "details": "Block number must be a finalized block or else this function will revert to prevent misinformation.",
        "params": {
          "account": "The address of the account to check",
          "blockNumber": "The block number to get the vote balance at"
        },
        "returns": {
          "_0": "The number of votes the account had as of the given block"
        }
      },
      "increaseAllowance(address,uint256)": {
        "details": "Atomically increases the allowance granted to `spender` by the caller. This is an alternative to {approve} that can be used as a mitigation for problems described in {IERC20-approve}. Emits an {Approval} event indicating the updated allowance. Requirements: - `spender` cannot be the zero address."
      },
      "name()": {
        "details": "Returns the name of the token."
      },
      "owner()": {
        "details": "Returns the address of the current owner."
      },
      "renounceOwnership()": {
        "details": "Leaves the contract without owner. It will not be possible to call `onlyOwner` functions anymore. Can only be called by the current owner. NOTE: Renouncing ownership will leave the contract without an owner, thereby removing any functionality that is only available to the owner."
      },
      "symbol()": {
        "details": "Returns the symbol of the token, usually a shorter version of the name."
      },
      "totalSupply()": {
        "details": "See {IERC20-totalSupply}."
      },
      "transfer(address,uint256)": {
        "details": "See {IERC20-transfer}. Requirements: - `to` cannot be the zero address. - the caller must have a balance of at least `amount`."
      },
      "transferFrom(address,address,uint256)": {
        "details": "See {IERC20-transferFrom}. Emits an {Approval} event indicating the updated allowance. This is not required by the EIP. See the note at the beginning of {ERC20}. NOTE: Does not update the allowance if the current allowance is the maximum `uint256`. Requirements: - `from` and `to` cannot be the zero address. - `from` must have a balance of at least `amount`. - the caller must have allowance for ``from``'s tokens of at least `amount`."
      },
      "transferOwnership(address)": {
        "details": "Transfers ownership of the contract to a new account (`newOwner`). Can only be called by the current owner."
      }
    },
    "version": 1
  },
  "userdoc": {
    "events": {
      "DelegateChanged(address,address,address)": {
        "notice": "An event thats emitted when an account changes its delegate"
      },
      "DelegateVotesChanged(address,uint256,uint256)": {
        "notice": "An event thats emitted when a delegate account's vote balance changes"
      }
    },
    "kind": "user",
    "methods": {
      "DELEGATION_TYPEHASH()": {
        "notice": "The EIP-712 typehash for the delegation struct used by the contract"
      },
      "DOMAIN_TYPEHASH()": {
        "notice": "The EIP-712 typehash for the contract's domain"
      },
      "checkpoints(address,uint32)": {
        "notice": "A record of votes checkpoints for each account, by index"
      },
      "delegate(address)": {
        "notice": "Delegate votes from `msg.sender` to `delegatee`"
      },
      "delegateBySig(address,uint256,uint256,uint8,bytes32,bytes32)": {
        "notice": "Delegates votes from signatory to `delegatee`"
      },
      "delegates(address)": {
        "notice": "Delegate votes from `msg.sender` to `delegatee`"
      },
      "getCurrentVotes(address)": {
        "notice": "Gets the current votes balance for `account`"
      },
      "getPriorVotes(address,uint256)": {
        "notice": "Determine the prior number of votes for an account as of a block number"
      },
      "maxSupply()": {
        "notice": "Total number of tokens"
      },
      "mint(address,uint256)": {
        "notice": "Creates `_amount` token to `_to`. Must only be called by the owner (MasterJoe)."
      },
      "nonces(address)": {
        "notice": "A record of states for signing / validating signatures"
      },
      "numCheckpoints(address)": {
        "notice": "The number of checkpoints for each account"
      }
    },
    "version": 1
  },
  "storageLayout": {
    "storage": [
      {
        "astId": 23350,
        "contract": "src-tokens/JoeToken.sol:JoeToken",
        "label": "_balances",
        "offset": 0,
        "slot": "0",
        "type": "t_mapping(t_address,t_uint256)"
      },
      {
        "astId": 23356,
        "contract": "src-tokens/JoeToken.sol:JoeToken",
        "label": "_allowances",
        "offset": 0,
        "slot": "1",
        "type": "t_mapping(t_address,t_mapping(t_address,t_uint256))"
      },
      {
        "astId": 23358,
        "contract": "src-tokens/JoeToken.sol:JoeToken",
        "label": "_totalSupply",
        "offset": 0,
        "slot": "2",
        "type": "t_uint256"
      },
      {
        "astId": 23360,
        "contract": "src-tokens/JoeToken.sol:JoeToken",
        "label": "_name",
        "offset": 0,
        "slot": "3",
        "type": "t_string_storage"
      },
      {
        "astId": 23362,
        "contract": "src-tokens/JoeToken.sol:JoeToken",
        "label": "_symbol",
        "offset": 0,
        "slot": "4",
        "type": "t_string_storage"
      },
      {
        "astId": 23234,
        "contract": "src-tokens/JoeToken.sol:JoeToken",
        "label": "_owner",
        "offset": 0,
        "slot": "5",
        "type": "t_address"
      },
      {
        "astId": 25083,
        "contract": "src-tokens/JoeToken.sol:JoeToken",
        "label": "maxSupply",
        "offset": 0,
        "slot": "6",
        "type": "t_uint256"
      },
      {
        "astId": 25125,
        "contract": "src-tokens/JoeToken.sol:JoeToken",
        "label": "_delegates",
        "offset": 0,
        "slot": "7",
        "type": "t_mapping(t_address,t_address)"
      },
      {
        "astId": 25138,
        "contract": "src-tokens/JoeToken.sol:JoeToken",
        "label": "checkpoints",
        "offset": 0,
        "slot": "8",
        "type": "t_mapping(t_address,t_mapping(t_uint32,t_struct(Checkpoint)25130_storage))"
      },
      {
        "astId": 25143,
        "contract": "src-tokens/JoeToken.sol:JoeToken",
        "label": "numCheckpoints",
        "offset": 0,
        "slot": "9",
        "type": "t_mapping(t_address,t_uint32)"
      },
      {
        "astId": 25160,
        "contract": "src-tokens/JoeToken.sol:JoeToken",
        "label": "nonces",
        "offset": 0,
        "slot": "10",
        "type": "t_mapping(t_address,t_uint256)"
      }
    ],
    "types": {
      "t_address": {
        "encoding": "inplace",
        "label": "address",
        "numberOfBytes": "20"
      },
      "t_mapping(t_address,t_address)": {
        "encoding": "mapping",
        "key": "t_address",
        "label": "mapping(address => address)",
        "numberOfBytes": "32",
        "value": "t_address"
      },
      "t_mapping(t_address,t_mapping(t_address,t_uint256))": {
        "encoding": "mapping",
        "key": "t_address",
        "label": "mapping(address => mapping(address => uint256))",
        "numberOfBytes": "32",
        "value": "t_mapping(t_address,t_uint256)"
      },
      "t_mapping(t_address,t_mapping(t_uint32,t_struct(Checkpoint)25130_storage))": {
        "encoding": "mapping",
        "key": "t_address",
        "label": "mapping(address => mapping(uint32 => struct JoeToken.Checkpoint))",
        "numberOfBytes": "32",
        "value": "t_mapping(t_uint32,t_struct(Checkpoint)25130_storage)"
      },
      "t_mapping(t_address,t_uint256)": {
        "encoding": "mapping",
        "key": "t_address",
        "label": "mapping(address => uint256)",
        "numberOfBytes": "32",
        "value": "t_uint256"
      },
      "t_mapping(t_address,t_uint32)": {
        "encoding": "mapping",
        "key": "t_address",
        "label": "mapping(address => uint32)",
        "numberOfBytes": "32",
        "value": "t_uint32"
      },
      "t_mapping(t_uint32,t_struct(Checkpoint)25130_storage)": {
        "encoding": "mapping",
        "key": "t_uint32",
        "label": "mapping(uint32 => struct JoeToken.Checkpoint)",
        "numberOfBytes": "32",
        "value": "t_struct(Checkpoint)25130_storage"
      },
      "t_string_storage": {
        "encoding": "bytes",
        "label": "string",
        "numberOfBytes": "32"
      },
      "t_struct(Checkpoint)25130_storage": {
        "encoding": "inplace",
        "label": "struct JoeToken.Checkpoint",
        "members": [
          {
            "astId": 25127,
            "contract": "src-tokens/JoeToken.sol:JoeToken",
            "label": "fromBlock",
            "offset": 0,
            "slot": "0",
            "type": "t_uint32"
          },
          {
            "astId": 25129,
            "contract": "src-tokens/JoeToken.sol:JoeToken",
            "label": "votes",
            "offset": 0,
            "slot": "1",
            "type": "t_uint256"
          }
        ],
        "numberOfBytes": "64"
      },
      "t_uint256": {
        "encoding": "inplace",
        "label": "uint256",
        "numberOfBytes": "32"
      },
      "t_uint32": {
        "encoding": "inplace",
        "label": "uint32",
        "numberOfBytes": "4"
      }
    }
  }
}