{
  "address": "0x3fB010222e1b0ABe0090737E3D63B68F8C8DA0E5",
  "abi": [
    {
      "anonymous": false,
      "inputs": [
        {
          "indexed": true,
          "internalType": "address",
          "name": "owner",
          "type": "address"
        },
        {
          "indexed": true,
          "internalType": "address",
          "name": "spender",
          "type": "address"
        },
        {
          "indexed": false,
          "internalType": "uint256",
          "name": "amount",
          "type": "uint256"
        }
      ],
      "name": "Approval",
      "type": "event"
    },
    {
      "anonymous": false,
      "inputs": [
        {
          "indexed": true,
          "internalType": "address",
          "name": "delegator",
          "type": "address"
        },
        {
          "indexed": true,
          "internalType": "address",
          "name": "fromDelegate",
          "type": "address"
        },
        {
          "indexed": true,
          "internalType": "address",
          "name": "toDelegate",
          "type": "address"
        }
      ],
      "name": "DelegateChanged",
      "type": "event"
    },
    {
      "anonymous": false,
      "inputs": [
        {
          "indexed": true,
          "internalType": "address",
          "name": "delegate",
          "type": "address"
        },
        {
          "indexed": false,
          "internalType": "uint256",
          "name": "previousBalance",
          "type": "uint256"
        },
        {
          "indexed": false,
          "internalType": "uint256",
          "name": "newBalance",
          "type": "uint256"
        }
      ],
      "name": "DelegateVotesChanged",
      "type": "event"
    },
    {
      "anonymous": false,
      "inputs": [
        {
          "indexed": true,
          "internalType": "address",
          "name": "from",
          "type": "address"
        },
        {
          "indexed": true,
          "internalType": "address",
          "name": "to",
          "type": "address"
        },
        {
          "indexed": false,
          "internalType": "uint256",
          "name": "amount",
          "type": "uint256"
        }
      ],
      "name": "Transfer",
      "type": "event"
    },
    {
      "inputs": [],
      "name": "DELEGATION_TYPEHASH",
      "outputs": [
        {
          "internalType": "bytes32",
          "name": "",
          "type": "bytes32"
        }
      ],
      "stateMutability": "view",
      "type": "function"
    },
    {
      "inputs": [],
      "name": "DOMAIN_SEPARATOR",
      "outputs": [
        {
          "internalType": "bytes32",
          "name": "",
          "type": "bytes32"
        }
      ],
      "stateMutability": "view",
      "type": "function"
    },
    {
      "inputs": [],
      "name": "DOMAIN_TYPEHASH",
      "outputs": [
        {
          "internalType": "bytes32",
          "name": "",
          "type": "bytes32"
        }
      ],
      "stateMutability": "view",
      "type": "function"
    },
    {
      "inputs": [
        {
          "internalType": "address",
          "name": "",
          "type": "address"
        },
        {
          "internalType": "address",
          "name": "",
          "type": "address"
        }
      ],
      "name": "allowance",
      "outputs": [
        {
          "internalType": "uint256",
          "name": "",
          "type": "uint256"
        }
      ],
      "stateMutability": "view",
      "type": "function"
    },
    {
      "inputs": [
        {
          "internalType": "address",
          "name": "spender",
          "type": "address"
        },
        {
          "internalType": "uint256",
          "name": "amount",
          "type": "uint256"
        }
      ],
      "name": "approve",
      "outputs": [
        {
          "internalType": "bool",
          "name": "",
          "type": "bool"
        }
      ],
      "stateMutability": "nonpayable",
      "type": "function"
    },
    {
      "inputs": [
        {
          "internalType": "address",
          "name": "",
          "type": "address"
        }
      ],
      "name": "balanceOf",
      "outputs": [
        {
          "internalType": "uint256",
          "name": "",
          "type": "uint256"
        }
      ],
      "stateMutability": "view",
      "type": "function"
    },
    {
      "inputs": [
        {
          "internalType": "address",
          "name": "",
          "type": "address"
        },
        {
          "internalType": "uint32",
          "name": "",
          "type": "uint32"
        }
      ],
      "name": "checkpoints",
      "outputs": [
        {
          "internalType": "uint32",
          "name": "fromBlock",
          "type": "uint32"
        },
        {
          "internalType": "uint256",
          "name": "votes",
          "type": "uint256"
        }
      ],
      "stateMutability": "view",
      "type": "function"
    },
    {
      "inputs": [],
      "name": "decimals",
      "outputs": [
        {
          "internalType": "uint8",
          "name": "",
          "type": "uint8"
        }
      ],
      "stateMutability": "view",
      "type": "function"
    },
    {
      "inputs": [
        {
          "internalType": "address",
          "name": "delegatee",
          "type": "address"
        }
      ],
      "name": "delegate",
      "outputs": [],
      "stateMutability": "nonpayable",
      "type": "function"
    },
    {
      "inputs": [
        {
          "internalType": "address",
          "name": "delegatee",
          "type": "address"
        },
        {
          "internalType": "uint256",
          "name": "nonce",
          "type": "uint256"
        },
        {
          "internalType": "uint256",
          "name": "expiry",
          "type": "uint256"
        },
        {
          "internalType": "uint8",
          "name": "v",
          "type": "uint8"
        },
        {
          "internalType": "bytes32",
          "name": "r",
          "type": "bytes32"
        },
        {
          "internalType": "bytes32",
          "name": "s",
          "type": "bytes32"
        }
      ],
      "name": "delegateBySig",
      "outputs": [],
      "stateMutability": "nonpayable",
      "type": "function"
    },
    {
      "inputs": [
        {
          "internalType": "address",
          "name": "delegator",
          "type": "address"
        }
      ],
      "name": "delegates",
      "outputs": [
        {
          "internalType": "address",
          "name": "",
          "type": "address"
        }
      ],
      "stateMutability": "view",
      "type": "function"
    },
    {
      "inputs": [
        {
          "internalType": "address",
          "name": "account",
          "type": "address"
        }
      ],
      "name": "getCurrentVotes",
      "outputs": [
        {
          "internalType": "uint256",
          "name": "",
          "type": "uint256"
        }
      ],
      "stateMutability": "view",
      "type": "function"
    },
    {
      "inputs": [
        {
          "internalType": "address",
          "name": "account",
          "type": "address"
        },
        {
          "internalType": "uint256",
          "name": "blockNumber",
          "type": "uint256"
        }
      ],
      "name": "getPriorVotes",
      "outputs": [
        {
          "internalType": "uint256",
          "name": "",
          "type": "uint256"
        }
      ],
      "stateMutability": "view",
      "type": "function"
    },
    {
      "inputs": [],
      "name": "maxSupply",
      "outputs": [
        {
          "internalType": "uint256",
          "name": "",
          "type": "uint256"
        }
      ],
      "stateMutability": "view",
      "type": "function"
    },
    {
      "inputs": [
        {
          "internalType": "address",
          "name": "_to",
          "type": "address"
        },
        {
          "internalType": "uint256",
          "name": "_amount",
          "type": "uint256"
        }
      ],
      "name": "mint",
      "outputs": [],
      "stateMutability": "nonpayable",
      "type": "function"
    },
    {
      "inputs": [],
      "name": "name",
      "outputs": [
        {
          "internalType": "string",
          "name": "",
          "type": "string"
        }
      ],
      "stateMutability": "view",
      "type": "function"
    },
    {
      "inputs": [
        {
          "internalType": "address",
          "name": "",
          "type": "address"
        }
      ],
      "name": "nonces",
      "outputs": [
        {
          "internalType": "uint256",
          "name": "",
          "type": "uint256"
        }
      ],
      "stateMutability": "view",
      "type": "function"
    },
    {
      "inputs": [
        {
          "internalType": "address",
          "name": "",
          "type": "address"
        }
      ],
      "name": "numCheckpoints",
      "outputs": [
        {
          "internalType": "uint32",
          "name": "",
          "type": "uint32"
        }
      ],
      "stateMutability": "view",
      "type": "function"
    },
    {
      "inputs": [
        {
          "internalType": "address",
          "name": "owner",
          "type": "address"
        },
        {
          "internalType": "address",
          "name": "spender",
          "type": "address"
        },
        {
          "internalType": "uint256",
          "name": "value",
          "type": "uint256"
        },
        {
          "internalType": "uint256",
          "name": "deadline",
          "type": "uint256"
        },
        {
          "internalType": "uint8",
          "name": "v",
          "type": "uint8"
        },
        {
          "internalType": "bytes32",
          "name": "r",
          "type": "bytes32"
        },
        {
          "internalType": "bytes32",
          "name": "s",
          "type": "bytes32"
        }
      ],
      "name": "permit",
      "outputs": [],
      "stateMutability": "nonpayable",
      "type": "function"
    },
    {
      "inputs": [],
      "name": "symbol",
      "outputs": [
        {
          "internalType": "string",
          "name": "",
          "type": "string"
        }
      ],
      "stateMutability": "view",
      "type": "function"
    },
    {
      "inputs": [],
      "name": "totalSupply",
      "outputs": [
        {
          "internalType": "uint256",
          "name": "",
          "type": "uint256"
        }
      ],
      "stateMutability": "view",
      "type": "function"
    },
    {
      "inputs": [
        {
          "internalType": "address",
          "name": "to",
          "type": "address"
        },
        {
          "internalType": "uint256",
          "name": "amount",
          "type": "uint256"
        }
      ],
      "name": "transfer",
      "outputs": [
        {
          "internalType": "bool",
          "name": "",
          "type": "bool"
        }
      ],
      "stateMutability": "nonpayable",
      "type": "function"
    },
    {
      "inputs": [
        {
          "internalType": "address",
          "name": "from",
          "type": "address"
        },
        {
          "internalType": "address",
          "name": "to",
          "type": "address"
        },
        {
          "internalType": "uint256",
          "name": "amount",
          "type": "uint256"
        }
      ],
      "name": "transferFrom",
      "outputs": [
        {
          "internalType": "bool",
          "name": "",
          "type": "bool"
        }
      ],
      "stateMutability": "nonpayable",
      "type": "function"
    }
  ],
  "transactionHash": "0x54070e50aca2a82d5eb4b6bb4a9241d142491f878d7a787330313372aa81d0cd",
  "args": [],
  "numDeployments": 1,
  "solcInputHash": "79971d4dd0255e2c6bb7853073a3bffc",
  "bytecode": "0x60e06040526b019d971e4fe8401e740000006006553480156200002157600080fd5b506040518060400160405280600881526020017f4a6f65546f6b656e0000000000000000000000000000000000000000000000008152506040518060400160405280600381526020017f4a4f45000000000000000000000000000000000000000000000000000000000081525060128260009081620000a19190620003f4565b508160019081620000b39190620003f4565b508060ff1660808160ff16815250504660a08181525050620000da620000ea60201b60201c565b60c0818152505050505062000671565b60007f8b73c3c69bb8fe3d512ecc4cf759cc79239f7b179b0ffacaa9a75d522b39400f60006040516200011e91906200058a565b60405180910390207fc89efdaa54c0f20c7adf612882df0950f5a951637e0307cdcb4c672f298b8bc646306040516020016200015f95949392919062000614565b60405160208183030381529060405280519060200120905090565b600081519050919050565b7f4e487b7100000000000000000000000000000000000000000000000000000000600052604160045260246000fd5b7f4e487b7100000000000000000000000000000000000000000000000000000000600052602260045260246000fd5b60006002820490506001821680620001fc57607f821691505b602082108103620002125762000211620001b4565b5b50919050565b60008190508160005260206000209050919050565b60006020601f8301049050919050565b600082821b905092915050565b6000600883026200027c7fffffffffffffffffffffffffffffffffffffffffffffffffffffffffffffffff826200023d565b6200028886836200023d565b95508019841693508086168417925050509392505050565b6000819050919050565b6000819050919050565b6000620002d5620002cf620002c984620002a0565b620002aa565b620002a0565b9050919050565b6000819050919050565b620002f183620002b4565b620003096200030082620002dc565b8484546200024a565b825550505050565b600090565b6200032062000311565b6200032d818484620002e6565b505050565b5b8181101562000355576200034960008262000316565b60018101905062000333565b5050565b601f821115620003a4576200036e8162000218565b62000379846200022d565b8101602085101562000389578190505b620003a162000398856200022d565b83018262000332565b50505b505050565b600082821c905092915050565b6000620003c960001984600802620003a9565b1980831691505092915050565b6000620003e48383620003b6565b9150826002028217905092915050565b620003ff826200017a565b67ffffffffffffffff8111156200041b576200041a62000185565b5b620004278254620001e3565b6200043482828562000359565b600060209050601f8311600181146200046c576000841562000457578287015190505b620004638582620003d6565b865550620004d3565b601f1984166200047c8662000218565b60005b82811015620004a6578489015182556001820191506020850194506020810190506200047f565b86831015620004c65784890151620004c2601f891682620003b6565b8355505b6001600288020188555050505b505050505050565b600081905092915050565b60008190508160005260206000209050919050565b600081546200050a81620001e3565b620005168186620004db565b945060018216600081146200053457600181146200054a5762000581565b60ff198316865281151582028601935062000581565b6200055585620004e6565b60005b83811015620005795781548189015260018201915060208101905062000558565b838801955050505b50505092915050565b6000620005988284620004fb565b915081905092915050565b6000819050919050565b620005b881620005a3565b82525050565b620005c981620002a0565b82525050565b600073ffffffffffffffffffffffffffffffffffffffff82169050919050565b6000620005fc82620005cf565b9050919050565b6200060e81620005ef565b82525050565b600060a0820190506200062b6000830188620005ad565b6200063a6020830187620005ad565b620006496040830186620005ad565b620006586060830185620005be565b62000667608083018462000603565b9695505050505050565b60805160a05160c051612ef6620006a16000396000610913015260006108df015260006108b90152612ef66000f3fe608060405234801561001057600080fd5b506004361061014d5760003560e01c806370a08231116100c3578063c3cda5201161007c578063c3cda520146103ee578063d505accf1461040a578063d5abeb0114610426578063dd62ed3e14610444578063e7a324dc14610474578063f1127ed8146104925761014d565b806370a08231146102e0578063782d6fe1146103105780637ecebe001461034057806395d89b4114610370578063a9059cbb1461038e578063b4b5ea57146103be5761014d565b8063313ce56711610115578063313ce5671461020c5780633644e5151461022a57806340c10f1914610248578063587cde1e146102645780635c19a95c146102945780636fcfff45146102b05761014d565b806306fdde0314610152578063095ea7b31461017057806318160ddd146101a057806320606b70146101be57806323b872dd146101dc575b600080fd5b61015a6104c3565b6040516101679190612091565b60405180910390f35b61018a6004803603810190610185919061214c565b610551565b60405161019791906121a7565b60405180910390f35b6101a8610643565b6040516101b591906121d1565b60405180910390f35b6101c6610649565b6040516101d39190612205565b60405180910390f35b6101f660048036038101906101f19190612220565b61066d565b60405161020391906121a7565b60405180910390f35b6102146108b7565b604051610221919061228f565b60405180910390f35b6102326108db565b60405161023f9190612205565b60405180910390f35b610262600480360381019061025d919061214c565b610938565b005b61027e600480360381019061027991906122aa565b610a03565b60405161028b91906122e6565b60405180910390f35b6102ae60048036038101906102a991906122aa565b610a6c565b005b6102ca60048036038101906102c591906122aa565b610a79565b6040516102d79190612320565b60405180910390f35b6102fa60048036038101906102f591906122aa565b610a9c565b60405161030791906121d1565b60405180910390f35b61032a6004803603810190610325919061214c565b610ab4565b60405161033791906121d1565b60405180910390f35b61035a600480360381019061035591906122aa565b610e89565b60405161036791906121d1565b60405180910390f35b610378610ea1565b6040516103859190612091565b60405180910390f35b6103a860048036038101906103a3919061214c565b610f2f565b6040516103b591906121a7565b60405180910390f35b6103d860048036038101906103d391906122aa565b611043565b6040516103e591906121d1565b60405180910390f35b61040860048036038101906104039190612393565b611122565b005b610424600480360381019061041f9190612420565b6113be565b005b61042e6116b7565b60405161043b91906121d1565b60405180910390f35b61045e600480360381019061045991906124c2565b6116bd565b60405161046b91906121d1565b60405180910390f35b61047c6116e2565b6040516104899190612205565b60405180910390f35b6104ac60048036038101906104a7919061252e565b611706565b6040516104ba92919061256e565b60405180910390f35b600080546104d0906125c6565b80601f01602080910402602001604051908101604052809291908181526020018280546104fc906125c6565b80156105495780601f1061051e57610100808354040283529160200191610549565b820191906000526020600020905b81548152906001019060200180831161052c57829003601f168201915b505050505081565b600081600460003373ffffffffffffffffffffffffffffffffffffffff1673ffffffffffffffffffffffffffffffffffffffff16815260200190815260200160002060008573ffffffffffffffffffffffffffffffffffffffff1673ffffffffffffffffffffffffffffffffffffffff168152602001908152602001600020819055508273ffffffffffffffffffffffffffffffffffffffff163373ffffffffffffffffffffffffffffffffffffffff167f8c5be1e5ebec7d5bd14f71427d1e84f3dd0314c0f7b2291e5b200ac8c7c3b9258460405161063191906121d1565b60405180910390a36001905092915050565b60025481565b7f8cad95687ba82c2ce50e74f7b754645e5117c3a5bec8151c0726d5857980a86681565b600080600460008673ffffffffffffffffffffffffffffffffffffffff1673ffffffffffffffffffffffffffffffffffffffff16815260200190815260200160002060003373ffffffffffffffffffffffffffffffffffffffff1673ffffffffffffffffffffffffffffffffffffffff1681526020019081526020016000205490507fffffffffffffffffffffffffffffffffffffffffffffffffffffffffffffffff81146107a35782816107229190612626565b600460008773ffffffffffffffffffffffffffffffffffffffff1673ffffffffffffffffffffffffffffffffffffffff16815260200190815260200160002060003373ffffffffffffffffffffffffffffffffffffffff1673ffffffffffffffffffffffffffffffffffffffff168152602001908152602001600020819055505b82600360008773ffffffffffffffffffffffffffffffffffffffff1673ffffffffffffffffffffffffffffffffffffffff16815260200190815260200160002060008282546107f29190612626565b9250508190555082600360008673ffffffffffffffffffffffffffffffffffffffff1673ffffffffffffffffffffffffffffffffffffffff168152602001908152602001600020600082825401925050819055508373ffffffffffffffffffffffffffffffffffffffff168573ffffffffffffffffffffffffffffffffffffffff167fddf252ad1be2c89b69c2b068fc378daa952ba7f163c4a11628f55a4df523b3ef856040516108a391906121d1565b60405180910390a360019150509392505050565b7f000000000000000000000000000000000000000000000000000000000000000081565b60007f000000000000000000000000000000000000000000000000000000000000000046146109115761090c611747565b610933565b7f00000000000000000000000000000000000000000000000000000000000000005b905090565b60065481600254610949919061265a565b111561098a576040517f08c379a000000000000000000000000000000000000000000000000000000000815260040161098190612722565b60405180910390fd5b61099482826117d3565b6109ff6000600760008573ffffffffffffffffffffffffffffffffffffffff1673ffffffffffffffffffffffffffffffffffffffff16815260200190815260200160002060009054906101000a900473ffffffffffffffffffffffffffffffffffffffff16836118a3565b5050565b6000600760008373ffffffffffffffffffffffffffffffffffffffff1673ffffffffffffffffffffffffffffffffffffffff16815260200190815260200160002060009054906101000a900473ffffffffffffffffffffffffffffffffffffffff169050919050565b610a763382611b44565b50565b60096020528060005260406000206000915054906101000a900463ffffffff1681565b60036020528060005260406000206000915090505481565b6000438210610af8576040517f08c379a0000000000000000000000000000000000000000000000000000000008152600401610aef906127b4565b60405180910390fd5b6000600960008573ffffffffffffffffffffffffffffffffffffffff1673ffffffffffffffffffffffffffffffffffffffff16815260200190815260200160002060009054906101000a900463ffffffff16905060008163ffffffff1603610b64576000915050610e83565b82600860008673ffffffffffffffffffffffffffffffffffffffff1673ffffffffffffffffffffffffffffffffffffffff1681526020019081526020016000206000600184610bb391906127d4565b63ffffffff1663ffffffff16815260200190815260200160002060000160009054906101000a900463ffffffff1663ffffffff1611610c6057600860008573ffffffffffffffffffffffffffffffffffffffff1673ffffffffffffffffffffffffffffffffffffffff1681526020019081526020016000206000600183610c3a91906127d4565b63ffffffff1663ffffffff16815260200190815260200160002060010154915050610e83565b82600860008673ffffffffffffffffffffffffffffffffffffffff1673ffffffffffffffffffffffffffffffffffffffff16815260200190815260200160002060008063ffffffff16815260200190815260200160002060000160009054906101000a900463ffffffff1663ffffffff161115610ce1576000915050610e83565b600080600183610cf191906127d4565b90505b8163ffffffff168163ffffffff161115610e1d57600060028383610d1891906127d4565b610d229190612837565b82610d2d91906127d4565b90506000600860008973ffffffffffffffffffffffffffffffffffffffff1673ffffffffffffffffffffffffffffffffffffffff16815260200190815260200160002060008363ffffffff1663ffffffff1681526020019081526020016000206040518060400160405290816000820160009054906101000a900463ffffffff1663ffffffff1663ffffffff168152602001600182015481525050905086816000015163ffffffff1603610dec57806020015195505050505050610e83565b86816000015163ffffffff161015610e0657819350610e16565b600182610e1391906127d4565b92505b5050610cf4565b600860008773ffffffffffffffffffffffffffffffffffffffff1673ffffffffffffffffffffffffffffffffffffffff16815260200190815260200160002060008363ffffffff1663ffffffff1681526020019081526020016000206001015493505050505b92915050565b60056020528060005260406000206000915090505481565b60018054610eae906125c6565b80601f0160208091040260200160405190810160405280929190818152602001828054610eda906125c6565b8015610f275780601f10610efc57610100808354040283529160200191610f27565b820191906000526020600020905b815481529060010190602001808311610f0a57829003601f168201915b505050505081565b600081600360003373ffffffffffffffffffffffffffffffffffffffff1673ffffffffffffffffffffffffffffffffffffffff1681526020019081526020016000206000828254610f809190612626565b9250508190555081600360008573ffffffffffffffffffffffffffffffffffffffff1673ffffffffffffffffffffffffffffffffffffffff168152602001908152602001600020600082825401925050819055508273ffffffffffffffffffffffffffffffffffffffff163373ffffffffffffffffffffffffffffffffffffffff167fddf252ad1be2c89b69c2b068fc378daa952ba7f163c4a11628f55a4df523b3ef8460405161103191906121d1565b60405180910390a36001905092915050565b600080600960008473ffffffffffffffffffffffffffffffffffffffff1673ffffffffffffffffffffffffffffffffffffffff16815260200190815260200160002060009054906101000a900463ffffffff16905060008163ffffffff16116110ad57600061111a565b600860008473ffffffffffffffffffffffffffffffffffffffff1673ffffffffffffffffffffffffffffffffffffffff16815260200190815260200160002060006001836110fb91906127d4565b63ffffffff1663ffffffff168152602001908152602001600020600101545b915050919050565b60007f8cad95687ba82c2ce50e74f7b754645e5117c3a5bec8151c0726d5857980a8666000604051611154919061290b565b6040518091039020611164611cec565b306040516020016111789493929190612922565b60405160208183030381529060405280519060200120905060007fe48329057bfd03d55e49b547132e39cffd9c1820ad7b9d4c5307691425d15adf8888886040516020016111c99493929190612967565b604051602081830303815290604052805190602001209050600082826040516020016111f6929190612a24565b6040516020818303038152906040528051906020012090506000600182888888604051600081526020016040526040516112339493929190612a5b565b6020604051602081039080840390855afa158015611255573d6000803e3d6000fd5b505050602060405103519050600073ffffffffffffffffffffffffffffffffffffffff168173ffffffffffffffffffffffffffffffffffffffff16036112d0576040517f08c379a00000000000000000000000000000000000000000000000000000000081526004016112c790612b12565b60405180910390fd5b600560008273ffffffffffffffffffffffffffffffffffffffff1673ffffffffffffffffffffffffffffffffffffffff168152602001908152602001600020600081548092919061132090612b32565b919050558914611365576040517f08c379a000000000000000000000000000000000000000000000000000000000815260040161135c90612bec565b60405180910390fd5b874211156113a8576040517f08c379a000000000000000000000000000000000000000000000000000000000815260040161139f90612c7e565b60405180910390fd5b6113b2818b611b44565b50505050505050505050565b42841015611401576040517f08c379a00000000000000000000000000000000000000000000000000000000081526004016113f890612cea565b60405180910390fd5b6000600161140d6108db565b7f6e71edae12b1b97f4d1f60370fef10105fa2faae0126114a169c64845d6126c98a8a8a600560008f73ffffffffffffffffffffffffffffffffffffffff1673ffffffffffffffffffffffffffffffffffffffff1681526020019081526020016000206000815480929190600101919050558b60405160200161149596959493929190612d0a565b604051602081830303815290604052805190602001206040516020016114bc929190612a24565b60405160208183030381529060405280519060200120858585604051600081526020016040526040516114f29493929190612a5b565b6020604051602081039080840390855afa158015611514573d6000803e3d6000fd5b505050602060405103519050600073ffffffffffffffffffffffffffffffffffffffff168173ffffffffffffffffffffffffffffffffffffffff161415801561158857508773ffffffffffffffffffffffffffffffffffffffff168173ffffffffffffffffffffffffffffffffffffffff16145b6115c7576040517f08c379a00000000000000000000000000000000000000000000000000000000081526004016115be90612db7565b60405180910390fd5b85600460008373ffffffffffffffffffffffffffffffffffffffff1673ffffffffffffffffffffffffffffffffffffffff16815260200190815260200160002060008973ffffffffffffffffffffffffffffffffffffffff1673ffffffffffffffffffffffffffffffffffffffff16815260200190815260200160002081905550508573ffffffffffffffffffffffffffffffffffffffff168773ffffffffffffffffffffffffffffffffffffffff167f8c5be1e5ebec7d5bd14f71427d1e84f3dd0314c0f7b2291e5b200ac8c7c3b925876040516116a691906121d1565b60405180910390a350505050505050565b60065481565b6004602052816000526040600020602052806000526040600020600091509150505481565b7fe48329057bfd03d55e49b547132e39cffd9c1820ad7b9d4c5307691425d15adf81565b6008602052816000526040600020602052806000526040600020600091509150508060000160009054906101000a900463ffffffff16908060010154905082565b60007f8b73c3c69bb8fe3d512ecc4cf759cc79239f7b179b0ffacaa9a75d522b39400f6000604051611779919061290b565b60405180910390207fc89efdaa54c0f20c7adf612882df0950f5a951637e0307cdcb4c672f298b8bc646306040516020016117b8959493929190612dd7565b60405160208183030381529060405280519060200120905090565b80600260008282546117e5919061265a565b9250508190555080600360008473ffffffffffffffffffffffffffffffffffffffff1673ffffffffffffffffffffffffffffffffffffffff168152602001908152602001600020600082825401925050819055508173ffffffffffffffffffffffffffffffffffffffff16600073ffffffffffffffffffffffffffffffffffffffff167fddf252ad1be2c89b69c2b068fc378daa952ba7f163c4a11628f55a4df523b3ef8360405161189791906121d1565b60405180910390a35050565b8173ffffffffffffffffffffffffffffffffffffffff168373ffffffffffffffffffffffffffffffffffffffff16141580156118df5750600081115b15611b3f57600073ffffffffffffffffffffffffffffffffffffffff168373ffffffffffffffffffffffffffffffffffffffff1614611a11576000600960008573ffffffffffffffffffffffffffffffffffffffff1673ffffffffffffffffffffffffffffffffffffffff16815260200190815260200160002060009054906101000a900463ffffffff1690506000808263ffffffff16116119825760006119ef565b600860008673ffffffffffffffffffffffffffffffffffffffff1673ffffffffffffffffffffffffffffffffffffffff16815260200190815260200160002060006001846119d091906127d4565b63ffffffff1663ffffffff168152602001908152602001600020600101545b9050600083826119ff9190612626565b9050611a0d86848484611cf9565b5050505b600073ffffffffffffffffffffffffffffffffffffffff168273ffffffffffffffffffffffffffffffffffffffff1614611b3e576000600960008473ffffffffffffffffffffffffffffffffffffffff1673ffffffffffffffffffffffffffffffffffffffff16815260200190815260200160002060009054906101000a900463ffffffff1690506000808263ffffffff1611611aaf576000611b1c565b600860008573ffffffffffffffffffffffffffffffffffffffff1673ffffffffffffffffffffffffffffffffffffffff1681526020019081526020016000206000600184611afd91906127d4565b63ffffffff1663ffffffff168152602001908152602001600020600101545b905060008382611b2c919061265a565b9050611b3a85848484611cf9565b5050505b5b505050565b6000600760008473ffffffffffffffffffffffffffffffffffffffff1673ffffffffffffffffffffffffffffffffffffffff16815260200190815260200160002060009054906101000a900473ffffffffffffffffffffffffffffffffffffffff1690506000600360008573ffffffffffffffffffffffffffffffffffffffff1673ffffffffffffffffffffffffffffffffffffffff16815260200190815260200160002054905082600760008673ffffffffffffffffffffffffffffffffffffffff1673ffffffffffffffffffffffffffffffffffffffff16815260200190815260200160002060006101000a81548173ffffffffffffffffffffffffffffffffffffffff021916908373ffffffffffffffffffffffffffffffffffffffff1602179055508273ffffffffffffffffffffffffffffffffffffffff168273ffffffffffffffffffffffffffffffffffffffff168573ffffffffffffffffffffffffffffffffffffffff167f3134e8a2e6d97e929a7e54011ea5485d7d196dd5f0ba4d4ef95803e8e3fc257f60405160405180910390a4611ce68284836118a3565b50505050565b6000804690508091505090565b6000611d1d43604051806060016040528060338152602001612e8e60339139611fa2565b905060008463ffffffff16118015611dbb57508063ffffffff16600860008773ffffffffffffffffffffffffffffffffffffffff1673ffffffffffffffffffffffffffffffffffffffff1681526020019081526020016000206000600187611d8591906127d4565b63ffffffff1663ffffffff16815260200190815260200160002060000160009054906101000a900463ffffffff1663ffffffff16145b15611e355781600860008773ffffffffffffffffffffffffffffffffffffffff1673ffffffffffffffffffffffffffffffffffffffff1681526020019081526020016000206000600187611e0f91906127d4565b63ffffffff1663ffffffff16815260200190815260200160002060010181905550611f4b565b60405180604001604052808263ffffffff16815260200183815250600860008773ffffffffffffffffffffffffffffffffffffffff1673ffffffffffffffffffffffffffffffffffffffff16815260200190815260200160002060008663ffffffff1663ffffffff16815260200190815260200160002060008201518160000160006101000a81548163ffffffff021916908363ffffffff16021790555060208201518160010155905050600184611eed9190612e2a565b600960008773ffffffffffffffffffffffffffffffffffffffff1673ffffffffffffffffffffffffffffffffffffffff16815260200190815260200160002060006101000a81548163ffffffff021916908363ffffffff1602179055505b8473ffffffffffffffffffffffffffffffffffffffff167fdec2bacdd2f05b59de34da9b523dff8be42e5e38e818c82fdb0bae774387a7248484604051611f93929190612e64565b60405180910390a25050505050565b600064010000000083108290611fee576040517f08c379a0000000000000000000000000000000000000000000000000000000008152600401611fe59190612091565b60405180910390fd5b5082905092915050565b600081519050919050565b600082825260208201905092915050565b60005b83811015612032578082015181840152602081019050612017565b83811115612041576000848401525b50505050565b6000601f19601f8301169050919050565b600061206382611ff8565b61206d8185612003565b935061207d818560208601612014565b61208681612047565b840191505092915050565b600060208201905081810360008301526120ab8184612058565b905092915050565b600080fd5b600073ffffffffffffffffffffffffffffffffffffffff82169050919050565b60006120e3826120b8565b9050919050565b6120f3816120d8565b81146120fe57600080fd5b50565b600081359050612110816120ea565b92915050565b6000819050919050565b61212981612116565b811461213457600080fd5b50565b60008135905061214681612120565b92915050565b60008060408385031215612163576121626120b3565b5b600061217185828601612101565b925050602061218285828601612137565b9150509250929050565b60008115159050919050565b6121a18161218c565b82525050565b60006020820190506121bc6000830184612198565b92915050565b6121cb81612116565b82525050565b60006020820190506121e660008301846121c2565b92915050565b6000819050919050565b6121ff816121ec565b82525050565b600060208201905061221a60008301846121f6565b92915050565b600080600060608486031215612239576122386120b3565b5b600061224786828701612101565b935050602061225886828701612101565b925050604061226986828701612137565b9150509250925092565b600060ff82169050919050565b61228981612273565b82525050565b60006020820190506122a46000830184612280565b92915050565b6000602082840312156122c0576122bf6120b3565b5b60006122ce84828501612101565b91505092915050565b6122e0816120d8565b82525050565b60006020820190506122fb60008301846122d7565b92915050565b600063ffffffff82169050919050565b61231a81612301565b82525050565b60006020820190506123356000830184612311565b92915050565b61234481612273565b811461234f57600080fd5b50565b6000813590506123618161233b565b92915050565b612370816121ec565b811461237b57600080fd5b50565b60008135905061238d81612367565b92915050565b60008060008060008060c087890312156123b0576123af6120b3565b5b60006123be89828a01612101565b96505060206123cf89828a01612137565b95505060406123e089828a01612137565b94505060606123f189828a01612352565b935050608061240289828a0161237e565b92505060a061241389828a0161237e565b9150509295509295509295565b600080600080600080600060e0888a03121561243f5761243e6120b3565b5b600061244d8a828b01612101565b975050602061245e8a828b01612101565b965050604061246f8a828b01612137565b95505060606124808a828b01612137565b94505060806124918a828b01612352565b93505060a06124a28a828b0161237e565b92505060c06124b38a828b0161237e565b91505092959891949750929550565b600080604083850312156124d9576124d86120b3565b5b60006124e785828601612101565b92505060206124f885828601612101565b9150509250929050565b61250b81612301565b811461251657600080fd5b50565b60008135905061252881612502565b92915050565b60008060408385031215612545576125446120b3565b5b600061255385828601612101565b925050602061256485828601612519565b9150509250929050565b60006040820190506125836000830185612311565b61259060208301846121c2565b9392505050565b7f4e487b7100000000000000000000000000000000000000000000000000000000600052602260045260246000fd5b600060028204905060018216806125de57607f821691505b6020821081036125f1576125f0612597565b5b50919050565b7f4e487b7100000000000000000000000000000000000000000000000000000000600052601160045260246000fd5b600061263182612116565b915061263c83612116565b92508282101561264f5761264e6125f7565b5b828203905092915050565b600061266582612116565b915061267083612116565b9250827fffffffffffffffffffffffffffffffffffffffffffffffffffffffffffffffff038211156126a5576126a46125f7565b5b828201905092915050565b7f4a4f453a3a6d696e743a2063616e6e6f7420657863656564206d61782073757060008201527f706c790000000000000000000000000000000000000000000000000000000000602082015250565b600061270c602383612003565b9150612717826126b0565b604082019050919050565b6000602082019050818103600083015261273b816126ff565b9050919050565b7f4a4f453a3a6765745072696f72566f7465733a206e6f7420796574206465746560008201527f726d696e65640000000000000000000000000000000000000000000000000000602082015250565b600061279e602683612003565b91506127a982612742565b604082019050919050565b600060208201905081810360008301526127cd81612791565b9050919050565b60006127df82612301565b91506127ea83612301565b9250828210156127fd576127fc6125f7565b5b828203905092915050565b7f4e487b7100000000000000000000000000000000000000000000000000000000600052601260045260246000fd5b600061284282612301565b915061284d83612301565b92508261285d5761285c612808565b5b828204905092915050565b600081905092915050565b60008190508160005260206000209050919050565b60008154612895816125c6565b61289f8186612868565b945060018216600081146128ba57600181146128cf57612902565b60ff1983168652811515820286019350612902565b6128d885612873565b60005b838110156128fa578154818901526001820191506020810190506128db565b838801955050505b50505092915050565b60006129178284612888565b915081905092915050565b600060808201905061293760008301876121f6565b61294460208301866121f6565b61295160408301856121c2565b61295e60608301846122d7565b95945050505050565b600060808201905061297c60008301876121f6565b61298960208301866122d7565b61299660408301856121c2565b6129a360608301846121c2565b95945050505050565b600081905092915050565b7f1901000000000000000000000000000000000000000000000000000000000000600082015250565b60006129ed6002836129ac565b91506129f8826129b7565b600282019050919050565b6000819050919050565b612a1e612a19826121ec565b612a03565b82525050565b6000612a2f826129e0565b9150612a3b8285612a0d565b602082019150612a4b8284612a0d565b6020820191508190509392505050565b6000608082019050612a7060008301876121f6565b612a7d6020830186612280565b612a8a60408301856121f6565b612a9760608301846121f6565b95945050505050565b7f4a4f453a3a64656c656761746542795369673a20696e76616c6964207369676e60008201527f6174757265000000000000000000000000000000000000000000000000000000602082015250565b6000612afc602583612003565b9150612b0782612aa0565b604082019050919050565b60006020820190508181036000830152612b2b81612aef565b9050919050565b6000612b3d82612116565b91507fffffffffffffffffffffffffffffffffffffffffffffffffffffffffffffffff8203612b6f57612b6e6125f7565b5b600182019050919050565b7f4a4f453a3a64656c656761746542795369673a20696e76616c6964206e6f6e6360008201527f6500000000000000000000000000000000000000000000000000000000000000602082015250565b6000612bd6602183612003565b9150612be182612b7a565b604082019050919050565b60006020820190508181036000830152612c0581612bc9565b9050919050565b7f4a4f453a3a64656c656761746542795369673a207369676e617475726520657860008201527f7069726564000000000000000000000000000000000000000000000000000000602082015250565b6000612c68602583612003565b9150612c7382612c0c565b604082019050919050565b60006020820190508181036000830152612c9781612c5b565b9050919050565b7f5045524d49545f444541444c494e455f45585049524544000000000000000000600082015250565b6000612cd4601783612003565b9150612cdf82612c9e565b602082019050919050565b60006020820190508181036000830152612d0381612cc7565b9050919050565b600060c082019050612d1f60008301896121f6565b612d2c60208301886122d7565b612d3960408301876122d7565b612d4660608301866121c2565b612d5360808301856121c2565b612d6060a08301846121c2565b979650505050505050565b7f494e56414c49445f5349474e4552000000000000000000000000000000000000600082015250565b6000612da1600e83612003565b9150612dac82612d6b565b602082019050919050565b60006020820190508181036000830152612dd081612d94565b9050919050565b600060a082019050612dec60008301886121f6565b612df960208301876121f6565b612e0660408301866121f6565b612e1360608301856121c2565b612e2060808301846122d7565b9695505050505050565b6000612e3582612301565b9150612e4083612301565b92508263ffffffff03821115612e5957612e586125f7565b5b828201905092915050565b6000604082019050612e7960008301856121c2565b612e8660208301846121c2565b939250505056fe4a4f453a3a5f7772697465436865636b706f696e743a20626c6f636b206e756d62657220657863656564732033322062697473a264697066735822122020890a800e977e4974dda4fc3130518b609a4f234455dce15e5b5c2c25083f4f64736f6c634300080f0033",
  "devdoc": {
    "kind": "dev",
    "methods": {
      "delegate(address)": {
        "params": {
          "delegatee": "The address to delegate votes to"
        }
      },
      "delegateBySig(address,uint256,uint256,uint8,bytes32,bytes32)": {
        "params": {
          "delegatee": "The address to delegate votes to",
          "expiry": "The time at which to expire the signature",
          "nonce": "The contract state required to match the signature",
          "r": "Half of the ECDSA signature pair",
          "s": "Half of the ECDSA signature pair",
          "v": "The recovery byte of the signature"
        }
      },
      "delegates(address)": {
        "params": {
          "delegator": "The address to get delegatee for"
        }
      },
      "getCurrentVotes(address)": {
        "params": {
          "account": "The address to get votes balance"
        },
        "returns": {
          "_0": "The number of current votes for `account`"
        }
      },
      "getPriorVotes(address,uint256)": {
        "details": "Block number must be a finalized block or else this function will revert to prevent misinformation.",
        "params": {
          "account": "The address of the account to check",
          "blockNumber": "The block number to get the vote balance at"
        },
        "returns": {
          "_0": "The number of votes the account had as of the given block"
        }
      }
    },
    "version": 1
  },
  "userdoc": {
    "events": {
      "DelegateChanged(address,address,address)": {
        "notice": "An event thats emitted when an account changes its delegate"
      },
      "DelegateVotesChanged(address,uint256,uint256)": {
        "notice": "An event thats emitted when a delegate account's vote balance changes"
      }
    },
    "kind": "user",
    "methods": {
      "DELEGATION_TYPEHASH()": {
        "notice": "The EIP-712 typehash for the delegation struct used by the contract"
      },
      "DOMAIN_TYPEHASH()": {
        "notice": "The EIP-712 typehash for the contract's domain"
      },
      "checkpoints(address,uint32)": {
        "notice": "A record of votes checkpoints for each account, by index"
      },
      "delegate(address)": {
        "notice": "Delegate votes from `msg.sender` to `delegatee`"
      },
      "delegateBySig(address,uint256,uint256,uint8,bytes32,bytes32)": {
        "notice": "Delegates votes from signatory to `delegatee`"
      },
      "delegates(address)": {
        "notice": "Delegate votes from `msg.sender` to `delegatee`"
      },
      "getCurrentVotes(address)": {
        "notice": "Gets the current votes balance for `account`"
      },
      "getPriorVotes(address,uint256)": {
        "notice": "Determine the prior number of votes for an account as of a block number"
      },
      "maxSupply()": {
        "notice": "Total number of tokens"
      },
      "mint(address,uint256)": {
        "notice": "Creates `_amount` token to `_to`. Must only be called by the owner (MasterJoe)."
      },
      "numCheckpoints(address)": {
        "notice": "The number of checkpoints for each account"
      }
    },
    "version": 1
  },
  "storageLayout": {
    "storage": [
      {
        "astId": 23807,
        "contract": "src-tokens/JoeToken.sol:JoeToken",
        "label": "name",
        "offset": 0,
        "slot": "0",
        "type": "t_string_storage"
      },
      {
        "astId": 23809,
        "contract": "src-tokens/JoeToken.sol:JoeToken",
        "label": "symbol",
        "offset": 0,
        "slot": "1",
        "type": "t_string_storage"
      },
      {
        "astId": 23813,
        "contract": "src-tokens/JoeToken.sol:JoeToken",
        "label": "totalSupply",
        "offset": 0,
        "slot": "2",
        "type": "t_uint256"
      },
      {
        "astId": 23817,
        "contract": "src-tokens/JoeToken.sol:JoeToken",
        "label": "balanceOf",
        "offset": 0,
        "slot": "3",
        "type": "t_mapping(t_address,t_uint256)"
      },
      {
        "astId": 23823,
        "contract": "src-tokens/JoeToken.sol:JoeToken",
        "label": "allowance",
        "offset": 0,
        "slot": "4",
        "type": "t_mapping(t_address,t_mapping(t_address,t_uint256))"
      },
      {
        "astId": 23831,
        "contract": "src-tokens/JoeToken.sol:JoeToken",
        "label": "nonces",
        "offset": 0,
        "slot": "5",
        "type": "t_mapping(t_address,t_uint256)"
      },
      {
        "astId": 24434,
        "contract": "src-tokens/JoeToken.sol:JoeToken",
        "label": "maxSupply",
        "offset": 0,
        "slot": "6",
        "type": "t_uint256"
      },
      {
        "astId": 24473,
        "contract": "src-tokens/JoeToken.sol:JoeToken",
        "label": "_delegates",
        "offset": 0,
        "slot": "7",
        "type": "t_mapping(t_address,t_address)"
      },
      {
        "astId": 24486,
        "contract": "src-tokens/JoeToken.sol:JoeToken",
        "label": "checkpoints",
        "offset": 0,
        "slot": "8",
        "type": "t_mapping(t_address,t_mapping(t_uint32,t_struct(Checkpoint)24478_storage))"
      },
      {
        "astId": 24491,
        "contract": "src-tokens/JoeToken.sol:JoeToken",
        "label": "numCheckpoints",
        "offset": 0,
        "slot": "9",
        "type": "t_mapping(t_address,t_uint32)"
      }
    ],
    "types": {
      "t_address": {
        "encoding": "inplace",
        "label": "address",
        "numberOfBytes": "20"
      },
      "t_mapping(t_address,t_address)": {
        "encoding": "mapping",
        "key": "t_address",
        "label": "mapping(address => address)",
        "numberOfBytes": "32",
        "value": "t_address"
      },
      "t_mapping(t_address,t_mapping(t_address,t_uint256))": {
        "encoding": "mapping",
        "key": "t_address",
        "label": "mapping(address => mapping(address => uint256))",
        "numberOfBytes": "32",
        "value": "t_mapping(t_address,t_uint256)"
      },
      "t_mapping(t_address,t_mapping(t_uint32,t_struct(Checkpoint)24478_storage))": {
        "encoding": "mapping",
        "key": "t_address",
        "label": "mapping(address => mapping(uint32 => struct JoeToken.Checkpoint))",
        "numberOfBytes": "32",
        "value": "t_mapping(t_uint32,t_struct(Checkpoint)24478_storage)"
      },
      "t_mapping(t_address,t_uint256)": {
        "encoding": "mapping",
        "key": "t_address",
        "label": "mapping(address => uint256)",
        "numberOfBytes": "32",
        "value": "t_uint256"
      },
      "t_mapping(t_address,t_uint32)": {
        "encoding": "mapping",
        "key": "t_address",
        "label": "mapping(address => uint32)",
        "numberOfBytes": "32",
        "value": "t_uint32"
      },
      "t_mapping(t_uint32,t_struct(Checkpoint)24478_storage)": {
        "encoding": "mapping",
        "key": "t_uint32",
        "label": "mapping(uint32 => struct JoeToken.Checkpoint)",
        "numberOfBytes": "32",
        "value": "t_struct(Checkpoint)24478_storage"
      },
      "t_string_storage": {
        "encoding": "bytes",
        "label": "string",
        "numberOfBytes": "32"
      },
      "t_struct(Checkpoint)24478_storage": {
        "encoding": "inplace",
        "label": "struct JoeToken.Checkpoint",
        "members": [
          {
            "astId": 24475,
            "contract": "src-tokens/JoeToken.sol:JoeToken",
            "label": "fromBlock",
            "offset": 0,
            "slot": "0",
            "type": "t_uint32"
          },
          {
            "astId": 24477,
            "contract": "src-tokens/JoeToken.sol:JoeToken",
            "label": "votes",
            "offset": 0,
            "slot": "1",
            "type": "t_uint256"
          }
        ],
        "numberOfBytes": "64"
      },
      "t_uint256": {
        "encoding": "inplace",
        "label": "uint256",
        "numberOfBytes": "32"
      },
      "t_uint32": {
        "encoding": "inplace",
        "label": "uint32",
        "numberOfBytes": "4"
      }
    }
  }
}