{
  "address": "0x7896BE2c5BD0Fdc3cf473b0A20Bb809b9C5f7E90",
  "abi": [
    {
      "anonymous": false,
      "inputs": [
        {
          "indexed": true,
          "internalType": "address",
          "name": "account",
          "type": "address"
        },
        {
          "indexed": false,
          "internalType": "uint256",
          "name": "value",
          "type": "uint256"
        }
      ],
      "name": "Burn",
      "type": "event"
    },
    {
      "anonymous": false,
      "inputs": [
        {
          "indexed": true,
          "internalType": "address",
          "name": "beneficiary",
          "type": "address"
        },
        {
          "indexed": false,
          "internalType": "uint256",
          "name": "value",
          "type": "uint256"
        }
      ],
      "name": "Mint",
      "type": "event"
    },
    {
      "anonymous": false,
      "inputs": [
        {
          "indexed": true,
          "internalType": "address",
          "name": "previousOwner",
          "type": "address"
        },
        {
          "indexed": true,
          "internalType": "address",
          "name": "newOwner",
          "type": "address"
        }
      ],
      "name": "OwnershipTransferred",
      "type": "event"
    },
    {
      "anonymous": false,
      "inputs": [
        {
          "indexed": true,
          "internalType": "address",
          "name": "user",
          "type": "address"
        },
        {
          "indexed": false,
          "internalType": "address",
          "name": "boostedMasterChef",
          "type": "address"
        }
      ],
      "name": "UpdateBoostedMasterChefJoe",
      "type": "event"
    },
    {
      "inputs": [
        {
          "internalType": "address",
          "name": "account",
          "type": "address"
        }
      ],
      "name": "balanceOf",
      "outputs": [
        {
          "internalType": "uint256",
          "name": "",
          "type": "uint256"
        }
      ],
      "stateMutability": "view",
      "type": "function"
    },
    {
      "inputs": [],
      "name": "boostedMasterChef",
      "outputs": [
        {
          "internalType": "contract IBoostedMasterChefJoe",
          "name": "",
          "type": "address"
        }
      ],
      "stateMutability": "view",
      "type": "function"
    },
    {
      "inputs": [
        {
          "internalType": "address",
          "name": "_from",
          "type": "address"
        },
        {
          "internalType": "uint256",
          "name": "_amount",
          "type": "uint256"
        }
      ],
      "name": "burnFrom",
      "outputs": [],
      "stateMutability": "nonpayable",
      "type": "function"
    },
    {
      "inputs": [],
      "name": "decimals",
      "outputs": [
        {
          "internalType": "uint8",
          "name": "",
          "type": "uint8"
        }
      ],
      "stateMutability": "view",
      "type": "function"
    },
    {
      "inputs": [
        {
          "internalType": "address",
          "name": "_to",
          "type": "address"
        },
        {
          "internalType": "uint256",
          "name": "_amount",
          "type": "uint256"
        }
      ],
      "name": "mint",
      "outputs": [],
      "stateMutability": "nonpayable",
      "type": "function"
    },
    {
      "inputs": [],
      "name": "name",
      "outputs": [
        {
          "internalType": "string",
          "name": "",
          "type": "string"
        }
      ],
      "stateMutability": "view",
      "type": "function"
    },
    {
      "inputs": [],
      "name": "owner",
      "outputs": [
        {
          "internalType": "address",
          "name": "",
          "type": "address"
        }
      ],
      "stateMutability": "view",
      "type": "function"
    },
    {
      "inputs": [],
      "name": "renounceOwnership",
      "outputs": [],
      "stateMutability": "nonpayable",
      "type": "function"
    },
    {
      "inputs": [
        {
          "internalType": "address",
          "name": "_boostedMasterChef",
          "type": "address"
        }
      ],
      "name": "setBoostedMasterChefJoe",
      "outputs": [],
      "stateMutability": "nonpayable",
      "type": "function"
    },
    {
      "inputs": [],
      "name": "symbol",
      "outputs": [
        {
          "internalType": "string",
          "name": "",
          "type": "string"
        }
      ],
      "stateMutability": "view",
      "type": "function"
    },
    {
      "inputs": [],
      "name": "totalSupply",
      "outputs": [
        {
          "internalType": "uint256",
          "name": "",
          "type": "uint256"
        }
      ],
      "stateMutability": "view",
      "type": "function"
    },
    {
      "inputs": [
        {
          "internalType": "address",
          "name": "newOwner",
          "type": "address"
        }
      ],
      "name": "transferOwnership",
      "outputs": [],
      "stateMutability": "nonpayable",
      "type": "function"
    }
  ],
  "transactionHash": "0x43a13f3501142b23a4b87865bedfdff01f6ed2d43be3838cae2812751b0c3652",
  "args": [],
  "numDeployments": 12,
  "solcInputHash": "a407bc51adfc6da30da7dbff96742774",
  "bytecode": "0x60806040523480156200001157600080fd5b506040518060400160405280600a81526020017f56654a6f65546f6b656e000000000000000000000000000000000000000000008152506040518060400160405280600581526020017f76654a4f4500000000000000000000000000000000000000000000000000000081525081600290816200008f919062000412565b508060039081620000a1919062000412565b505050620000c4620000b8620000ca60201b60201c565b620000d260201b60201c565b620004f9565b600033905090565b6000600460009054906101000a900473ffffffffffffffffffffffffffffffffffffffff16905081600460006101000a81548173ffffffffffffffffffffffffffffffffffffffff021916908373ffffffffffffffffffffffffffffffffffffffff1602179055508173ffffffffffffffffffffffffffffffffffffffff168173ffffffffffffffffffffffffffffffffffffffff167f8be0079c531659141344cd1fd0a4f28419497f9722a3daafe3b4186f6b6457e060405160405180910390a35050565b600081519050919050565b7f4e487b7100000000000000000000000000000000000000000000000000000000600052604160045260246000fd5b7f4e487b7100000000000000000000000000000000000000000000000000000000600052602260045260246000fd5b600060028204905060018216806200021a57607f821691505b60208210810362000230576200022f620001d2565b5b50919050565b60008190508160005260206000209050919050565b60006020601f8301049050919050565b600082821b905092915050565b6000600883026200029a7fffffffffffffffffffffffffffffffffffffffffffffffffffffffffffffffff826200025b565b620002a686836200025b565b95508019841693508086168417925050509392505050565b6000819050919050565b6000819050919050565b6000620002f3620002ed620002e784620002be565b620002c8565b620002be565b9050919050565b6000819050919050565b6200030f83620002d2565b620003276200031e82620002fa565b84845462000268565b825550505050565b600090565b6200033e6200032f565b6200034b81848462000304565b505050565b5b8181101562000373576200036760008262000334565b60018101905062000351565b5050565b601f821115620003c2576200038c8162000236565b62000397846200024b565b81016020851015620003a7578190505b620003bf620003b6856200024b565b83018262000350565b50505b505050565b600082821c905092915050565b6000620003e760001984600802620003c7565b1980831691505092915050565b6000620004028383620003d4565b9150826002028217905092915050565b6200041d8262000198565b67ffffffffffffffff811115620004395762000438620001a3565b5b62000445825462000201565b6200045282828562000377565b600060209050601f8311600181146200048a576000841562000475578287015190505b620004818582620003f4565b865550620004f1565b601f1984166200049a8662000236565b60005b82811015620004c4578489015182556001820191506020850194506020810190506200049d565b86831015620004e45784890151620004e0601f891682620003d4565b8355505b6001600288020188555050505b505050505050565b61129880620005096000396000f3fe608060405234801561001057600080fd5b50600436106100b45760003560e01c8063715018a611610071578063715018a61461017b57806379cc6790146101855780638da5cb5b146101a157806395d89b41146101bf578063f2fde38b146101dd578063f605cbb1146101f9576100b4565b806306fdde03146100b957806318160ddd146100d7578063313ce567146100f557806340c10f191461011357806348a2e46b1461012f57806370a082311461014b575b600080fd5b6100c1610217565b6040516100ce9190610bd3565b60405180910390f35b6100df6102a9565b6040516100ec9190610c0e565b60405180910390f35b6100fd6102b3565b60405161010a9190610c45565b60405180910390f35b61012d60048036038101906101289190610cef565b6102bc565b005b61014960048036038101906101449190610d2f565b6102d2565b005b61016560048036038101906101609190610d2f565b610373565b6040516101729190610c0e565b60405180910390f35b6101836103bb565b005b61019f600480360381019061019a9190610cef565b6103fe565b005b6101a9610414565b6040516101b69190610d6b565b60405180910390f35b6101c761043e565b6040516101d49190610bd3565b60405180910390f35b6101f760048036038101906101f29190610d2f565b6104d0565b005b610201610553565b60405161020e9190610de5565b60405180910390f35b60606002805461022690610e2f565b80601f016020809104026020016040519081016040528092919081815260200182805461025290610e2f565b801561029f5780601f106102745761010080835404028352916020019161029f565b820191906000526020600020905b81548152906001019060200180831161028257829003601f168201915b5050505050905090565b6000600154905090565b60006012905090565b6102c4610579565b6102ce82826105f7565b5050565b6102da610579565b80600560006101000a81548173ffffffffffffffffffffffffffffffffffffffff021916908373ffffffffffffffffffffffffffffffffffffffff16021790555061032361077a565b73ffffffffffffffffffffffffffffffffffffffff167fc88bf940839a2f0533c7483ae3f460cf9cbdf750a8c43ed6fd4d98243c202ea2826040516103689190610d6b565b60405180910390a250565b60008060008373ffffffffffffffffffffffffffffffffffffffff1673ffffffffffffffffffffffffffffffffffffffff168152602001908152602001600020549050919050565b6103c3610579565b6040517f08c379a00000000000000000000000000000000000000000000000000000000081526004016103f590610ed2565b60405180910390fd5b610406610579565b6104108282610782565b5050565b6000600460009054906101000a900473ffffffffffffffffffffffffffffffffffffffff16905090565b60606003805461044d90610e2f565b80601f016020809104026020016040519081016040528092919081815260200182805461047990610e2f565b80156104c65780601f1061049b576101008083540402835291602001916104c6565b820191906000526020600020905b8154815290600101906020018083116104a957829003601f168201915b5050505050905090565b6104d8610579565b600073ffffffffffffffffffffffffffffffffffffffff168173ffffffffffffffffffffffffffffffffffffffff1603610547576040517f08c379a000000000000000000000000000000000000000000000000000000000815260040161053e90610f64565b60405180910390fd5b61055081610985565b50565b600560009054906101000a900473ffffffffffffffffffffffffffffffffffffffff1681565b61058161077a565b73ffffffffffffffffffffffffffffffffffffffff1661059f610414565b73ffffffffffffffffffffffffffffffffffffffff16146105f5576040517f08c379a00000000000000000000000000000000000000000000000000000000081526004016105ec90610fd0565b60405180910390fd5b565b600073ffffffffffffffffffffffffffffffffffffffff168273ffffffffffffffffffffffffffffffffffffffff1603610666576040517f08c379a000000000000000000000000000000000000000000000000000000000815260040161065d9061103c565b60405180910390fd5b61067260008383610a4b565b8060016000828254610684919061108b565b92505081905550806000808473ffffffffffffffffffffffffffffffffffffffff1673ffffffffffffffffffffffffffffffffffffffff16815260200190815260200160002060008282546106d9919061108b565b925050819055508173ffffffffffffffffffffffffffffffffffffffff167f0f6798a560793a54c3bcfe86a93cde1e73087d944c0ea20544137d4121396885826040516107269190610c0e565b60405180910390a2610776826000808573ffffffffffffffffffffffffffffffffffffffff1673ffffffffffffffffffffffffffffffffffffffff16815260200190815260200160002054610a50565b5050565b600033905090565b600073ffffffffffffffffffffffffffffffffffffffff168273ffffffffffffffffffffffffffffffffffffffff16036107f1576040517f08c379a00000000000000000000000000000000000000000000000000000000081526004016107e890611153565b60405180910390fd5b6107fd82600083610a4b565b60008060008473ffffffffffffffffffffffffffffffffffffffff1673ffffffffffffffffffffffffffffffffffffffff16815260200190815260200160002054905081811015610883576040517f08c379a000000000000000000000000000000000000000000000000000000000815260040161087a906111e5565b60405180910390fd5b818161088f9190611205565b6000808573ffffffffffffffffffffffffffffffffffffffff1673ffffffffffffffffffffffffffffffffffffffff1681526020019081526020016000208190555081600160008282546108e39190611205565b925050819055508273ffffffffffffffffffffffffffffffffffffffff167fcc16f5dbb4873280815c1ee09dbd06736cffcc184412cf7a71a0fdb75d397ca5836040516109309190610c0e565b60405180910390a2610980836000808673ffffffffffffffffffffffffffffffffffffffff1673ffffffffffffffffffffffffffffffffffffffff16815260200190815260200160002054610a50565b505050565b6000600460009054906101000a900473ffffffffffffffffffffffffffffffffffffffff16905081600460006101000a81548173ffffffffffffffffffffffffffffffffffffffff021916908373ffffffffffffffffffffffffffffffffffffffff1602179055508173ffffffffffffffffffffffffffffffffffffffff168173ffffffffffffffffffffffffffffffffffffffff167f8be0079c531659141344cd1fd0a4f28419497f9722a3daafe3b4186f6b6457e060405160405180910390a35050565b505050565b600073ffffffffffffffffffffffffffffffffffffffff16600560009054906101000a900473ffffffffffffffffffffffffffffffffffffffff1673ffffffffffffffffffffffffffffffffffffffff1614610b3657600560009054906101000a900473ffffffffffffffffffffffffffffffffffffffff1673ffffffffffffffffffffffffffffffffffffffff16634f00a93e83836040518363ffffffff1660e01b8152600401610b03929190611239565b600060405180830381600087803b158015610b1d57600080fd5b505af1158015610b31573d6000803e3d6000fd5b505050505b5050565b600081519050919050565b600082825260208201905092915050565b60005b83811015610b74578082015181840152602081019050610b59565b83811115610b83576000848401525b50505050565b6000601f19601f8301169050919050565b6000610ba582610b3a565b610baf8185610b45565b9350610bbf818560208601610b56565b610bc881610b89565b840191505092915050565b60006020820190508181036000830152610bed8184610b9a565b905092915050565b6000819050919050565b610c0881610bf5565b82525050565b6000602082019050610c236000830184610bff565b92915050565b600060ff82169050919050565b610c3f81610c29565b82525050565b6000602082019050610c5a6000830184610c36565b92915050565b600080fd5b600073ffffffffffffffffffffffffffffffffffffffff82169050919050565b6000610c9082610c65565b9050919050565b610ca081610c85565b8114610cab57600080fd5b50565b600081359050610cbd81610c97565b92915050565b610ccc81610bf5565b8114610cd757600080fd5b50565b600081359050610ce981610cc3565b92915050565b60008060408385031215610d0657610d05610c60565b5b6000610d1485828601610cae565b9250506020610d2585828601610cda565b9150509250929050565b600060208284031215610d4557610d44610c60565b5b6000610d5384828501610cae565b91505092915050565b610d6581610c85565b82525050565b6000602082019050610d806000830184610d5c565b92915050565b6000819050919050565b6000610dab610da6610da184610c65565b610d86565b610c65565b9050919050565b6000610dbd82610d90565b9050919050565b6000610dcf82610db2565b9050919050565b610ddf81610dc4565b82525050565b6000602082019050610dfa6000830184610dd6565b92915050565b7f4e487b7100000000000000000000000000000000000000000000000000000000600052602260045260246000fd5b60006002820490506001821680610e4757607f821691505b602082108103610e5a57610e59610e00565b5b50919050565b7f56654a6f65546f6b656e3a2043616e6e6f742072656e6f756e63652c2063616e60008201527f206f6e6c79207472616e73666572206f776e6572736869700000000000000000602082015250565b6000610ebc603883610b45565b9150610ec782610e60565b604082019050919050565b60006020820190508181036000830152610eeb81610eaf565b9050919050565b7f4f776e61626c653a206e6577206f776e657220697320746865207a65726f206160008201527f6464726573730000000000000000000000000000000000000000000000000000602082015250565b6000610f4e602683610b45565b9150610f5982610ef2565b604082019050919050565b60006020820190508181036000830152610f7d81610f41565b9050919050565b7f4f776e61626c653a2063616c6c6572206973206e6f7420746865206f776e6572600082015250565b6000610fba602083610b45565b9150610fc582610f84565b602082019050919050565b60006020820190508181036000830152610fe981610fad565b9050919050565b7f45524332303a206d696e7420746f20746865207a65726f206164647265737300600082015250565b6000611026601f83610b45565b915061103182610ff0565b602082019050919050565b6000602082019050818103600083015261105581611019565b9050919050565b7f4e487b7100000000000000000000000000000000000000000000000000000000600052601160045260246000fd5b600061109682610bf5565b91506110a183610bf5565b9250827fffffffffffffffffffffffffffffffffffffffffffffffffffffffffffffffff038211156110d6576110d561105c565b5b828201905092915050565b7f45524332303a206275726e2066726f6d20746865207a65726f2061646472657360008201527f7300000000000000000000000000000000000000000000000000000000000000602082015250565b600061113d602183610b45565b9150611148826110e1565b604082019050919050565b6000602082019050818103600083015261116c81611130565b9050919050565b7f45524332303a206275726e20616d6f756e7420657863656564732062616c616e60008201527f6365000000000000000000000000000000000000000000000000000000000000602082015250565b60006111cf602283610b45565b91506111da82611173565b604082019050919050565b600060208201905081810360008301526111fe816111c2565b9050919050565b600061121082610bf5565b915061121b83610bf5565b92508282101561122e5761122d61105c565b5b828203905092915050565b600060408201905061124e6000830185610d5c565b61125b6020830184610bff565b939250505056fea2646970667358221220faa2568d35f23360b924f4965b94b50e96f817900ba963b1228dc0b7f04ed7ed64736f6c634300080f0033",
  "devdoc": {
    "author": "Trader Joe",
    "kind": "dev",
    "methods": {
      "balanceOf(address)": {
        "details": "See {IERC20-balanceOf}."
      },
      "burnFrom(address,uint256)": {
        "details": "Destroys `_amount` tokens from `_from`. Callable only by the owner (VeJoeStaking)",
        "params": {
          "_amount": "The amount to be burned",
          "_from": "The address that will burn tokens"
        }
      },
      "decimals()": {
        "details": "Returns the number of decimals used to get its user representation. For example, if `decimals` equals `2`, a balance of `505` tokens should be displayed to a user as `5.05` (`505 / 10 ** 2`). Tokens usually opt for a value of 18, imitating the relationship between Ether and Wei. This is the value {ERC20} uses, unless this function is overridden; NOTE: This information is only used for _display_ purposes: it in no way affects any of the arithmetic of the contract, including {IERC20-balanceOf} and {IERC20-transfer}."
      },
      "mint(address,uint256)": {
        "details": "Creates `_amount` token to `_to`. Must only be called by the owner (VeJoeStaking)",
        "params": {
          "_amount": "The amount to be minted",
          "_to": "The address that will receive the mint"
        }
      },
      "name()": {
        "details": "Returns the name of the token."
      },
      "owner()": {
        "details": "Returns the address of the current owner."
      },
      "renounceOwnership()": {
        "details": "Leaves the contract without owner. It will not be possible to call `onlyOwner` functions anymore. Can only be called by the current owner. NOTE: Renouncing ownership will leave the contract without an owner, thereby removing any functionality that is only available to the owner."
      },
      "setBoostedMasterChefJoe(address)": {
        "details": "Sets the address of the master chef contract this updates",
        "params": {
          "_boostedMasterChef": "the address of BoostedMasterChefJoe"
        }
      },
      "symbol()": {
        "details": "Returns the symbol of the token, usually a shorter version of the name."
      },
      "totalSupply()": {
        "details": "See {IERC20-totalSupply}."
      },
      "transferOwnership(address)": {
        "details": "Transfers ownership of the contract to a new account (`newOwner`). Can only be called by the current owner."
      }
    },
    "title": "Vote Escrow Joe Token - veJOE",
    "version": 1
  },
  "userdoc": {
    "kind": "user",
    "methods": {
      "boostedMasterChef()": {
        "notice": "the BoostedMasterChefJoe contract"
      }
    },
    "notice": "Infinite supply, used to receive extra farming yields and voting power",
    "version": 1
  },
  "storageLayout": {
    "storage": [
      {
        "astId": 26714,
        "contract": "src-tokens/VeJoeToken.sol:VeJoeToken",
        "label": "_balances",
        "offset": 0,
        "slot": "0",
        "type": "t_mapping(t_address,t_uint256)"
      },
      {
        "astId": 26716,
        "contract": "src-tokens/VeJoeToken.sol:VeJoeToken",
        "label": "_totalSupply",
        "offset": 0,
        "slot": "1",
        "type": "t_uint256"
      },
      {
        "astId": 26718,
        "contract": "src-tokens/VeJoeToken.sol:VeJoeToken",
        "label": "_name",
        "offset": 0,
        "slot": "2",
        "type": "t_string_storage"
      },
      {
        "astId": 26720,
        "contract": "src-tokens/VeJoeToken.sol:VeJoeToken",
        "label": "_symbol",
        "offset": 0,
        "slot": "3",
        "type": "t_string_storage"
      },
      {
        "astId": 23234,
        "contract": "src-tokens/VeJoeToken.sol:VeJoeToken",
        "label": "_owner",
        "offset": 0,
        "slot": "4",
        "type": "t_address"
      },
      {
        "astId": 26960,
        "contract": "src-tokens/VeJoeToken.sol:VeJoeToken",
        "label": "boostedMasterChef",
        "offset": 0,
        "slot": "5",
        "type": "t_contract(IBoostedMasterChefJoe)26949"
      }
    ],
    "types": {
      "t_address": {
        "encoding": "inplace",
        "label": "address",
        "numberOfBytes": "20"
      },
      "t_contract(IBoostedMasterChefJoe)26949": {
        "encoding": "inplace",
        "label": "contract IBoostedMasterChefJoe",
        "numberOfBytes": "20"
      },
      "t_mapping(t_address,t_uint256)": {
        "encoding": "mapping",
        "key": "t_address",
        "label": "mapping(address => uint256)",
        "numberOfBytes": "32",
        "value": "t_uint256"
      },
      "t_string_storage": {
        "encoding": "bytes",
        "label": "string",
        "numberOfBytes": "32"
      },
      "t_uint256": {
        "encoding": "inplace",
        "label": "uint256",
        "numberOfBytes": "32"
      }
    }
  }
}