{
  "address": "0x84DD8FDFcCf29C35d9654FEBd596eFAB80F53F04",
  "abi": [
    {
      "inputs": [
        {
          "internalType": "address",
          "name": "_feeToSetter",
          "type": "address"
        }
      ],
      "stateMutability": "nonpayable",
      "type": "constructor"
    },
    {
      "anonymous": false,
      "inputs": [
        {
          "indexed": true,
          "internalType": "address",
          "name": "token0",
          "type": "address"
        },
        {
          "indexed": true,
          "internalType": "address",
          "name": "token1",
          "type": "address"
        },
        {
          "indexed": false,
          "internalType": "address",
          "name": "pair",
          "type": "address"
        },
        {
          "indexed": false,
          "internalType": "uint256",
          "name": "",
          "type": "uint256"
        }
      ],
      "name": "PairCreated",
      "type": "event"
    },
    {
      "inputs": [
        {
          "internalType": "uint256",
          "name": "",
          "type": "uint256"
        }
      ],
      "name": "allPairs",
      "outputs": [
        {
          "internalType": "address",
          "name": "",
          "type": "address"
        }
      ],
      "stateMutability": "view",
      "type": "function"
    },
    {
      "inputs": [],
      "name": "allPairsLength",
      "outputs": [
        {
          "internalType": "uint256",
          "name": "",
          "type": "uint256"
        }
      ],
      "stateMutability": "view",
      "type": "function"
    },
    {
      "inputs": [
        {
          "internalType": "address",
          "name": "tokenA",
          "type": "address"
        },
        {
          "internalType": "address",
          "name": "tokenB",
          "type": "address"
        }
      ],
      "name": "createPair",
      "outputs": [
        {
          "internalType": "address",
          "name": "pair",
          "type": "address"
        }
      ],
      "stateMutability": "nonpayable",
      "type": "function"
    },
    {
      "inputs": [],
      "name": "feeTo",
      "outputs": [
        {
          "internalType": "address",
          "name": "",
          "type": "address"
        }
      ],
      "stateMutability": "view",
      "type": "function"
    },
    {
      "inputs": [],
      "name": "feeToSetter",
      "outputs": [
        {
          "internalType": "address",
          "name": "",
          "type": "address"
        }
      ],
      "stateMutability": "view",
      "type": "function"
    },
    {
      "inputs": [
        {
          "internalType": "address",
          "name": "",
          "type": "address"
        },
        {
          "internalType": "address",
          "name": "",
          "type": "address"
        }
      ],
      "name": "getPair",
      "outputs": [
        {
          "internalType": "address",
          "name": "",
          "type": "address"
        }
      ],
      "stateMutability": "view",
      "type": "function"
    },
    {
      "inputs": [],
      "name": "migrator",
      "outputs": [
        {
          "internalType": "address",
          "name": "",
          "type": "address"
        }
      ],
      "stateMutability": "view",
      "type": "function"
    },
    {
      "inputs": [],
      "name": "pairCodeHash",
      "outputs": [
        {
          "internalType": "bytes32",
          "name": "",
          "type": "bytes32"
        }
      ],
      "stateMutability": "pure",
      "type": "function"
    },
    {
      "inputs": [
        {
          "internalType": "address",
          "name": "_feeTo",
          "type": "address"
        }
      ],
      "name": "setFeeTo",
      "outputs": [],
      "stateMutability": "nonpayable",
      "type": "function"
    },
    {
      "inputs": [
        {
          "internalType": "address",
          "name": "_feeToSetter",
          "type": "address"
        }
      ],
      "name": "setFeeToSetter",
      "outputs": [],
      "stateMutability": "nonpayable",
      "type": "function"
    },
    {
      "inputs": [
        {
          "internalType": "address",
          "name": "_migrator",
          "type": "address"
        }
      ],
      "name": "setMigrator",
      "outputs": [],
      "stateMutability": "nonpayable",
      "type": "function"
    }
  ],
  "transactionHash": "0x4844759a4151dff62637fa9d183cbec5317801f201179baa4ce017370b392f16",
  "args": [
    "0x42C930A33280a7218bc924732d67dd84D6247Af4"
  ],
  "numDeployments": 6,
  "solcInputHash": "c67be878e58a861bae8ac06ebff81f10",
  "bytecode": "0x608060405234801561001057600080fd5b50604051614bb3380380614bb38339818101604052602081101561003357600080fd5b810190808051906020019092919050505080600160006101000a81548173ffffffffffffffffffffffffffffffffffffffff021916908373ffffffffffffffffffffffffffffffffffffffff16021790555050614b1e806100956000396000f3fe608060405234801561001057600080fd5b50600436106100a95760003560e01c80637cd07e47116100715780637cd07e47146101d05780639aab924814610204578063a2e74af614610222578063c9c6539614610266578063e6a43905146102f4578063f46901ed14610382576100a9565b8063017e7e58146100ae578063094b7415146100e25780631e3dd18b1461011657806323cf31181461016e578063574f2ba3146101b2575b600080fd5b6100b66103c6565b604051808273ffffffffffffffffffffffffffffffffffffffff16815260200191505060405180910390f35b6100ea6103ea565b604051808273ffffffffffffffffffffffffffffffffffffffff16815260200191505060405180910390f35b6101426004803603602081101561012c57600080fd5b8101908080359060200190929190505050610410565b604051808273ffffffffffffffffffffffffffffffffffffffff16815260200191505060405180910390f35b6101b06004803603602081101561018457600080fd5b81019080803573ffffffffffffffffffffffffffffffffffffffff16906020019092919050505061044c565b005b6101ba610553565b6040518082815260200191505060405180910390f35b6101d8610560565b604051808273ffffffffffffffffffffffffffffffffffffffff16815260200191505060405180910390f35b61020c610586565b6040518082815260200191505060405180910390f35b6102646004803603602081101561023857600080fd5b81019080803573ffffffffffffffffffffffffffffffffffffffff1690602001909291905050506105b8565b005b6102c86004803603604081101561027c57600080fd5b81019080803573ffffffffffffffffffffffffffffffffffffffff169060200190929190803573ffffffffffffffffffffffffffffffffffffffff1690602001909291905050506106bf565b604051808273ffffffffffffffffffffffffffffffffffffffff16815260200191505060405180910390f35b6103566004803603604081101561030a57600080fd5b81019080803573ffffffffffffffffffffffffffffffffffffffff169060200190929190803573ffffffffffffffffffffffffffffffffffffffff169060200190929190505050610d2b565b604051808273ffffffffffffffffffffffffffffffffffffffff16815260200191505060405180910390f35b6103c46004803603602081101561039857600080fd5b81019080803573ffffffffffffffffffffffffffffffffffffffff169060200190929190505050610d6d565b005b60008054906101000a900473ffffffffffffffffffffffffffffffffffffffff1681565b600160009054906101000a900473ffffffffffffffffffffffffffffffffffffffff1681565b6004818154811061041d57fe5b906000526020600020016000915054906101000a900473ffffffffffffffffffffffffffffffffffffffff1681565b600160009054906101000a900473ffffffffffffffffffffffffffffffffffffffff1673ffffffffffffffffffffffffffffffffffffffff163373ffffffffffffffffffffffffffffffffffffffff161461050f576040517f08c379a000000000000000000000000000000000000000000000000000000000815260040180806020018281038252600e8152602001807f4a6f653a20464f5242494444454e00000000000000000000000000000000000081525060200191505060405180910390fd5b80600260006101000a81548173ffffffffffffffffffffffffffffffffffffffff021916908373ffffffffffffffffffffffffffffffffffffffff16021790555050565b6000600480549050905090565b600260009054906101000a900473ffffffffffffffffffffffffffffffffffffffff1681565b60006040518060200161059890610e73565b6020820181038252601f19601f8201166040525080519060200120905090565b600160009054906101000a900473ffffffffffffffffffffffffffffffffffffffff1673ffffffffffffffffffffffffffffffffffffffff163373ffffffffffffffffffffffffffffffffffffffff161461067b576040517f08c379a000000000000000000000000000000000000000000000000000000000815260040180806020018281038252600e8152602001807f4a6f653a20464f5242494444454e00000000000000000000000000000000000081525060200191505060405180910390fd5b80600160006101000a81548173ffffffffffffffffffffffffffffffffffffffff021916908373ffffffffffffffffffffffffffffffffffffffff16021790555050565b60008173ffffffffffffffffffffffffffffffffffffffff168373ffffffffffffffffffffffffffffffffffffffff161415610763576040517f08c379a00000000000000000000000000000000000000000000000000000000081526004018080602001828103825260188152602001807f4a6f653a204944454e544943414c5f414444524553534553000000000000000081525060200191505060405180910390fd5b6000808373ffffffffffffffffffffffffffffffffffffffff168573ffffffffffffffffffffffffffffffffffffffff16106107a05783856107a3565b84845b91509150600073ffffffffffffffffffffffffffffffffffffffff168273ffffffffffffffffffffffffffffffffffffffff16141561084a576040517f08c379a00000000000000000000000000000000000000000000000000000000081526004018080602001828103825260118152602001807f4a6f653a205a45524f5f4144445245535300000000000000000000000000000081525060200191505060405180910390fd5b600073ffffffffffffffffffffffffffffffffffffffff16600360008473ffffffffffffffffffffffffffffffffffffffff1673ffffffffffffffffffffffffffffffffffffffff16815260200190815260200160002060008373ffffffffffffffffffffffffffffffffffffffff1673ffffffffffffffffffffffffffffffffffffffff16815260200190815260200160002060009054906101000a900473ffffffffffffffffffffffffffffffffffffffff1673ffffffffffffffffffffffffffffffffffffffff1614610988576040517f08c379a00000000000000000000000000000000000000000000000000000000081526004018080602001828103825260108152602001807f4a6f653a20504149525f4558495354530000000000000000000000000000000081525060200191505060405180910390fd5b60606040518060200161099a90610e73565b6020820181038252601f19601f82011660405250905060008383604051602001808373ffffffffffffffffffffffffffffffffffffffff1660601b81526014018273ffffffffffffffffffffffffffffffffffffffff1660601b815260140192505050604051602081830303815290604052805190602001209050808251602084016000f594508473ffffffffffffffffffffffffffffffffffffffff1663485cc95585856040518363ffffffff1660e01b8152600401808373ffffffffffffffffffffffffffffffffffffffff1681526020018273ffffffffffffffffffffffffffffffffffffffff16815260200192505050600060405180830381600087803b158015610aa857600080fd5b505af1158015610abc573d6000803e3d6000fd5b5050505084600360008673ffffffffffffffffffffffffffffffffffffffff1673ffffffffffffffffffffffffffffffffffffffff16815260200190815260200160002060008573ffffffffffffffffffffffffffffffffffffffff1673ffffffffffffffffffffffffffffffffffffffff16815260200190815260200160002060006101000a81548173ffffffffffffffffffffffffffffffffffffffff021916908373ffffffffffffffffffffffffffffffffffffffff16021790555084600360008573ffffffffffffffffffffffffffffffffffffffff1673ffffffffffffffffffffffffffffffffffffffff16815260200190815260200160002060008673ffffffffffffffffffffffffffffffffffffffff1673ffffffffffffffffffffffffffffffffffffffff16815260200190815260200160002060006101000a81548173ffffffffffffffffffffffffffffffffffffffff021916908373ffffffffffffffffffffffffffffffffffffffff1602179055506004859080600181540180825580915050600190039060005260206000200160009091909190916101000a81548173ffffffffffffffffffffffffffffffffffffffff021916908373ffffffffffffffffffffffffffffffffffffffff1602179055508273ffffffffffffffffffffffffffffffffffffffff168473ffffffffffffffffffffffffffffffffffffffff167f0d3648bd0f6ba80134a33ba9275ac585d9d315f0ad8355cddefde31afa28d0e987600480549050604051808373ffffffffffffffffffffffffffffffffffffffff1681526020018281526020019250505060405180910390a35050505092915050565b60036020528160005260406000206020528060005260406000206000915091509054906101000a900473ffffffffffffffffffffffffffffffffffffffff1681565b600160009054906101000a900473ffffffffffffffffffffffffffffffffffffffff1673ffffffffffffffffffffffffffffffffffffffff163373ffffffffffffffffffffffffffffffffffffffff1614610e30576040517f08c379a000000000000000000000000000000000000000000000000000000000815260040180806020018281038252600e8152602001807f4a6f653a20464f5242494444454e00000000000000000000000000000000000081525060200191505060405180910390fd5b806000806101000a81548173ffffffffffffffffffffffffffffffffffffffff021916908373ffffffffffffffffffffffffffffffffffffffff16021790555050565b613c6880610e818339019056fe60806040526001600c5534801561001557600080fd5b5060004690507f8b73c3c69bb8fe3d512ecc4cf759cc79239f7b179b0ffacaa9a75d522b39400f6040518060400160405280600c81526020017f4a6f65204c5020546f6b656e0000000000000000000000000000000000000000815250805190602001206040518060400160405280600181526020017f3100000000000000000000000000000000000000000000000000000000000000815250805190602001208330604051602001808681526020018581526020018481526020018381526020018273ffffffffffffffffffffffffffffffffffffffff16815260200195505050505050604051602081830303815290604052805190602001206003819055505033600560006101000a81548173ffffffffffffffffffffffffffffffffffffffff021916908373ffffffffffffffffffffffffffffffffffffffff160217905550613b01806101676000396000f3fe608060405234801561001057600080fd5b50600436106101a95760003560e01c80636a627842116100f9578063ba9a7a5611610097578063d21220a711610071578063d21220a714610869578063d505accf1461089d578063dd62ed3e14610936578063fff6cae9146109ae576101a9565b8063ba9a7a56146107d3578063bc25cf77146107f1578063c45a015514610835576101a9565b80637ecebe00116100d35780637ecebe001461063557806389afcb441461068d57806395d89b41146106ec578063a9059cbb1461076f576101a9565b80636a6278421461056757806370a08231146105bf5780637464fc3d14610617576101a9565b806323b872dd116101665780633644e515116101405780633644e515146104a9578063485cc955146104c75780635909c0d51461052b5780635a3d549314610549576101a9565b806323b872dd146103e657806330adf81f1461046a578063313ce56714610488576101a9565b8063022c0d9f146101ae57806306fdde031461025b5780630902f1ac146102de578063095ea7b3146103305780630dfe16811461039457806318160ddd146103c8575b600080fd5b610259600480360360808110156101c457600080fd5b810190808035906020019092919080359060200190929190803573ffffffffffffffffffffffffffffffffffffffff1690602001909291908035906020019064010000000081111561021557600080fd5b82018360208201111561022757600080fd5b8035906020019184600183028401116401000000008311171561024957600080fd5b90919293919293905050506109b8565b005b6102636111ba565b6040518080602001828103825283818151815260200191508051906020019080838360005b838110156102a3578082015181840152602081019050610288565b50505050905090810190601f1680156102d05780820380516001836020036101000a031916815260200191505b509250505060405180910390f35b6102e66111f3565b60405180846dffffffffffffffffffffffffffff168152602001836dffffffffffffffffffffffffffff1681526020018263ffffffff168152602001935050505060405180910390f35b61037c6004803603604081101561034657600080fd5b81019080803573ffffffffffffffffffffffffffffffffffffffff16906020019092919080359060200190929190505050611250565b60405180821515815260200191505060405180910390f35b61039c611267565b604051808273ffffffffffffffffffffffffffffffffffffffff16815260200191505060405180910390f35b6103d061128d565b6040518082815260200191505060405180910390f35b610452600480360360608110156103fc57600080fd5b81019080803573ffffffffffffffffffffffffffffffffffffffff169060200190929190803573ffffffffffffffffffffffffffffffffffffffff16906020019092919080359060200190929190505050611293565b60405180821515815260200191505060405180910390f35b61047261145e565b6040518082815260200191505060405180910390f35b610490611485565b604051808260ff16815260200191505060405180910390f35b6104b161148a565b6040518082815260200191505060405180910390f35b610529600480360360408110156104dd57600080fd5b81019080803573ffffffffffffffffffffffffffffffffffffffff169060200190929190803573ffffffffffffffffffffffffffffffffffffffff169060200190929190505050611490565b005b6105336115d9565b6040518082815260200191505060405180910390f35b6105516115df565b6040518082815260200191505060405180910390f35b6105a96004803603602081101561057d57600080fd5b81019080803573ffffffffffffffffffffffffffffffffffffffff1690602001909291905050506115e5565b6040518082815260200191505060405180910390f35b610601600480360360208110156105d557600080fd5b81019080803573ffffffffffffffffffffffffffffffffffffffff169060200190929190505050611d13565b6040518082815260200191505060405180910390f35b61061f611d2b565b6040518082815260200191505060405180910390f35b6106776004803603602081101561064b57600080fd5b81019080803573ffffffffffffffffffffffffffffffffffffffff169060200190929190505050611d31565b6040518082815260200191505060405180910390f35b6106cf600480360360208110156106a357600080fd5b81019080803573ffffffffffffffffffffffffffffffffffffffff169060200190929190505050611d49565b604051808381526020018281526020019250505060405180910390f35b6106f46122de565b6040518080602001828103825283818151815260200191508051906020019080838360005b83811015610734578082015181840152602081019050610719565b50505050905090810190601f1680156107615780820380516001836020036101000a031916815260200191505b509250505060405180910390f35b6107bb6004803603604081101561078557600080fd5b81019080803573ffffffffffffffffffffffffffffffffffffffff16906020019092919080359060200190929190505050612317565b60405180821515815260200191505060405180910390f35b6107db61232e565b6040518082815260200191505060405180910390f35b6108336004803603602081101561080757600080fd5b81019080803573ffffffffffffffffffffffffffffffffffffffff169060200190929190505050612334565b005b61083d6125e3565b604051808273ffffffffffffffffffffffffffffffffffffffff16815260200191505060405180910390f35b610871612609565b604051808273ffffffffffffffffffffffffffffffffffffffff16815260200191505060405180910390f35b610934600480360360e08110156108b357600080fd5b81019080803573ffffffffffffffffffffffffffffffffffffffff169060200190929190803573ffffffffffffffffffffffffffffffffffffffff1690602001909291908035906020019092919080359060200190929190803560ff169060200190929190803590602001909291908035906020019092919050505061262f565b005b6109986004803603604081101561094c57600080fd5b81019080803573ffffffffffffffffffffffffffffffffffffffff169060200190929190803573ffffffffffffffffffffffffffffffffffffffff169060200190929190505050612944565b6040518082815260200191505060405180910390f35b6109b6612969565b005b6001600c5414610a30576040517f08c379a000000000000000000000000000000000000000000000000000000000815260040180806020018281038252600b8152602001807f4a6f653a204c4f434b454400000000000000000000000000000000000000000081525060200191505060405180910390fd5b6000600c819055506000851180610a475750600084115b610ab9576040517f08c379a000000000000000000000000000000000000000000000000000000000815260040180806020018281038252601f8152602001807f4a6f653a20494e53554646494349454e545f4f55545055545f414d4f554e540081525060200191505060405180910390fd5b600080610ac46111f3565b5091509150816dffffffffffffffffffffffffffff1687108015610af75750806dffffffffffffffffffffffffffff1686105b610b69576040517f08c379a000000000000000000000000000000000000000000000000000000000815260040180806020018281038252601b8152602001807f4a6f653a20494e53554646494349454e545f4c4951554944495459000000000081525060200191505060405180910390fd5b6000806000600660009054906101000a900473ffffffffffffffffffffffffffffffffffffffff1690506000600760009054906101000a900473ffffffffffffffffffffffffffffffffffffffff1690508173ffffffffffffffffffffffffffffffffffffffff168973ffffffffffffffffffffffffffffffffffffffff1614158015610c2257508073ffffffffffffffffffffffffffffffffffffffff168973ffffffffffffffffffffffffffffffffffffffff1614155b610c94576040517f08c379a000000000000000000000000000000000000000000000000000000000815260040180806020018281038252600f8152602001807f4a6f653a20494e56414c49445f544f000000000000000000000000000000000081525060200191505060405180910390fd5b60008b1115610ca957610ca8828a8d612bbd565b5b60008a1115610cbe57610cbd818a8c612bbd565b5b6000888890501115610d90578873ffffffffffffffffffffffffffffffffffffffff1663ee22dd87338d8d8c8c6040518663ffffffff1660e01b8152600401808673ffffffffffffffffffffffffffffffffffffffff168152602001858152602001848152602001806020018281038252848482818152602001925080828437600081840152601f19601f8201169050808301925050509650505050505050600060405180830381600087803b158015610d7757600080fd5b505af1158015610d8b573d6000803e3d6000fd5b505050505b8173ffffffffffffffffffffffffffffffffffffffff166370a08231306040518263ffffffff1660e01b8152600401808273ffffffffffffffffffffffffffffffffffffffff16815260200191505060206040518083038186803b158015610df757600080fd5b505afa158015610e0b573d6000803e3d6000fd5b505050506040513d6020811015610e2157600080fd5b810190808051906020019092919050505093508073ffffffffffffffffffffffffffffffffffffffff166370a08231306040518263ffffffff1660e01b8152600401808273ffffffffffffffffffffffffffffffffffffffff16815260200191505060206040518083038186803b158015610e9b57600080fd5b505afa158015610eaf573d6000803e3d6000fd5b505050506040513d6020811015610ec557600080fd5b810190808051906020019092919050505092505050600089856dffffffffffffffffffffffffffff16038311610efc576000610f12565b89856dffffffffffffffffffffffffffff160383035b9050600089856dffffffffffffffffffffffffffff16038311610f36576000610f4c565b89856dffffffffffffffffffffffffffff160383035b90506000821180610f5d5750600081115b610fcf576040517f08c379a000000000000000000000000000000000000000000000000000000000815260040180806020018281038252601e8152602001807f4a6f653a20494e53554646494349454e545f494e5055545f414d4f554e54000081525060200191505060405180910390fd5b600061100b610fe8600385612df490919063ffffffff16565b610ffd6103e888612df490919063ffffffff16565b612e8990919063ffffffff16565b90506000611049611026600385612df490919063ffffffff16565b61103b6103e888612df490919063ffffffff16565b612e8990919063ffffffff16565b9050611093620f4240611085896dffffffffffffffffffffffffffff168b6dffffffffffffffffffffffffffff16612df490919063ffffffff16565b612df490919063ffffffff16565b6110a68284612df490919063ffffffff16565b101561111a576040517f08c379a00000000000000000000000000000000000000000000000000000000081526004018080602001828103825260068152602001807f4a6f653a204b000000000000000000000000000000000000000000000000000081525060200191505060405180910390fd5b505061112884848888612f0c565b8873ffffffffffffffffffffffffffffffffffffffff163373ffffffffffffffffffffffffffffffffffffffff167fd78ad95fa46c994b6551d0da85fc275fe613ce37657fb8d5e3d130840159d82284848f8f6040518085815260200184815260200183815260200182815260200194505050505060405180910390a35050505050506001600c819055505050505050565b6040518060400160405280600c81526020017f4a6f65204c5020546f6b656e000000000000000000000000000000000000000081525081565b6000806000600860009054906101000a90046dffffffffffffffffffffffffffff1692506008600e9054906101000a90046dffffffffffffffffffffffffffff1691506008601c9054906101000a900463ffffffff169050909192565b600061125d33848461326a565b6001905092915050565b600660009054906101000a900473ffffffffffffffffffffffffffffffffffffffff1681565b60005481565b60007fffffffffffffffffffffffffffffffffffffffffffffffffffffffffffffffff600260008673ffffffffffffffffffffffffffffffffffffffff1673ffffffffffffffffffffffffffffffffffffffff16815260200190815260200160002060003373ffffffffffffffffffffffffffffffffffffffff1673ffffffffffffffffffffffffffffffffffffffff1681526020019081526020016000205414611448576113c782600260008773ffffffffffffffffffffffffffffffffffffffff1673ffffffffffffffffffffffffffffffffffffffff16815260200190815260200160002060003373ffffffffffffffffffffffffffffffffffffffff1673ffffffffffffffffffffffffffffffffffffffff16815260200190815260200160002054612e8990919063ffffffff16565b600260008673ffffffffffffffffffffffffffffffffffffffff1673ffffffffffffffffffffffffffffffffffffffff16815260200190815260200160002060003373ffffffffffffffffffffffffffffffffffffffff1673ffffffffffffffffffffffffffffffffffffffff168152602001908152602001600020819055505b611453848484613355565b600190509392505050565b7f6e71edae12b1b97f4d1f60370fef10105fa2faae0126114a169c64845d6126c960001b81565b601281565b60035481565b600560009054906101000a900473ffffffffffffffffffffffffffffffffffffffff1673ffffffffffffffffffffffffffffffffffffffff163373ffffffffffffffffffffffffffffffffffffffff1614611553576040517f08c379a000000000000000000000000000000000000000000000000000000000815260040180806020018281038252600e8152602001807f4a6f653a20464f5242494444454e00000000000000000000000000000000000081525060200191505060405180910390fd5b81600660006101000a81548173ffffffffffffffffffffffffffffffffffffffff021916908373ffffffffffffffffffffffffffffffffffffffff16021790555080600760006101000a81548173ffffffffffffffffffffffffffffffffffffffff021916908373ffffffffffffffffffffffffffffffffffffffff1602179055505050565b60095481565b600a5481565b60006001600c541461165f576040517f08c379a000000000000000000000000000000000000000000000000000000000815260040180806020018281038252600b8152602001807f4a6f653a204c4f434b454400000000000000000000000000000000000000000081525060200191505060405180910390fd5b6000600c819055506000806116726111f3565b50915091506000600660009054906101000a900473ffffffffffffffffffffffffffffffffffffffff1673ffffffffffffffffffffffffffffffffffffffff166370a08231306040518263ffffffff1660e01b8152600401808273ffffffffffffffffffffffffffffffffffffffff16815260200191505060206040518083038186803b15801561170257600080fd5b505afa158015611716573d6000803e3d6000fd5b505050506040513d602081101561172c57600080fd5b810190808051906020019092919050505090506000600760009054906101000a900473ffffffffffffffffffffffffffffffffffffffff1673ffffffffffffffffffffffffffffffffffffffff166370a08231306040518263ffffffff1660e01b8152600401808273ffffffffffffffffffffffffffffffffffffffff16815260200191505060206040518083038186803b1580156117ca57600080fd5b505afa1580156117de573d6000803e3d6000fd5b505050506040513d60208110156117f457600080fd5b81019080805190602001909291905050509050600061182c856dffffffffffffffffffffffffffff1684612e8990919063ffffffff16565b90506000611853856dffffffffffffffffffffffffffff1684612e8990919063ffffffff16565b9050600061186187876134e9565b90506000805490506000811415611b5e576000600560009054906101000a900473ffffffffffffffffffffffffffffffffffffffff1673ffffffffffffffffffffffffffffffffffffffff16637cd07e476040518163ffffffff1660e01b815260040160206040518083038186803b1580156118dc57600080fd5b505afa1580156118f0573d6000803e3d6000fd5b505050506040513d602081101561190657600080fd5b810190808051906020019092919050505090508073ffffffffffffffffffffffffffffffffffffffff163373ffffffffffffffffffffffffffffffffffffffff161415611a77578073ffffffffffffffffffffffffffffffffffffffff166340dc0e376040518163ffffffff1660e01b815260040160206040518083038186803b15801561199357600080fd5b505afa1580156119a7573d6000803e3d6000fd5b505050506040513d60208110156119bd57600080fd5b8101908080519060200190929190505050995060008a118015611a0057507fffffffffffffffffffffffffffffffffffffffffffffffffffffffffffffffff8a14155b611a72576040517f08c379a00000000000000000000000000000000000000000000000000000000081526004018080602001828103825260158152602001807f4261642064657369726564206c6971756964697479000000000000000000000081525060200191505060405180910390fd5b611b58565b600073ffffffffffffffffffffffffffffffffffffffff168173ffffffffffffffffffffffffffffffffffffffff1614611b19576040517f08c379a00000000000000000000000000000000000000000000000000000000081526004018080602001828103825260168152602001807f4d757374206e6f742068617665206d69677261746f720000000000000000000081525060200191505060405180910390fd5b611b486103e8611b3a611b358789612df490919063ffffffff16565b6136ca565b612e8990919063ffffffff16565b9950611b5760006103e861372c565b5b50611bc1565b611bbe886dffffffffffffffffffffffffffff16611b858387612df490919063ffffffff16565b81611b8c57fe5b04886dffffffffffffffffffffffffffff16611bb18487612df490919063ffffffff16565b81611bb857fe5b04613846565b98505b60008911611c1a576040517f08c379a0000000000000000000000000000000000000000000000000000000008152600401808060200182810382526022815260200180613aaa6022913960400191505060405180910390fd5b611c248a8a61372c565b611c3086868a8a612f0c565b8115611ca857611ca16008600e9054906101000a90046dffffffffffffffffffffffffffff166dffffffffffffffffffffffffffff16600860009054906101000a90046dffffffffffffffffffffffffffff166dffffffffffffffffffffffffffff16612df490919063ffffffff16565b600b819055505b3373ffffffffffffffffffffffffffffffffffffffff167f4c209b5fc8ad50758f13e2e1088ba56a560dff690a1c6fef26394f4c03821c4f8585604051808381526020018281526020019250505060405180910390a250505050505050506001600c81905550919050565b60016020528060005260406000206000915090505481565b600b5481565b60046020528060005260406000206000915090505481565b6000806001600c5414611dc4576040517f08c379a000000000000000000000000000000000000000000000000000000000815260040180806020018281038252600b8152602001807f4a6f653a204c4f434b454400000000000000000000000000000000000000000081525060200191505060405180910390fd5b6000600c81905550600080611dd76111f3565b50915091506000600660009054906101000a900473ffffffffffffffffffffffffffffffffffffffff1690506000600760009054906101000a900473ffffffffffffffffffffffffffffffffffffffff16905060008273ffffffffffffffffffffffffffffffffffffffff166370a08231306040518263ffffffff1660e01b8152600401808273ffffffffffffffffffffffffffffffffffffffff16815260200191505060206040518083038186803b158015611e9357600080fd5b505afa158015611ea7573d6000803e3d6000fd5b505050506040513d6020811015611ebd57600080fd5b8101908080519060200190929190505050905060008273ffffffffffffffffffffffffffffffffffffffff166370a08231306040518263ffffffff1660e01b8152600401808273ffffffffffffffffffffffffffffffffffffffff16815260200191505060206040518083038186803b158015611f3957600080fd5b505afa158015611f4d573d6000803e3d6000fd5b505050506040513d6020811015611f6357600080fd5b810190808051906020019092919050505090506000600160003073ffffffffffffffffffffffffffffffffffffffff1673ffffffffffffffffffffffffffffffffffffffff1681526020019081526020016000205490506000611fc688886134e9565b905060008054905080611fe28685612df490919063ffffffff16565b81611fe957fe5b049a50806120008585612df490919063ffffffff16565b8161200757fe5b04995060008b11801561201a575060008a115b61206f576040517f08c379a0000000000000000000000000000000000000000000000000000000008152600401808060200182810382526022815260200180613a886022913960400191505060405180910390fd5b612079308461385f565b612084878d8d612bbd565b61208f868d8c612bbd565b8673ffffffffffffffffffffffffffffffffffffffff166370a08231306040518263ffffffff1660e01b8152600401808273ffffffffffffffffffffffffffffffffffffffff16815260200191505060206040518083038186803b1580156120f657600080fd5b505afa15801561210a573d6000803e3d6000fd5b505050506040513d602081101561212057600080fd5b810190808051906020019092919050505094508573ffffffffffffffffffffffffffffffffffffffff166370a08231306040518263ffffffff1660e01b8152600401808273ffffffffffffffffffffffffffffffffffffffff16815260200191505060206040518083038186803b15801561219a57600080fd5b505afa1580156121ae573d6000803e3d6000fd5b505050506040513d60208110156121c457600080fd5b810190808051906020019092919050505093506121e385858b8b612f0c565b811561225b576122546008600e9054906101000a90046dffffffffffffffffffffffffffff166dffffffffffffffffffffffffffff16600860009054906101000a90046dffffffffffffffffffffffffffff166dffffffffffffffffffffffffffff16612df490919063ffffffff16565b600b819055505b8b73ffffffffffffffffffffffffffffffffffffffff163373ffffffffffffffffffffffffffffffffffffffff167fdccd412f0b1252819cb1fd330b93224ca42612892bb3f4f789976e6d819364968d8d604051808381526020018281526020019250505060405180910390a35050505050505050506001600c81905550915091565b6040518060400160405280600381526020017f4a4c50000000000000000000000000000000000000000000000000000000000081525081565b6000612324338484613355565b6001905092915050565b6103e881565b6001600c54146123ac576040517f08c379a000000000000000000000000000000000000000000000000000000000815260040180806020018281038252600b8152602001807f4a6f653a204c4f434b454400000000000000000000000000000000000000000081525060200191505060405180910390fd5b6000600c819055506000600660009054906101000a900473ffffffffffffffffffffffffffffffffffffffff1690506000600760009054906101000a900473ffffffffffffffffffffffffffffffffffffffff1690506124ec82846124e7600860009054906101000a90046dffffffffffffffffffffffffffff166dffffffffffffffffffffffffffff168673ffffffffffffffffffffffffffffffffffffffff166370a08231306040518263ffffffff1660e01b8152600401808273ffffffffffffffffffffffffffffffffffffffff16815260200191505060206040518083038186803b15801561249e57600080fd5b505afa1580156124b2573d6000803e3d6000fd5b505050506040513d60208110156124c857600080fd5b8101908080519060200190929190505050612e8990919063ffffffff16565b612bbd565b6125d681846125d16008600e9054906101000a90046dffffffffffffffffffffffffffff166dffffffffffffffffffffffffffff168573ffffffffffffffffffffffffffffffffffffffff166370a08231306040518263ffffffff1660e01b8152600401808273ffffffffffffffffffffffffffffffffffffffff16815260200191505060206040518083038186803b15801561258857600080fd5b505afa15801561259c573d6000803e3d6000fd5b505050506040513d60208110156125b257600080fd5b8101908080519060200190929190505050612e8990919063ffffffff16565b612bbd565b50506001600c8190555050565b600560009054906101000a900473ffffffffffffffffffffffffffffffffffffffff1681565b600760009054906101000a900473ffffffffffffffffffffffffffffffffffffffff1681565b428410156126a5576040517f08c379a000000000000000000000000000000000000000000000000000000000815260040180806020018281038252600c8152602001807f4a6f653a2045585049524544000000000000000000000000000000000000000081525060200191505060405180910390fd5b60006003547f6e71edae12b1b97f4d1f60370fef10105fa2faae0126114a169c64845d6126c960001b898989600460008e73ffffffffffffffffffffffffffffffffffffffff1673ffffffffffffffffffffffffffffffffffffffff1681526020019081526020016000206000815480929190600101919050558a604051602001808781526020018673ffffffffffffffffffffffffffffffffffffffff1681526020018573ffffffffffffffffffffffffffffffffffffffff16815260200184815260200183815260200182815260200196505050505050506040516020818303038152906040528051906020012060405160200180807f190100000000000000000000000000000000000000000000000000000000000081525060020183815260200182815260200192505050604051602081830303815290604052805190602001209050600060018286868660405160008152602001604052604051808581526020018460ff1681526020018381526020018281526020019450505050506020604051602081039080840390855afa158015612848573d6000803e3d6000fd5b505050602060405103519050600073ffffffffffffffffffffffffffffffffffffffff168173ffffffffffffffffffffffffffffffffffffffff16141580156128bc57508873ffffffffffffffffffffffffffffffffffffffff168173ffffffffffffffffffffffffffffffffffffffff16145b61292e576040517f08c379a00000000000000000000000000000000000000000000000000000000081526004018080602001828103825260168152602001807f4a6f653a20494e56414c49445f5349474e41545552450000000000000000000081525060200191505060405180910390fd5b61293989898961326a565b505050505050505050565b6002602052816000526040600020602052806000526040600020600091509150505481565b6001600c54146129e1576040517f08c379a000000000000000000000000000000000000000000000000000000000815260040180806020018281038252600b8152602001807f4a6f653a204c4f434b454400000000000000000000000000000000000000000081525060200191505060405180910390fd5b6000600c81905550612bb3600660009054906101000a900473ffffffffffffffffffffffffffffffffffffffff1673ffffffffffffffffffffffffffffffffffffffff166370a08231306040518263ffffffff1660e01b8152600401808273ffffffffffffffffffffffffffffffffffffffff16815260200191505060206040518083038186803b158015612a7557600080fd5b505afa158015612a89573d6000803e3d6000fd5b505050506040513d6020811015612a9f57600080fd5b8101908080519060200190929190505050600760009054906101000a900473ffffffffffffffffffffffffffffffffffffffff1673ffffffffffffffffffffffffffffffffffffffff166370a08231306040518263ffffffff1660e01b8152600401808273ffffffffffffffffffffffffffffffffffffffff16815260200191505060206040518083038186803b158015612b3957600080fd5b505afa158015612b4d573d6000803e3d6000fd5b505050506040513d6020811015612b6357600080fd5b8101908080519060200190929190505050600860009054906101000a90046dffffffffffffffffffffffffffff166008600e9054906101000a90046dffffffffffffffffffffffffffff16612f0c565b6001600c81905550565b600060608473ffffffffffffffffffffffffffffffffffffffff166040518060400160405280601981526020017f7472616e7366657228616464726573732c75696e743235362900000000000000815250805190602001208585604051602401808373ffffffffffffffffffffffffffffffffffffffff16815260200182815260200192505050604051602081830303815290604052907bffffffffffffffffffffffffffffffffffffffffffffffffffffffff19166020820180517bffffffffffffffffffffffffffffffffffffffffffffffffffffffff83818316178352505050506040518082805190602001908083835b60208310612cd45780518252602082019150602081019050602083039250612cb1565b6001836020036101000a0380198251168184511680821785525050505050509050019150506000604051808303816000865af19150503d8060008114612d36576040519150601f19603f3d011682016040523d82523d6000602084013e612d3b565b606091505b5091509150818015612d7b5750600081511480612d7a5750808060200190516020811015612d6857600080fd5b81019080805190602001909291905050505b5b612ded576040517f08c379a00000000000000000000000000000000000000000000000000000000081526004018080602001828103825260148152602001807f4a6f653a205452414e534645525f4641494c454400000000000000000000000081525060200191505060405180910390fd5b5050505050565b600080821480612e115750828283850292508281612e0e57fe5b04145b612e83576040517f08c379a00000000000000000000000000000000000000000000000000000000081526004018080602001828103825260148152602001807f64732d6d6174682d6d756c2d6f766572666c6f7700000000000000000000000081525060200191505060405180910390fd5b92915050565b6000828284039150811115612f06576040517f08c379a00000000000000000000000000000000000000000000000000000000081526004018080602001828103825260158152602001807f64732d6d6174682d7375622d756e646572666c6f77000000000000000000000081525060200191505060405180910390fd5b92915050565b7fffffffffffffffffffffffffffffffffffffffffffffffffffffffffffffffff6dffffffffffffffffffffffffffff168411158015612f7c57507fffffffffffffffffffffffffffffffffffffffffffffffffffffffffffffffff6dffffffffffffffffffffffffffff168311155b612fee576040517f08c379a000000000000000000000000000000000000000000000000000000000815260040180806020018281038252600d8152602001807f4a6f653a204f564552464c4f570000000000000000000000000000000000000081525060200191505060405180910390fd5b60006401000000004281612ffe57fe5b06905060006008601c9054906101000a900463ffffffff168203905060008163ffffffff1611801561304157506000846dffffffffffffffffffffffffffff1614155b801561305e57506000836dffffffffffffffffffffffffffff1614155b15613140578063ffffffff166130a38561307786613979565b7bffffffffffffffffffffffffffffffffffffffffffffffffffffffff166139a490919063ffffffff16565b7bffffffffffffffffffffffffffffffffffffffffffffffffffffffff16026009600082825401925050819055508063ffffffff16613111846130e587613979565b7bffffffffffffffffffffffffffffffffffffffffffffffffffffffff166139a490919063ffffffff16565b7bffffffffffffffffffffffffffffffffffffffffffffffffffffffff1602600a600082825401925050819055505b85600860006101000a8154816dffffffffffffffffffffffffffff02191690836dffffffffffffffffffffffffffff160217905550846008600e6101000a8154816dffffffffffffffffffffffffffff02191690836dffffffffffffffffffffffffffff160217905550816008601c6101000a81548163ffffffff021916908363ffffffff1602179055507f1c411e9a96e071241c2f21f7726b17ae89e3cab4c78be50e062b03a9fffbbad1600860009054906101000a90046dffffffffffffffffffffffffffff166008600e9054906101000a90046dffffffffffffffffffffffffffff1660405180836dffffffffffffffffffffffffffff168152602001826dffffffffffffffffffffffffffff1681526020019250505060405180910390a1505050505050565b80600260008573ffffffffffffffffffffffffffffffffffffffff1673ffffffffffffffffffffffffffffffffffffffff16815260200190815260200160002060008473ffffffffffffffffffffffffffffffffffffffff1673ffffffffffffffffffffffffffffffffffffffff168152602001908152602001600020819055508173ffffffffffffffffffffffffffffffffffffffff168373ffffffffffffffffffffffffffffffffffffffff167f8c5be1e5ebec7d5bd14f71427d1e84f3dd0314c0f7b2291e5b200ac8c7c3b925836040518082815260200191505060405180910390a3505050565b6133a781600160008673ffffffffffffffffffffffffffffffffffffffff1673ffffffffffffffffffffffffffffffffffffffff16815260200190815260200160002054612e8990919063ffffffff16565b600160008573ffffffffffffffffffffffffffffffffffffffff1673ffffffffffffffffffffffffffffffffffffffff1681526020019081526020016000208190555061343c81600160008573ffffffffffffffffffffffffffffffffffffffff1673ffffffffffffffffffffffffffffffffffffffff16815260200190815260200160002054613a0490919063ffffffff16565b600160008473ffffffffffffffffffffffffffffffffffffffff1673ffffffffffffffffffffffffffffffffffffffff168152602001908152602001600020819055508173ffffffffffffffffffffffffffffffffffffffff168373ffffffffffffffffffffffffffffffffffffffff167fddf252ad1be2c89b69c2b068fc378daa952ba7f163c4a11628f55a4df523b3ef836040518082815260200191505060405180910390a3505050565b600080600560009054906101000a900473ffffffffffffffffffffffffffffffffffffffff1673ffffffffffffffffffffffffffffffffffffffff1663017e7e586040518163ffffffff1660e01b815260040160206040518083038186803b15801561355457600080fd5b505afa158015613568573d6000803e3d6000fd5b505050506040513d602081101561357e57600080fd5b81019080805190602001909291905050509050600073ffffffffffffffffffffffffffffffffffffffff168173ffffffffffffffffffffffffffffffffffffffff16141591506000600b54905082156136b057600081146136ab576000613616613611866dffffffffffffffffffffffffffff16886dffffffffffffffffffffffffffff16612df490919063ffffffff16565b6136ca565b90506000613623836136ca565b9050808211156136a85760006136566136458385612e8990919063ffffffff16565b600054612df490919063ffffffff16565b9050600061368083613672600587612df490919063ffffffff16565b613a0490919063ffffffff16565b9050600081838161368d57fe5b04905060008111156136a4576136a3878261372c565b5b5050505b50505b6136c2565b600081146136c1576000600b819055505b5b505092915050565b600060038211156137195781905060006001600284816136e657fe5b040190505b818110156137135780915060028182858161370257fe5b04018161370b57fe5b0490506136eb565b50613727565b6000821461372657600190505b5b919050565b61374181600054613a0490919063ffffffff16565b60008190555061379981600160008573ffffffffffffffffffffffffffffffffffffffff1673ffffffffffffffffffffffffffffffffffffffff16815260200190815260200160002054613a0490919063ffffffff16565b600160008473ffffffffffffffffffffffffffffffffffffffff1673ffffffffffffffffffffffffffffffffffffffff168152602001908152602001600020819055508173ffffffffffffffffffffffffffffffffffffffff16600073ffffffffffffffffffffffffffffffffffffffff167fddf252ad1be2c89b69c2b068fc378daa952ba7f163c4a11628f55a4df523b3ef836040518082815260200191505060405180910390a35050565b60008183106138555781613857565b825b905092915050565b6138b181600160008573ffffffffffffffffffffffffffffffffffffffff1673ffffffffffffffffffffffffffffffffffffffff16815260200190815260200160002054612e8990919063ffffffff16565b600160008473ffffffffffffffffffffffffffffffffffffffff1673ffffffffffffffffffffffffffffffffffffffff1681526020019081526020016000208190555061390981600054612e8990919063ffffffff16565b600081905550600073ffffffffffffffffffffffffffffffffffffffff168273ffffffffffffffffffffffffffffffffffffffff167fddf252ad1be2c89b69c2b068fc378daa952ba7f163c4a11628f55a4df523b3ef836040518082815260200191505060405180910390a35050565b60006e010000000000000000000000000000826dffffffffffffffffffffffffffff16029050919050565b6000816dffffffffffffffffffffffffffff167bffffffffffffffffffffffffffffffffffffffffffffffffffffffff16837bffffffffffffffffffffffffffffffffffffffffffffffffffffffff16816139fb57fe5b04905092915050565b6000828284019150811015613a81576040517f08c379a00000000000000000000000000000000000000000000000000000000081526004018080602001828103825260148152602001807f64732d6d6174682d6164642d6f766572666c6f7700000000000000000000000081525060200191505060405180910390fd5b9291505056fe4a6f653a20494e53554646494349454e545f4c49515549444954595f4255524e45444a6f653a20494e53554646494349454e545f4c49515549444954595f4d494e544544a26469706673582212206917ca26ebcaf7f2eb8e2cc050fd8e6820079592a1786fbaf6b02fe5afd2147264736f6c634300060c0033a264697066735822122043b38ee36d9db5ead3f4a9c49c4f3b9ff6c673256261e66c711a3acc7320b20864736f6c634300060c0033",
  "devdoc": {
    "kind": "dev",
    "methods": {},
    "version": 1
  },
  "userdoc": {
    "kind": "user",
    "methods": {},
    "version": 1
  },
  "storageLayout": {
    "storage": [
      {
        "astId": 40047,
        "contract": "src/traderjoe/JoeFactory.sol:JoeFactory",
        "label": "feeTo",
        "offset": 0,
        "slot": "0",
        "type": "t_address"
      },
      {
        "astId": 40050,
        "contract": "src/traderjoe/JoeFactory.sol:JoeFactory",
        "label": "feeToSetter",
        "offset": 0,
        "slot": "1",
        "type": "t_address"
      },
      {
        "astId": 40053,
        "contract": "src/traderjoe/JoeFactory.sol:JoeFactory",
        "label": "migrator",
        "offset": 0,
        "slot": "2",
        "type": "t_address"
      },
      {
        "astId": 40060,
        "contract": "src/traderjoe/JoeFactory.sol:JoeFactory",
        "label": "getPair",
        "offset": 0,
        "slot": "3",
        "type": "t_mapping(t_address,t_mapping(t_address,t_address))"
      },
      {
        "astId": 40064,
        "contract": "src/traderjoe/JoeFactory.sol:JoeFactory",
        "label": "allPairs",
        "offset": 0,
        "slot": "4",
        "type": "t_array(t_address)dyn_storage"
      }
    ],
    "types": {
      "t_address": {
        "encoding": "inplace",
        "label": "address",
        "numberOfBytes": "20"
      },
      "t_array(t_address)dyn_storage": {
        "base": "t_address",
        "encoding": "dynamic_array",
        "label": "address[]",
        "numberOfBytes": "32"
      },
      "t_mapping(t_address,t_address)": {
        "encoding": "mapping",
        "key": "t_address",
        "label": "mapping(address => address)",
        "numberOfBytes": "32",
        "value": "t_address"
      },
      "t_mapping(t_address,t_mapping(t_address,t_address))": {
        "encoding": "mapping",
        "key": "t_address",
        "label": "mapping(address => mapping(address => address))",
        "numberOfBytes": "32",
        "value": "t_mapping(t_address,t_address)"
      }
    }
  }
}