{
  "address": "0xE33c77184558FC9e2f6A12090dBA2280eBEdb8D4",
  "abi": [
    {
      "inputs": [
        {
          "internalType": "address",
          "name": "_factory",
          "type": "address"
        },
        {
          "internalType": "address",
          "name": "_bar",
          "type": "address"
        },
        {
          "internalType": "address",
          "name": "_joe",
          "type": "address"
        },
        {
          "internalType": "address",
          "name": "_wFIL",
          "type": "address"
        }
      ],
      "stateMutability": "nonpayable",
      "type": "constructor"
    },
    {
      "anonymous": false,
      "inputs": [
        {
          "indexed": true,
          "internalType": "address",
          "name": "token",
          "type": "address"
        },
        {
          "indexed": true,
          "internalType": "address",
          "name": "bridge",
          "type": "address"
        }
      ],
      "name": "LogBridgeSet",
      "type": "event"
    },
    {
      "anonymous": false,
      "inputs": [
        {
          "indexed": true,
          "internalType": "address",
          "name": "server",
          "type": "address"
        },
        {
          "indexed": true,
          "internalType": "address",
          "name": "token0",
          "type": "address"
        },
        {
          "indexed": true,
          "internalType": "address",
          "name": "token1",
          "type": "address"
        },
        {
          "indexed": false,
          "internalType": "uint256",
          "name": "amount0",
          "type": "uint256"
        },
        {
          "indexed": false,
          "internalType": "uint256",
          "name": "amount1",
          "type": "uint256"
        },
        {
          "indexed": false,
          "internalType": "uint256",
          "name": "amountJOE",
          "type": "uint256"
        }
      ],
      "name": "LogConvert",
      "type": "event"
    },
    {
      "anonymous": false,
      "inputs": [
        {
          "indexed": true,
          "internalType": "address",
          "name": "previousOwner",
          "type": "address"
        },
        {
          "indexed": true,
          "internalType": "address",
          "name": "newOwner",
          "type": "address"
        }
      ],
      "name": "OwnershipTransferred",
      "type": "event"
    },
    {
      "anonymous": false,
      "inputs": [
        {
          "indexed": false,
          "internalType": "address",
          "name": "_addr",
          "type": "address"
        }
      ],
      "name": "SetDevAddr",
      "type": "event"
    },
    {
      "anonymous": false,
      "inputs": [
        {
          "indexed": false,
          "internalType": "uint256",
          "name": "_amount",
          "type": "uint256"
        }
      ],
      "name": "SetDevCut",
      "type": "event"
    },
    {
      "inputs": [
        {
          "internalType": "address",
          "name": "_auth",
          "type": "address"
        }
      ],
      "name": "addAuth",
      "outputs": [],
      "stateMutability": "nonpayable",
      "type": "function"
    },
    {
      "inputs": [],
      "name": "anyAuth",
      "outputs": [
        {
          "internalType": "bool",
          "name": "",
          "type": "bool"
        }
      ],
      "stateMutability": "view",
      "type": "function"
    },
    {
      "inputs": [
        {
          "internalType": "uint256",
          "name": "",
          "type": "uint256"
        }
      ],
      "name": "authorized",
      "outputs": [
        {
          "internalType": "address",
          "name": "",
          "type": "address"
        }
      ],
      "stateMutability": "view",
      "type": "function"
    },
    {
      "inputs": [],
      "name": "bar",
      "outputs": [
        {
          "internalType": "address",
          "name": "",
          "type": "address"
        }
      ],
      "stateMutability": "view",
      "type": "function"
    },
    {
      "inputs": [
        {
          "internalType": "address",
          "name": "token",
          "type": "address"
        }
      ],
      "name": "bridgeFor",
      "outputs": [
        {
          "internalType": "address",
          "name": "bridge",
          "type": "address"
        }
      ],
      "stateMutability": "view",
      "type": "function"
    },
    {
      "inputs": [
        {
          "internalType": "address",
          "name": "token0",
          "type": "address"
        },
        {
          "internalType": "address",
          "name": "token1",
          "type": "address"
        }
      ],
      "name": "convert",
      "outputs": [],
      "stateMutability": "nonpayable",
      "type": "function"
    },
    {
      "inputs": [
        {
          "internalType": "address[]",
          "name": "token0",
          "type": "address[]"
        },
        {
          "internalType": "address[]",
          "name": "token1",
          "type": "address[]"
        }
      ],
      "name": "convertMultiple",
      "outputs": [],
      "stateMutability": "nonpayable",
      "type": "function"
    },
    {
      "inputs": [],
      "name": "devAddr",
      "outputs": [
        {
          "internalType": "address",
          "name": "",
          "type": "address"
        }
      ],
      "stateMutability": "view",
      "type": "function"
    },
    {
      "inputs": [],
      "name": "devCut",
      "outputs": [
        {
          "internalType": "uint256",
          "name": "",
          "type": "uint256"
        }
      ],
      "stateMutability": "view",
      "type": "function"
    },
    {
      "inputs": [],
      "name": "factory",
      "outputs": [
        {
          "internalType": "contract IJoeFactory",
          "name": "",
          "type": "address"
        }
      ],
      "stateMutability": "view",
      "type": "function"
    },
    {
      "inputs": [
        {
          "internalType": "address",
          "name": "",
          "type": "address"
        }
      ],
      "name": "isAuth",
      "outputs": [
        {
          "internalType": "bool",
          "name": "",
          "type": "bool"
        }
      ],
      "stateMutability": "view",
      "type": "function"
    },
    {
      "inputs": [],
      "name": "owner",
      "outputs": [
        {
          "internalType": "address",
          "name": "",
          "type": "address"
        }
      ],
      "stateMutability": "view",
      "type": "function"
    },
    {
      "inputs": [],
      "name": "renounceOwnership",
      "outputs": [],
      "stateMutability": "nonpayable",
      "type": "function"
    },
    {
      "inputs": [
        {
          "internalType": "address",
          "name": "_auth",
          "type": "address"
        }
      ],
      "name": "revokeAuth",
      "outputs": [],
      "stateMutability": "nonpayable",
      "type": "function"
    },
    {
      "inputs": [
        {
          "internalType": "bool",
          "name": "access",
          "type": "bool"
        }
      ],
      "name": "setAnyAuth",
      "outputs": [],
      "stateMutability": "nonpayable",
      "type": "function"
    },
    {
      "inputs": [
        {
          "internalType": "address",
          "name": "token",
          "type": "address"
        },
        {
          "internalType": "address",
          "name": "bridge",
          "type": "address"
        }
      ],
      "name": "setBridge",
      "outputs": [],
      "stateMutability": "nonpayable",
      "type": "function"
    },
    {
      "inputs": [
        {
          "internalType": "address",
          "name": "_addr",
          "type": "address"
        }
      ],
      "name": "setDevAddr",
      "outputs": [],
      "stateMutability": "nonpayable",
      "type": "function"
    },
    {
      "inputs": [
        {
          "internalType": "uint256",
          "name": "_amount",
          "type": "uint256"
        }
      ],
      "name": "setDevCut",
      "outputs": [],
      "stateMutability": "nonpayable",
      "type": "function"
    },
    {
      "inputs": [
        {
          "internalType": "address",
          "name": "newOwner",
          "type": "address"
        }
      ],
      "name": "transferOwnership",
      "outputs": [],
      "stateMutability": "nonpayable",
      "type": "function"
    }
  ],
  "transactionHash": "0x0747d32a675783ea727e4ec5acc69a5060c112de44c312e7ac8e070606205a07",
  "args": [
    "0x84DD8FDFcCf29C35d9654FEBd596eFAB80F53F04",
    "0xea2d1a35c36c5E304232f0286b25420744345cab",
    "0xf392663Ee370E6D8660abDcB734Ff654497983B2",
    "0x433590A0482ded4e85CbE43805bc86F1dbF073bd"
  ],
  "numDeployments": 3,
  "solcInputHash": "c67be878e58a861bae8ac06ebff81f10",
  "bytecode": "0x61010060405260006001556000600560006101000a81548160ff0219169083151502179055503480156200003257600080fd5b506040516200368a3803806200368a833981810160405260808110156200005857600080fd5b81019080805190602001909291908051906020019092919080519060200190929190805190602001909291905050506000620000996200031960201b60201c565b9050806000806101000a81548173ffffffffffffffffffffffffffffffffffffffff021916908373ffffffffffffffffffffffffffffffffffffffff1602179055508073ffffffffffffffffffffffffffffffffffffffff16600073ffffffffffffffffffffffffffffffffffffffff167f8be0079c531659141344cd1fd0a4f28419497f9722a3daafe3b4186f6b6457e060405160405180910390a3508373ffffffffffffffffffffffffffffffffffffffff1660808173ffffffffffffffffffffffffffffffffffffffff1660601b815250508273ffffffffffffffffffffffffffffffffffffffff1660a08173ffffffffffffffffffffffffffffffffffffffff1660601b815250508173ffffffffffffffffffffffffffffffffffffffff1660c08173ffffffffffffffffffffffffffffffffffffffff1660601b815250508073ffffffffffffffffffffffffffffffffffffffff1660e08173ffffffffffffffffffffffffffffffffffffffff1660601b8152505033600260006101000a81548173ffffffffffffffffffffffffffffffffffffffff021916908373ffffffffffffffffffffffffffffffffffffffff1602179055506001600360003373ffffffffffffffffffffffffffffffffffffffff1673ffffffffffffffffffffffffffffffffffffffff16815260200190815260200160002060006101000a81548160ff0219169083151502179055506004339080600181540180825580915050600190039060005260206000200160009091909190916101000a81548173ffffffffffffffffffffffffffffffffffffffff021916908373ffffffffffffffffffffffffffffffffffffffff1602179055505050505062000321565b600033905090565b60805160601c60a05160601c60c05160601c60e05160601c6132b9620003d160003980610f6d52806111dd528061231e5280612375528061259a52806125f1528061261a528061265c52806126b352806126dc525080610f16528061225752806122d052806123d6528061244f52806124b85280612531528061293752508061183952806122ae528061242d528061250f528061295952508061138b5280611943528061298b52506132b96000f3fe608060405234801561001057600080fd5b50600436106101215760003560e01c80639c286837116100ad578063da09c72c11610071578063da09c72c14610544578063dbcc106d14610578578063f2fde38b146105a6578063f8171dfa146105ea578063febb0f7e1461062e57610121565b80639c286837146103bc5780639d22ae8c146103da578063a761a9391461043e578063bd1b820c146104ac578063c45a01551461051057610121565b8063313a3a98116100f4578063313a3a98146102c65780635422224e146102f65780636ebb64a21461033a578063715018a61461037e5780638da5cb5b1461038857610121565b80630d48669a146101265780631d01548e1461017e5780632520e7ff1461019e578063303e6aa4146101f8575b600080fd5b6101526004803603602081101561013c57600080fd5b8101908080359060200190929190505050610662565b604051808273ffffffffffffffffffffffffffffffffffffffff16815260200191505060405180910390f35b61018661069e565b60405180821515815260200191505060405180910390f35b6101e0600480360360208110156101b457600080fd5b81019080803573ffffffffffffffffffffffffffffffffffffffff1690602001909291905050506106b1565b60405180821515815260200191505060405180910390f35b6102c46004803603604081101561020e57600080fd5b810190808035906020019064010000000081111561022b57600080fd5b82018360208201111561023d57600080fd5b8035906020019184602083028401116401000000008311171561025f57600080fd5b90919293919293908035906020019064010000000081111561028057600080fd5b82018360208201111561029257600080fd5b803590602001918460208302840111640100000000831117156102b457600080fd5b90919293919293905050506106d1565b005b6102f4600480360360208110156102dc57600080fd5b810190808035151590602001909291905050506108ca565b005b6103386004803603602081101561030c57600080fd5b81019080803573ffffffffffffffffffffffffffffffffffffffff169060200190929190505050610996565b005b61037c6004803603602081101561035057600080fd5b81019080803573ffffffffffffffffffffffffffffffffffffffff169060200190929190505050610b03565b005b610386610cc9565b005b610390610e36565b604051808273ffffffffffffffffffffffffffffffffffffffff16815260200191505060405180910390f35b6103c4610e5f565b6040518082815260200191505060405180910390f35b61043c600480360360408110156103f057600080fd5b81019080803573ffffffffffffffffffffffffffffffffffffffff169060200190929190803573ffffffffffffffffffffffffffffffffffffffff169060200190929190505050610e65565b005b6104806004803603602081101561045457600080fd5b81019080803573ffffffffffffffffffffffffffffffffffffffff169060200190929190505050611142565b604051808273ffffffffffffffffffffffffffffffffffffffff16815260200191505060405180910390f35b61050e600480360360408110156104c257600080fd5b81019080803573ffffffffffffffffffffffffffffffffffffffff169060200190929190803573ffffffffffffffffffffffffffffffffffffffff169060200190929190505050611204565b005b610518611389565b604051808273ffffffffffffffffffffffffffffffffffffffff16815260200191505060405180910390f35b61054c6113ad565b604051808273ffffffffffffffffffffffffffffffffffffffff16815260200191505060405180910390f35b6105a46004803603602081101561058e57600080fd5b81019080803590602001909291905050506113d3565b005b6105e8600480360360208110156105bc57600080fd5b81019080803573ffffffffffffffffffffffffffffffffffffffff16906020019092919050505061153b565b005b61062c6004803603602081101561060057600080fd5b81019080803573ffffffffffffffffffffffffffffffffffffffff16906020019092919050505061172d565b005b610636611837565b604051808273ffffffffffffffffffffffffffffffffffffffff16815260200191505060405180910390f35b6004818154811061066f57fe5b906000526020600020016000915054906101000a900473ffffffffffffffffffffffffffffffffffffffff1681565b600560009054906101000a900460ff1681565b60036020528060005260406000206000915054906101000a900460ff1681565b3273ffffffffffffffffffffffffffffffffffffffff163373ffffffffffffffffffffffffffffffffffffffff1614610772576040517f08c379a00000000000000000000000000000000000000000000000000000000081526004018080602001828103825260188152602001807f4a6f654d616b657256333a206d7573742075736520454f41000000000000000081525060200191505060405180910390fd5b600360003373ffffffffffffffffffffffffffffffffffffffff1673ffffffffffffffffffffffffffffffffffffffff16815260200190815260200160002060009054906101000a900460ff16806107d65750600560009054906101000a900460ff165b610848576040517f08c379a00000000000000000000000000000000000000000000000000000000081526004018080602001828103825260158152602001807f4a6f654d616b657256333a20464f5242494444454e000000000000000000000081525060200191505060405180910390fd5b600084849050905060005b818110156108c2576108b586868381811061086a57fe5b9050602002013573ffffffffffffffffffffffffffffffffffffffff1685858481811061089357fe5b9050602002013573ffffffffffffffffffffffffffffffffffffffff1661185b565b8080600101915050610853565b505050505050565b6108d2611f9a565b73ffffffffffffffffffffffffffffffffffffffff166108f0610e36565b73ffffffffffffffffffffffffffffffffffffffff1614610979576040517f08c379a00000000000000000000000000000000000000000000000000000000081526004018080602001828103825260208152602001807f4f776e61626c653a2063616c6c6572206973206e6f7420746865206f776e657281525060200191505060405180910390fd5b80600560006101000a81548160ff02191690831515021790555050565b61099e611f9a565b73ffffffffffffffffffffffffffffffffffffffff166109bc610e36565b73ffffffffffffffffffffffffffffffffffffffff1614610a45576040517f08c379a00000000000000000000000000000000000000000000000000000000081526004018080602001828103825260208152602001807f4f776e61626c653a2063616c6c6572206973206e6f7420746865206f776e657281525060200191505060405180910390fd5b6001600360008373ffffffffffffffffffffffffffffffffffffffff1673ffffffffffffffffffffffffffffffffffffffff16815260200190815260200160002060006101000a81548160ff0219169083151502179055506004819080600181540180825580915050600190039060005260206000200160009091909190916101000a81548173ffffffffffffffffffffffffffffffffffffffff021916908373ffffffffffffffffffffffffffffffffffffffff16021790555050565b610b0b611f9a565b73ffffffffffffffffffffffffffffffffffffffff16610b29610e36565b73ffffffffffffffffffffffffffffffffffffffff1614610bb2576040517f08c379a00000000000000000000000000000000000000000000000000000000081526004018080602001828103825260208152602001807f4f776e61626c653a2063616c6c6572206973206e6f7420746865206f776e657281525060200191505060405180910390fd5b600073ffffffffffffffffffffffffffffffffffffffff168173ffffffffffffffffffffffffffffffffffffffff161415610c38576040517f08c379a000000000000000000000000000000000000000000000000000000000815260040180806020018281038252602a81526020018061325a602a913960400191505060405180910390fd5b80600260006101000a81548173ffffffffffffffffffffffffffffffffffffffff021916908373ffffffffffffffffffffffffffffffffffffffff1602179055507f45c73fc162405abe4471c4228f0797176ac32cb9f7be4a25a67cbd1dda6d007e81604051808273ffffffffffffffffffffffffffffffffffffffff16815260200191505060405180910390a150565b610cd1611f9a565b73ffffffffffffffffffffffffffffffffffffffff16610cef610e36565b73ffffffffffffffffffffffffffffffffffffffff1614610d78576040517f08c379a00000000000000000000000000000000000000000000000000000000081526004018080602001828103825260208152602001807f4f776e61626c653a2063616c6c6572206973206e6f7420746865206f776e657281525060200191505060405180910390fd5b600073ffffffffffffffffffffffffffffffffffffffff1660008054906101000a900473ffffffffffffffffffffffffffffffffffffffff1673ffffffffffffffffffffffffffffffffffffffff167f8be0079c531659141344cd1fd0a4f28419497f9722a3daafe3b4186f6b6457e060405160405180910390a360008060006101000a81548173ffffffffffffffffffffffffffffffffffffffff021916908373ffffffffffffffffffffffffffffffffffffffff160217905550565b60008060009054906101000a900473ffffffffffffffffffffffffffffffffffffffff16905090565b60015481565b610e6d611f9a565b73ffffffffffffffffffffffffffffffffffffffff16610e8b610e36565b73ffffffffffffffffffffffffffffffffffffffff1614610f14576040517f08c379a00000000000000000000000000000000000000000000000000000000081526004018080602001828103825260208152602001807f4f776e61626c653a2063616c6c6572206973206e6f7420746865206f776e657281525060200191505060405180910390fd5b7f000000000000000000000000000000000000000000000000000000000000000073ffffffffffffffffffffffffffffffffffffffff168273ffffffffffffffffffffffffffffffffffffffff1614158015610fbc57507f000000000000000000000000000000000000000000000000000000000000000073ffffffffffffffffffffffffffffffffffffffff168273ffffffffffffffffffffffffffffffffffffffff1614155b8015610ff457508073ffffffffffffffffffffffffffffffffffffffff168273ffffffffffffffffffffffffffffffffffffffff1614155b611066576040517f08c379a000000000000000000000000000000000000000000000000000000000815260040180806020018281038252601a8152602001807f4a6f654d616b657256333a20496e76616c69642062726964676500000000000081525060200191505060405180910390fd5b80600660008473ffffffffffffffffffffffffffffffffffffffff1673ffffffffffffffffffffffffffffffffffffffff16815260200190815260200160002060006101000a81548173ffffffffffffffffffffffffffffffffffffffff021916908373ffffffffffffffffffffffffffffffffffffffff1602179055508073ffffffffffffffffffffffffffffffffffffffff168273ffffffffffffffffffffffffffffffffffffffff167f2e103aa707acc565f9a1547341914802b2bfe977fd79c595209f248ae4b0061360405160405180910390a35050565b6000600660008373ffffffffffffffffffffffffffffffffffffffff1673ffffffffffffffffffffffffffffffffffffffff16815260200190815260200160002060009054906101000a900473ffffffffffffffffffffffffffffffffffffffff169050600073ffffffffffffffffffffffffffffffffffffffff168173ffffffffffffffffffffffffffffffffffffffff1614156111ff577f000000000000000000000000000000000000000000000000000000000000000090505b919050565b3273ffffffffffffffffffffffffffffffffffffffff163373ffffffffffffffffffffffffffffffffffffffff16146112a5576040517f08c379a00000000000000000000000000000000000000000000000000000000081526004018080602001828103825260188152602001807f4a6f654d616b657256333a206d7573742075736520454f41000000000000000081525060200191505060405180910390fd5b600360003373ffffffffffffffffffffffffffffffffffffffff1673ffffffffffffffffffffffffffffffffffffffff16815260200190815260200160002060009054906101000a900460ff16806113095750600560009054906101000a900460ff165b61137b576040517f08c379a00000000000000000000000000000000000000000000000000000000081526004018080602001828103825260158152602001807f4a6f654d616b657256333a20464f5242494444454e000000000000000000000081525060200191505060405180910390fd5b611385828261185b565b5050565b7f000000000000000000000000000000000000000000000000000000000000000081565b600260009054906101000a900473ffffffffffffffffffffffffffffffffffffffff1681565b6113db611f9a565b73ffffffffffffffffffffffffffffffffffffffff166113f9610e36565b73ffffffffffffffffffffffffffffffffffffffff1614611482576040517f08c379a00000000000000000000000000000000000000000000000000000000081526004018080602001828103825260208152602001807f4f776e61626c653a2063616c6c6572206973206e6f7420746865206f776e657281525060200191505060405180910390fd5b6113888111156114fa576040517f08c379a00000000000000000000000000000000000000000000000000000000081526004018080602001828103825260178152602001807f7365744465764375743a2063757420746f6f206869676800000000000000000081525060200191505060405180910390fd5b806001819055507f914990c75916d406c148e7fca9308486d7806a77c0ef66119c9329add5885d2e816040518082815260200191505060405180910390a150565b611543611f9a565b73ffffffffffffffffffffffffffffffffffffffff16611561610e36565b73ffffffffffffffffffffffffffffffffffffffff16146115ea576040517f08c379a00000000000000000000000000000000000000000000000000000000081526004018080602001828103825260208152602001807f4f776e61626c653a2063616c6c6572206973206e6f7420746865206f776e657281525060200191505060405180910390fd5b600073ffffffffffffffffffffffffffffffffffffffff168173ffffffffffffffffffffffffffffffffffffffff161415611670576040517f08c379a00000000000000000000000000000000000000000000000000000000081526004018080602001828103825260268152602001806131ed6026913960400191505060405180910390fd5b8073ffffffffffffffffffffffffffffffffffffffff1660008054906101000a900473ffffffffffffffffffffffffffffffffffffffff1673ffffffffffffffffffffffffffffffffffffffff167f8be0079c531659141344cd1fd0a4f28419497f9722a3daafe3b4186f6b6457e060405160405180910390a3806000806101000a81548173ffffffffffffffffffffffffffffffffffffffff021916908373ffffffffffffffffffffffffffffffffffffffff16021790555050565b611735611f9a565b73ffffffffffffffffffffffffffffffffffffffff16611753610e36565b73ffffffffffffffffffffffffffffffffffffffff16146117dc576040517f08c379a00000000000000000000000000000000000000000000000000000000081526004018080602001828103825260208152602001807f4f776e61626c653a2063616c6c6572206973206e6f7420746865206f776e657281525060200191505060405180910390fd5b6000600360008373ffffffffffffffffffffffffffffffffffffffff1673ffffffffffffffffffffffffffffffffffffffff16815260200190815260200160002060006101000a81548160ff02191690831515021790555050565b7f000000000000000000000000000000000000000000000000000000000000000081565b6000808273ffffffffffffffffffffffffffffffffffffffff168473ffffffffffffffffffffffffffffffffffffffff16141561193f578373ffffffffffffffffffffffffffffffffffffffff166370a08231306040518263ffffffff1660e01b8152600401808273ffffffffffffffffffffffffffffffffffffffff16815260200191505060206040518083038186803b1580156118f957600080fd5b505afa15801561190d573d6000803e3d6000fd5b505050506040513d602081101561192357600080fd5b8101908080519060200190929190505050915060009050611efd565b60007f000000000000000000000000000000000000000000000000000000000000000073ffffffffffffffffffffffffffffffffffffffff1663e6a4390586866040518363ffffffff1660e01b8152600401808373ffffffffffffffffffffffffffffffffffffffff1681526020018273ffffffffffffffffffffffffffffffffffffffff1681526020019250505060206040518083038186803b1580156119e657600080fd5b505afa1580156119fa573d6000803e3d6000fd5b505050506040513d6020811015611a1057600080fd5b81019080805190602001909291905050509050600073ffffffffffffffffffffffffffffffffffffffff168173ffffffffffffffffffffffffffffffffffffffff161415611ac6576040517f08c379a00000000000000000000000000000000000000000000000000000000081526004018080602001828103825260188152602001807f4a6f654d616b657256333a20496e76616c69642070616972000000000000000081525060200191505060405180910390fd5b611b92818273ffffffffffffffffffffffffffffffffffffffff166370a08231306040518263ffffffff1660e01b8152600401808273ffffffffffffffffffffffffffffffffffffffff16815260200191505060206040518083038186803b158015611b3157600080fd5b505afa158015611b45573d6000803e3d6000fd5b505050506040513d6020811015611b5b57600080fd5b81019080805190602001909291905050508373ffffffffffffffffffffffffffffffffffffffff16611fa29092919063ffffffff16565b60008573ffffffffffffffffffffffffffffffffffffffff166370a08231306040518263ffffffff1660e01b8152600401808273ffffffffffffffffffffffffffffffffffffffff16815260200191505060206040518083038186803b158015611bfb57600080fd5b505afa158015611c0f573d6000803e3d6000fd5b505050506040513d6020811015611c2557600080fd5b8101908080519060200190929190505050905060008573ffffffffffffffffffffffffffffffffffffffff166370a08231306040518263ffffffff1660e01b8152600401808273ffffffffffffffffffffffffffffffffffffffff16815260200191505060206040518083038186803b158015611ca157600080fd5b505afa158015611cb5573d6000803e3d6000fd5b505050506040513d6020811015611ccb57600080fd5b810190808051906020019092919050505090508273ffffffffffffffffffffffffffffffffffffffff166389afcb44306040518263ffffffff1660e01b8152600401808273ffffffffffffffffffffffffffffffffffffffff1681526020019150506040805180830381600087803b158015611d4657600080fd5b505af1158015611d5a573d6000803e3d6000fd5b505050506040513d6040811015611d7057600080fd5b8101908080519060200190929190805190602001909291905050505050611e41828873ffffffffffffffffffffffffffffffffffffffff166370a08231306040518263ffffffff1660e01b8152600401808273ffffffffffffffffffffffffffffffffffffffff16815260200191505060206040518083038186803b158015611df857600080fd5b505afa158015611e0c573d6000803e3d6000fd5b505050506040513d6020811015611e2257600080fd5b810190808051906020019092919050505061218590919063ffffffff16565b9450611ef7818773ffffffffffffffffffffffffffffffffffffffff166370a08231306040518263ffffffff1660e01b8152600401808273ffffffffffffffffffffffffffffffffffffffff16815260200191505060206040518083038186803b158015611eae57600080fd5b505afa158015611ec2573d6000803e3d6000fd5b505050506040513d6020811015611ed857600080fd5b810190808051906020019092919050505061218590919063ffffffff16565b93505050505b8273ffffffffffffffffffffffffffffffffffffffff168473ffffffffffffffffffffffffffffffffffffffff163373ffffffffffffffffffffffffffffffffffffffff167fd06b1d7ed79b664d17472c6f6997b929f1abe463ccccb4e5b6a0038f2f730c158585611f718a8a8a8a612208565b60405180848152602001838152602001828152602001935050505060405180910390a450505050565b600033905090565b600060608473ffffffffffffffffffffffffffffffffffffffff1663a9059cbb8585604051602401808373ffffffffffffffffffffffffffffffffffffffff168152602001828152602001925050506040516020818303038152906040529060e01b6020820180517bffffffffffffffffffffffffffffffffffffffffffffffffffffffff83818316178352505050506040518082805190602001908083835b602083106120655780518252602082019150602081019050602083039250612042565b6001836020036101000a0380198251168184511680821785525050505050509050019150506000604051808303816000865af19150503d80600081146120c7576040519150601f19603f3d011682016040523d82523d6000602084013e6120cc565b606091505b509150915081801561210c575060008151148061210b57508080602001905160208110156120f957600080fd5b81019080805190602001909291905050505b5b61217e576040517f08c379a000000000000000000000000000000000000000000000000000000000815260040180806020018281038252601a8152602001807f5361666545524332303a205472616e73666572206661696c656400000000000081525060200191505060405180910390fd5b5050505050565b6000828284039150811115612202576040517f08c379a00000000000000000000000000000000000000000000000000000000081526004018080602001828103825260138152602001807f536166654d6174683a20556e646572666c6f770000000000000000000000000081525060200191505060405180910390fd5b92915050565b60008373ffffffffffffffffffffffffffffffffffffffff168573ffffffffffffffffffffffffffffffffffffffff1614156123d4576000612253838561280f90919063ffffffff16565b90507f000000000000000000000000000000000000000000000000000000000000000073ffffffffffffffffffffffffffffffffffffffff168673ffffffffffffffffffffffffffffffffffffffff16141561231c576123147f0000000000000000000000000000000000000000000000000000000000000000827f000000000000000000000000000000000000000000000000000000000000000073ffffffffffffffffffffffffffffffffffffffff16611fa29092919063ffffffff16565b8091506123ce565b7f000000000000000000000000000000000000000000000000000000000000000073ffffffffffffffffffffffffffffffffffffffff168673ffffffffffffffffffffffffffffffffffffffff1614156123a15761239a7f000000000000000000000000000000000000000000000000000000000000000082612892565b91506123cd565b60006123ac87611142565b90506123ba87828430612986565b91506123c98182846000612208565b9250505b5b50612807565b7f000000000000000000000000000000000000000000000000000000000000000073ffffffffffffffffffffffffffffffffffffffff168573ffffffffffffffffffffffffffffffffffffffff1614156124b6576124937f0000000000000000000000000000000000000000000000000000000000000000847f000000000000000000000000000000000000000000000000000000000000000073ffffffffffffffffffffffffffffffffffffffff16611fa29092919063ffffffff16565b6124af836124a18685612892565b61280f90919063ffffffff16565b9050612806565b7f000000000000000000000000000000000000000000000000000000000000000073ffffffffffffffffffffffffffffffffffffffff168473ffffffffffffffffffffffffffffffffffffffff161415612598576125757f0000000000000000000000000000000000000000000000000000000000000000837f000000000000000000000000000000000000000000000000000000000000000073ffffffffffffffffffffffffffffffffffffffff16611fa29092919063ffffffff16565b612591826125838786612892565b61280f90919063ffffffff16565b9050612805565b7f000000000000000000000000000000000000000000000000000000000000000073ffffffffffffffffffffffffffffffffffffffff168573ffffffffffffffffffffffffffffffffffffffff16141561265a576126537f000000000000000000000000000000000000000000000000000000000000000061264e85612640887f00000000000000000000000000000000000000000000000000000000000000008830612986565b61280f90919063ffffffff16565b612892565b9050612804565b7f000000000000000000000000000000000000000000000000000000000000000073ffffffffffffffffffffffffffffffffffffffff168473ffffffffffffffffffffffffffffffffffffffff16141561271c576127157f000000000000000000000000000000000000000000000000000000000000000061271084612702897f00000000000000000000000000000000000000000000000000000000000000008930612986565b61280f90919063ffffffff16565b612892565b9050612803565b600061272786611142565b9050600061273486611142565b90508573ffffffffffffffffffffffffffffffffffffffff168273ffffffffffffffffffffffffffffffffffffffff16141561278857612781828761277b8a868a30612986565b87612208565b9250612800565b8673ffffffffffffffffffffffffffffffffffffffff168173ffffffffffffffffffffffffffffffffffffffff1614156127da576127d38782876127ce8a868a30612986565b612208565b92506127ff565b6127fc82826127eb8a868a30612986565b6127f78a868a30612986565b612208565b92505b5b50505b5b5b5b5b949350505050565b600081828401915081101561288c576040517f08c379a00000000000000000000000000000000000000000000000000000000081526004018080602001828103825260168152602001807f536166654d6174683a20416464204f766572666c6f770000000000000000000081525060200191505060405180910390fd5b92915050565b60008082905060006001541115612931576128cc6127106128be60015484612f9e90919063ffffffff16565b61303390919063ffffffff16565b905061291b600260009054906101000a900473ffffffffffffffffffffffffffffffffffffffff16828673ffffffffffffffffffffffffffffffffffffffff16611fa29092919063ffffffff16565b61292e818461218590919063ffffffff16565b90505b61297d847f0000000000000000000000000000000000000000000000000000000000000000837f0000000000000000000000000000000000000000000000000000000000000000612986565b91505092915050565b6000807f000000000000000000000000000000000000000000000000000000000000000073ffffffffffffffffffffffffffffffffffffffff1663e6a4390587876040518363ffffffff1660e01b8152600401808373ffffffffffffffffffffffffffffffffffffffff1681526020018273ffffffffffffffffffffffffffffffffffffffff1681526020019250505060206040518083038186803b158015612a2e57600080fd5b505afa158015612a42573d6000803e3d6000fd5b505050506040513d6020811015612a5857600080fd5b81019080805190602001909291905050509050600073ffffffffffffffffffffffffffffffffffffffff168173ffffffffffffffffffffffffffffffffffffffff161415612b0e576040517f08c379a000000000000000000000000000000000000000000000000000000000815260040180806020018281038252601a8152602001807f4a6f654d616b657256333a2043616e6e6f7420636f6e7665727400000000000081525060200191505060405180910390fd5b6000808273ffffffffffffffffffffffffffffffffffffffff16630902f1ac6040518163ffffffff1660e01b815260040160606040518083038186803b158015612b5757600080fd5b505afa158015612b6b573d6000803e3d6000fd5b505050506040513d6060811015612b8157600080fd5b81019080805190602001909291908051906020019092919080519060200190929190505050506dffffffffffffffffffffffffffff1691506dffffffffffffffffffffffffffff1691506000808473ffffffffffffffffffffffffffffffffffffffff16630dfe16816040518163ffffffff1660e01b815260040160206040518083038186803b158015612c1457600080fd5b505afa158015612c28573d6000803e3d6000fd5b505050506040513d6020811015612c3e57600080fd5b810190808051906020019092919050505073ffffffffffffffffffffffffffffffffffffffff168a73ffffffffffffffffffffffffffffffffffffffff1614612c88578284612c8b565b83835b91509150612cba85898c73ffffffffffffffffffffffffffffffffffffffff16611fa29092919063ffffffff16565b6000612d70838c73ffffffffffffffffffffffffffffffffffffffff166370a08231896040518263ffffffff1660e01b8152600401808273ffffffffffffffffffffffffffffffffffffffff16815260200191505060206040518083038186803b158015612d2757600080fd5b505afa158015612d3b573d6000803e3d6000fd5b505050506040513d6020811015612d5157600080fd5b810190808051906020019092919050505061218590919063ffffffff16565b9050612d7d8184846130bc565b96506000808773ffffffffffffffffffffffffffffffffffffffff16630dfe16816040518163ffffffff1660e01b815260040160206040518083038186803b158015612dc857600080fd5b505afa158015612ddc573d6000803e3d6000fd5b505050506040513d6020811015612df257600080fd5b810190808051906020019092919050505073ffffffffffffffffffffffffffffffffffffffff168d73ffffffffffffffffffffffffffffffffffffffff1614612e3d57886000612e41565b6000895b915091508773ffffffffffffffffffffffffffffffffffffffff1663022c0d9f83838d600067ffffffffffffffff81118015612e7c57600080fd5b506040519080825280601f01601f191660200182016040528015612eaf5781602001600182028036833780820191505090505b506040518563ffffffff1660e01b8152600401808581526020018481526020018373ffffffffffffffffffffffffffffffffffffffff16815260200180602001828103825283818151815260200191508051906020019080838360005b83811015612f27578082015181840152602081019050612f0c565b50505050905090810190601f168015612f545780820380516001836020036101000a031916815260200191505b5095505050505050600060405180830381600087803b158015612f7657600080fd5b505af1158015612f8a573d6000803e3d6000fd5b505050505050505050505050949350505050565b600080821480612fbb5750828283850292508281612fb857fe5b04145b61302d576040517f08c379a00000000000000000000000000000000000000000000000000000000081526004018080602001828103825260168152602001807f536166654d6174683a204d756c204f766572666c6f770000000000000000000081525060200191505060405180910390fd5b92915050565b60008082116130aa576040517f08c379a00000000000000000000000000000000000000000000000000000000081526004018080602001828103825260158152602001807f536166654d6174683a20446976206279205a65726f000000000000000000000081525060200191505060405180910390fd5b8183816130b357fe5b04905092915050565b6000808411613116576040517f08c379a00000000000000000000000000000000000000000000000000000000081526004018080602001828103825260258152602001806132356025913960400191505060405180910390fd5b6000831180156131265750600082115b61317b576040517f08c379a00000000000000000000000000000000000000000000000000000000081526004018080602001828103825260228152602001806132136022913960400191505060405180910390fd5b60006131926103e586612f9e90919063ffffffff16565b905060006131a98483612f9e90919063ffffffff16565b905060006131d4836131c66103e889612f9e90919063ffffffff16565b61280f90919063ffffffff16565b90508082816131df57fe5b049350505050939250505056fe4f776e61626c653a206e6577206f776e657220697320746865207a65726f20616464726573734a6f654d616b657256333a20494e53554646494349454e545f4c49515549444954594a6f654d616b657256333a20494e53554646494349454e545f494e5055545f414d4f554e54736574446576416464722c20616464726573732063616e6e6f74206265207a65726f2061646472657373a2646970667358221220503a6016aa67a81d90d194433eec07d25ffe27f2ec6db7dca26b3df1bb98c77b64736f6c634300060c0033",
  "devdoc": {
    "kind": "dev",
    "methods": {
      "owner()": {
        "details": "Returns the address of the current owner."
      },
      "renounceOwnership()": {
        "details": "Leaves the contract without owner. It will not be possible to call `onlyOwner` functions anymore. Can only be called by the current owner. NOTE: Renouncing ownership will leave the contract without an owner, thereby removing any functionality that is only available to the owner."
      },
      "transferOwnership(address)": {
        "details": "Transfers ownership of the contract to a new account (`newOwner`). Can only be called by the current owner."
      }
    },
    "version": 1
  },
  "userdoc": {
    "kind": "user",
    "methods": {},
    "version": 1
  },
  "storageLayout": {
    "storage": [
      {
        "astId": 8571,
        "contract": "src/JoeMakerV3.sol:JoeMakerV3",
        "label": "_owner",
        "offset": 0,
        "slot": "0",
        "type": "t_address"
      },
      {
        "astId": 14211,
        "contract": "src/JoeMakerV3.sol:JoeMakerV3",
        "label": "devCut",
        "offset": 0,
        "slot": "1",
        "type": "t_uint256"
      },
      {
        "astId": 14213,
        "contract": "src/JoeMakerV3.sol:JoeMakerV3",
        "label": "devAddr",
        "offset": 0,
        "slot": "2",
        "type": "t_address"
      },
      {
        "astId": 14217,
        "contract": "src/JoeMakerV3.sol:JoeMakerV3",
        "label": "isAuth",
        "offset": 0,
        "slot": "3",
        "type": "t_mapping(t_address,t_bool)"
      },
      {
        "astId": 14220,
        "contract": "src/JoeMakerV3.sol:JoeMakerV3",
        "label": "authorized",
        "offset": 0,
        "slot": "4",
        "type": "t_array(t_address)dyn_storage"
      },
      {
        "astId": 14223,
        "contract": "src/JoeMakerV3.sol:JoeMakerV3",
        "label": "anyAuth",
        "offset": 0,
        "slot": "5",
        "type": "t_bool"
      },
      {
        "astId": 14241,
        "contract": "src/JoeMakerV3.sol:JoeMakerV3",
        "label": "_bridges",
        "offset": 0,
        "slot": "6",
        "type": "t_mapping(t_address,t_address)"
      }
    ],
    "types": {
      "t_address": {
        "encoding": "inplace",
        "label": "address",
        "numberOfBytes": "20"
      },
      "t_array(t_address)dyn_storage": {
        "base": "t_address",
        "encoding": "dynamic_array",
        "label": "address[]",
        "numberOfBytes": "32"
      },
      "t_bool": {
        "encoding": "inplace",
        "label": "bool",
        "numberOfBytes": "1"
      },
      "t_mapping(t_address,t_address)": {
        "encoding": "mapping",
        "key": "t_address",
        "label": "mapping(address => address)",
        "numberOfBytes": "32",
        "value": "t_address"
      },
      "t_mapping(t_address,t_bool)": {
        "encoding": "mapping",
        "key": "t_address",
        "label": "mapping(address => bool)",
        "numberOfBytes": "32",
        "value": "t_bool"
      },
      "t_uint256": {
        "encoding": "inplace",
        "label": "uint256",
        "numberOfBytes": "32"
      }
    }
  }
}