{
  "address": "0x9FC11B31677304f55D419Fc6CB2e91c3A1426E12",
  "abi": [
    {
      "inputs": [
        {
          "internalType": "address",
          "name": "_factory",
          "type": "address"
        },
        {
          "internalType": "address",
          "name": "_bar",
          "type": "address"
        },
        {
          "internalType": "address",
          "name": "_joe",
          "type": "address"
        },
        {
          "internalType": "address",
          "name": "_wFIL",
          "type": "address"
        }
      ],
      "stateMutability": "nonpayable",
      "type": "constructor"
    },
    {
      "anonymous": false,
      "inputs": [
        {
          "indexed": true,
          "internalType": "address",
          "name": "token",
          "type": "address"
        },
        {
          "indexed": true,
          "internalType": "address",
          "name": "bridge",
          "type": "address"
        }
      ],
      "name": "LogBridgeSet",
      "type": "event"
    },
    {
      "anonymous": false,
      "inputs": [
        {
          "indexed": true,
          "internalType": "address",
          "name": "server",
          "type": "address"
        },
        {
          "indexed": true,
          "internalType": "address",
          "name": "token0",
          "type": "address"
        },
        {
          "indexed": true,
          "internalType": "address",
          "name": "token1",
          "type": "address"
        },
        {
          "indexed": false,
          "internalType": "uint256",
          "name": "amount0",
          "type": "uint256"
        },
        {
          "indexed": false,
          "internalType": "uint256",
          "name": "amount1",
          "type": "uint256"
        },
        {
          "indexed": false,
          "internalType": "uint256",
          "name": "amountJOE",
          "type": "uint256"
        }
      ],
      "name": "LogConvert",
      "type": "event"
    },
    {
      "anonymous": false,
      "inputs": [
        {
          "indexed": true,
          "internalType": "address",
          "name": "previousOwner",
          "type": "address"
        },
        {
          "indexed": true,
          "internalType": "address",
          "name": "newOwner",
          "type": "address"
        }
      ],
      "name": "OwnershipTransferred",
      "type": "event"
    },
    {
      "inputs": [],
      "name": "bar",
      "outputs": [
        {
          "internalType": "address",
          "name": "",
          "type": "address"
        }
      ],
      "stateMutability": "view",
      "type": "function"
    },
    {
      "inputs": [
        {
          "internalType": "address",
          "name": "token",
          "type": "address"
        }
      ],
      "name": "bridgeFor",
      "outputs": [
        {
          "internalType": "address",
          "name": "bridge",
          "type": "address"
        }
      ],
      "stateMutability": "view",
      "type": "function"
    },
    {
      "inputs": [],
      "name": "claimOwnership",
      "outputs": [],
      "stateMutability": "nonpayable",
      "type": "function"
    },
    {
      "inputs": [
        {
          "internalType": "address",
          "name": "token0",
          "type": "address"
        },
        {
          "internalType": "address",
          "name": "token1",
          "type": "address"
        }
      ],
      "name": "convert",
      "outputs": [],
      "stateMutability": "nonpayable",
      "type": "function"
    },
    {
      "inputs": [
        {
          "internalType": "address[]",
          "name": "token0",
          "type": "address[]"
        },
        {
          "internalType": "address[]",
          "name": "token1",
          "type": "address[]"
        }
      ],
      "name": "convertMultiple",
      "outputs": [],
      "stateMutability": "nonpayable",
      "type": "function"
    },
    {
      "inputs": [],
      "name": "factory",
      "outputs": [
        {
          "internalType": "contract IJoeFactory",
          "name": "",
          "type": "address"
        }
      ],
      "stateMutability": "view",
      "type": "function"
    },
    {
      "inputs": [],
      "name": "owner",
      "outputs": [
        {
          "internalType": "address",
          "name": "",
          "type": "address"
        }
      ],
      "stateMutability": "view",
      "type": "function"
    },
    {
      "inputs": [],
      "name": "pendingOwner",
      "outputs": [
        {
          "internalType": "address",
          "name": "",
          "type": "address"
        }
      ],
      "stateMutability": "view",
      "type": "function"
    },
    {
      "inputs": [
        {
          "internalType": "address",
          "name": "token",
          "type": "address"
        },
        {
          "internalType": "address",
          "name": "bridge",
          "type": "address"
        }
      ],
      "name": "setBridge",
      "outputs": [],
      "stateMutability": "nonpayable",
      "type": "function"
    },
    {
      "inputs": [
        {
          "internalType": "address",
          "name": "newOwner",
          "type": "address"
        },
        {
          "internalType": "bool",
          "name": "direct",
          "type": "bool"
        },
        {
          "internalType": "bool",
          "name": "renounce",
          "type": "bool"
        }
      ],
      "name": "transferOwnership",
      "outputs": [],
      "stateMutability": "nonpayable",
      "type": "function"
    }
  ],
  "transactionHash": "0x26a5fa05883a69ee2b5bc709b2fcb49e78e9775c31c22a489cb553754b4c9cb0",
  "args": [
    "0x84DD8FDFcCf29C35d9654FEBd596eFAB80F53F04",
    "0xea2d1a35c36c5E304232f0286b25420744345cab",
    "0xf392663Ee370E6D8660abDcB734Ff654497983B2",
    "0x433590A0482ded4e85CbE43805bc86F1dbF073bd"
  ],
  "numDeployments": 3,
  "solcInputHash": "c67be878e58a861bae8ac06ebff81f10",
  "bytecode": "0x61010060405234801561001157600080fd5b5060405161293e38038061293e8339818101604052608081101561003457600080fd5b8101908080519060200190929190805190602001909291908051906020019092919080519060200190929190505050336000806101000a81548173ffffffffffffffffffffffffffffffffffffffff021916908373ffffffffffffffffffffffffffffffffffffffff1602179055503373ffffffffffffffffffffffffffffffffffffffff16600073ffffffffffffffffffffffffffffffffffffffff167f8be0079c531659141344cd1fd0a4f28419497f9722a3daafe3b4186f6b6457e060405160405180910390a38373ffffffffffffffffffffffffffffffffffffffff1660808173ffffffffffffffffffffffffffffffffffffffff1660601b815250508273ffffffffffffffffffffffffffffffffffffffff1660a08173ffffffffffffffffffffffffffffffffffffffff1660601b815250508173ffffffffffffffffffffffffffffffffffffffff1660c08173ffffffffffffffffffffffffffffffffffffffff1660601b815250508073ffffffffffffffffffffffffffffffffffffffff1660e08173ffffffffffffffffffffffffffffffffffffffff1660601b815250505050505060805160601c60a05160601c60c05160601c60e05160601c6126b161028d60003980610abf5280610d2f528061165852806116af52806118d4528061192b5280611954528061199652806119ed5280611a16525080610a685280611591528061160a5280611710528061178952806117f2528061186b5280611bd4525080610e5152806115e8528061176752806118495280611bf6525080610e075280610e775280611c2752506126b16000f3fe608060405234801561001057600080fd5b506004361061009e5760003560e01c8063a761a93911610066578063a761a9391461026f578063bd1b820c146102dd578063c45a015514610341578063e30c397814610375578063febb0f7e146103a95761009e565b8063078dfbe7146100a3578063303e6aa4146100ff5780634e71e0c8146101cd5780638da5cb5b146101d75780639d22ae8c1461020b575b600080fd5b6100fd600480360360608110156100b957600080fd5b81019080803573ffffffffffffffffffffffffffffffffffffffff1690602001909291908035151590602001909291908035151590602001909291905050506103dd565b005b6101cb6004803603604081101561011557600080fd5b810190808035906020019064010000000081111561013257600080fd5b82018360208201111561014457600080fd5b8035906020019184602083028401116401000000008311171561016657600080fd5b90919293919293908035906020019064010000000081111561018757600080fd5b82018360208201111561019957600080fd5b803590602001918460208302840111640100000000831117156101bb57600080fd5b9091929391929390505050610697565b005b6101d56107ba565b005b6101df610981565b604051808273ffffffffffffffffffffffffffffffffffffffff16815260200191505060405180910390f35b61026d6004803603604081101561022157600080fd5b81019080803573ffffffffffffffffffffffffffffffffffffffff169060200190929190803573ffffffffffffffffffffffffffffffffffffffff1690602001909291905050506109a5565b005b6102b16004803603602081101561028557600080fd5b81019080803573ffffffffffffffffffffffffffffffffffffffff169060200190929190505050610c94565b604051808273ffffffffffffffffffffffffffffffffffffffff16815260200191505060405180910390f35b61033f600480360360408110156102f357600080fd5b81019080803573ffffffffffffffffffffffffffffffffffffffff169060200190929190803573ffffffffffffffffffffffffffffffffffffffff169060200190929190505050610d56565b005b610349610e05565b604051808273ffffffffffffffffffffffffffffffffffffffff16815260200191505060405180910390f35b61037d610e29565b604051808273ffffffffffffffffffffffffffffffffffffffff16815260200191505060405180910390f35b6103b1610e4f565b604051808273ffffffffffffffffffffffffffffffffffffffff16815260200191505060405180910390f35b60008054906101000a900473ffffffffffffffffffffffffffffffffffffffff1673ffffffffffffffffffffffffffffffffffffffff163373ffffffffffffffffffffffffffffffffffffffff161461049e576040517f08c379a00000000000000000000000000000000000000000000000000000000081526004018080602001828103825260208152602001807f4f776e61626c653a2063616c6c6572206973206e6f7420746865206f776e657281525060200191505060405180910390fd5b811561065057600073ffffffffffffffffffffffffffffffffffffffff168373ffffffffffffffffffffffffffffffffffffffff161415806104dd5750805b61054f576040517f08c379a00000000000000000000000000000000000000000000000000000000081526004018080602001828103825260158152602001807f4f776e61626c653a207a65726f2061646472657373000000000000000000000081525060200191505060405180910390fd5b8273ffffffffffffffffffffffffffffffffffffffff1660008054906101000a900473ffffffffffffffffffffffffffffffffffffffff1673ffffffffffffffffffffffffffffffffffffffff167f8be0079c531659141344cd1fd0a4f28419497f9722a3daafe3b4186f6b6457e060405160405180910390a3826000806101000a81548173ffffffffffffffffffffffffffffffffffffffff021916908373ffffffffffffffffffffffffffffffffffffffff1602179055506000600160006101000a81548173ffffffffffffffffffffffffffffffffffffffff021916908373ffffffffffffffffffffffffffffffffffffffff160217905550610692565b82600160006101000a81548173ffffffffffffffffffffffffffffffffffffffff021916908373ffffffffffffffffffffffffffffffffffffffff1602179055505b505050565b3273ffffffffffffffffffffffffffffffffffffffff163373ffffffffffffffffffffffffffffffffffffffff1614610738576040517f08c379a00000000000000000000000000000000000000000000000000000000081526004018080602001828103825260188152602001807f4a6f654d616b657256323a206d7573742075736520454f41000000000000000081525060200191505060405180910390fd5b600084849050905060005b818110156107b2576107a586868381811061075a57fe5b9050602002013573ffffffffffffffffffffffffffffffffffffffff1685858481811061078357fe5b9050602002013573ffffffffffffffffffffffffffffffffffffffff16610e73565b8080600101915050610743565b505050505050565b6000600160009054906101000a900473ffffffffffffffffffffffffffffffffffffffff1690508073ffffffffffffffffffffffffffffffffffffffff163373ffffffffffffffffffffffffffffffffffffffff1614610882576040517f08c379a00000000000000000000000000000000000000000000000000000000081526004018080602001828103825260208152602001807f4f776e61626c653a2063616c6c657220213d2070656e64696e67206f776e657281525060200191505060405180910390fd5b8073ffffffffffffffffffffffffffffffffffffffff1660008054906101000a900473ffffffffffffffffffffffffffffffffffffffff1673ffffffffffffffffffffffffffffffffffffffff167f8be0079c531659141344cd1fd0a4f28419497f9722a3daafe3b4186f6b6457e060405160405180910390a3806000806101000a81548173ffffffffffffffffffffffffffffffffffffffff021916908373ffffffffffffffffffffffffffffffffffffffff1602179055506000600160006101000a81548173ffffffffffffffffffffffffffffffffffffffff021916908373ffffffffffffffffffffffffffffffffffffffff16021790555050565b60008054906101000a900473ffffffffffffffffffffffffffffffffffffffff1681565b60008054906101000a900473ffffffffffffffffffffffffffffffffffffffff1673ffffffffffffffffffffffffffffffffffffffff163373ffffffffffffffffffffffffffffffffffffffff1614610a66576040517f08c379a00000000000000000000000000000000000000000000000000000000081526004018080602001828103825260208152602001807f4f776e61626c653a2063616c6c6572206973206e6f7420746865206f776e657281525060200191505060405180910390fd5b7f000000000000000000000000000000000000000000000000000000000000000073ffffffffffffffffffffffffffffffffffffffff168273ffffffffffffffffffffffffffffffffffffffff1614158015610b0e57507f000000000000000000000000000000000000000000000000000000000000000073ffffffffffffffffffffffffffffffffffffffff168273ffffffffffffffffffffffffffffffffffffffff1614155b8015610b4657508073ffffffffffffffffffffffffffffffffffffffff168273ffffffffffffffffffffffffffffffffffffffff1614155b610bb8576040517f08c379a000000000000000000000000000000000000000000000000000000000815260040180806020018281038252601a8152602001807f4a6f654d616b657256323a20496e76616c69642062726964676500000000000081525060200191505060405180910390fd5b80600260008473ffffffffffffffffffffffffffffffffffffffff1673ffffffffffffffffffffffffffffffffffffffff16815260200190815260200160002060006101000a81548173ffffffffffffffffffffffffffffffffffffffff021916908373ffffffffffffffffffffffffffffffffffffffff1602179055508073ffffffffffffffffffffffffffffffffffffffff168273ffffffffffffffffffffffffffffffffffffffff167f2e103aa707acc565f9a1547341914802b2bfe977fd79c595209f248ae4b0061360405160405180910390a35050565b6000600260008373ffffffffffffffffffffffffffffffffffffffff1673ffffffffffffffffffffffffffffffffffffffff16815260200190815260200160002060009054906101000a900473ffffffffffffffffffffffffffffffffffffffff169050600073ffffffffffffffffffffffffffffffffffffffff168173ffffffffffffffffffffffffffffffffffffffff161415610d51577f000000000000000000000000000000000000000000000000000000000000000090505b919050565b3273ffffffffffffffffffffffffffffffffffffffff163373ffffffffffffffffffffffffffffffffffffffff1614610df7576040517f08c379a00000000000000000000000000000000000000000000000000000000081526004018080602001828103825260188152602001807f4a6f654d616b657256323a206d7573742075736520454f41000000000000000081525060200191505060405180910390fd5b610e018282610e73565b5050565b7f000000000000000000000000000000000000000000000000000000000000000081565b600160009054906101000a900473ffffffffffffffffffffffffffffffffffffffff1681565b7f000000000000000000000000000000000000000000000000000000000000000081565b60007f000000000000000000000000000000000000000000000000000000000000000073ffffffffffffffffffffffffffffffffffffffff1663e6a4390584846040518363ffffffff1660e01b8152600401808373ffffffffffffffffffffffffffffffffffffffff1681526020018273ffffffffffffffffffffffffffffffffffffffff1681526020019250505060206040518083038186803b158015610f1a57600080fd5b505afa158015610f2e573d6000803e3d6000fd5b505050506040513d6020811015610f4457600080fd5b81019080805190602001909291905050509050600073ffffffffffffffffffffffffffffffffffffffff168173ffffffffffffffffffffffffffffffffffffffff161415610ffa576040517f08c379a00000000000000000000000000000000000000000000000000000000081526004018080602001828103825260188152602001807f4a6f654d616b657256323a20496e76616c69642070616972000000000000000081525060200191505060405180910390fd5b6110c6818273ffffffffffffffffffffffffffffffffffffffff166370a08231306040518263ffffffff1660e01b8152600401808273ffffffffffffffffffffffffffffffffffffffff16815260200191505060206040518083038186803b15801561106557600080fd5b505afa158015611079573d6000803e3d6000fd5b505050506040513d602081101561108f57600080fd5b81019080805190602001909291905050508373ffffffffffffffffffffffffffffffffffffffff1661135f9092919063ffffffff16565b8073ffffffffffffffffffffffffffffffffffffffff166389afcb44306040518263ffffffff1660e01b8152600401808273ffffffffffffffffffffffffffffffffffffffff1681526020019150506040805180830381600087803b15801561112e57600080fd5b505af1158015611142573d6000803e3d6000fd5b505050506040513d604081101561115857600080fd5b810190808051906020019092919080519060200190929190505050505060008373ffffffffffffffffffffffffffffffffffffffff166370a08231306040518263ffffffff1660e01b8152600401808273ffffffffffffffffffffffffffffffffffffffff16815260200191505060206040518083038186803b1580156111de57600080fd5b505afa1580156111f2573d6000803e3d6000fd5b505050506040513d602081101561120857600080fd5b8101908080519060200190929190505050905060008373ffffffffffffffffffffffffffffffffffffffff166370a08231306040518263ffffffff1660e01b8152600401808273ffffffffffffffffffffffffffffffffffffffff16815260200191505060206040518083038186803b15801561128457600080fd5b505afa158015611298573d6000803e3d6000fd5b505050506040513d60208110156112ae57600080fd5b810190808051906020019092919050505090508373ffffffffffffffffffffffffffffffffffffffff168573ffffffffffffffffffffffffffffffffffffffff163373ffffffffffffffffffffffffffffffffffffffff167fd06b1d7ed79b664d17472c6f6997b929f1abe463ccccb4e5b6a0038f2f730c1585856113358b8b8a8a611542565b60405180848152602001838152602001828152602001935050505060405180910390a45050505050565b600060608473ffffffffffffffffffffffffffffffffffffffff1663a9059cbb8585604051602401808373ffffffffffffffffffffffffffffffffffffffff168152602001828152602001925050506040516020818303038152906040529060e01b6020820180517bffffffffffffffffffffffffffffffffffffffffffffffffffffffff83818316178352505050506040518082805190602001908083835b6020831061142257805182526020820191506020810190506020830392506113ff565b6001836020036101000a0380198251168184511680821785525050505050509050019150506000604051808303816000865af19150503d8060008114611484576040519150601f19603f3d011682016040523d82523d6000602084013e611489565b606091505b50915091508180156114c957506000815114806114c857508080602001905160208110156114b657600080fd5b81019080805190602001909291905050505b5b61153b576040517f08c379a000000000000000000000000000000000000000000000000000000000815260040180806020018281038252601a8152602001807f5361666545524332303a205472616e73666572206661696c656400000000000081525060200191505060405180910390fd5b5050505050565b60008373ffffffffffffffffffffffffffffffffffffffff168573ffffffffffffffffffffffffffffffffffffffff16141561170e57600061158d8385611b4990919063ffffffff16565b90507f000000000000000000000000000000000000000000000000000000000000000073ffffffffffffffffffffffffffffffffffffffff168673ffffffffffffffffffffffffffffffffffffffff1614156116565761164e7f0000000000000000000000000000000000000000000000000000000000000000827f000000000000000000000000000000000000000000000000000000000000000073ffffffffffffffffffffffffffffffffffffffff1661135f9092919063ffffffff16565b809150611708565b7f000000000000000000000000000000000000000000000000000000000000000073ffffffffffffffffffffffffffffffffffffffff168673ffffffffffffffffffffffffffffffffffffffff1614156116db576116d47f000000000000000000000000000000000000000000000000000000000000000082611bcc565b9150611707565b60006116e687610c94565b90506116f487828430611c22565b91506117038182846000611542565b9250505b5b50611b41565b7f000000000000000000000000000000000000000000000000000000000000000073ffffffffffffffffffffffffffffffffffffffff168573ffffffffffffffffffffffffffffffffffffffff1614156117f0576117cd7f0000000000000000000000000000000000000000000000000000000000000000847f000000000000000000000000000000000000000000000000000000000000000073ffffffffffffffffffffffffffffffffffffffff1661135f9092919063ffffffff16565b6117e9836117db8685611bcc565b611b4990919063ffffffff16565b9050611b40565b7f000000000000000000000000000000000000000000000000000000000000000073ffffffffffffffffffffffffffffffffffffffff168473ffffffffffffffffffffffffffffffffffffffff1614156118d2576118af7f0000000000000000000000000000000000000000000000000000000000000000837f000000000000000000000000000000000000000000000000000000000000000073ffffffffffffffffffffffffffffffffffffffff1661135f9092919063ffffffff16565b6118cb826118bd8786611bcc565b611b4990919063ffffffff16565b9050611b3f565b7f000000000000000000000000000000000000000000000000000000000000000073ffffffffffffffffffffffffffffffffffffffff168573ffffffffffffffffffffffffffffffffffffffff1614156119945761198d7f00000000000000000000000000000000000000000000000000000000000000006119888561197a887f00000000000000000000000000000000000000000000000000000000000000008830611c22565b611b4990919063ffffffff16565b611bcc565b9050611b3e565b7f000000000000000000000000000000000000000000000000000000000000000073ffffffffffffffffffffffffffffffffffffffff168473ffffffffffffffffffffffffffffffffffffffff161415611a5657611a4f7f0000000000000000000000000000000000000000000000000000000000000000611a4a84611a3c897f00000000000000000000000000000000000000000000000000000000000000008930611c22565b611b4990919063ffffffff16565b611bcc565b9050611b3d565b6000611a6186610c94565b90506000611a6e86610c94565b90508573ffffffffffffffffffffffffffffffffffffffff168273ffffffffffffffffffffffffffffffffffffffff161415611ac257611abb8287611ab58a868a30611c22565b87611542565b9250611b3a565b8673ffffffffffffffffffffffffffffffffffffffff168173ffffffffffffffffffffffffffffffffffffffff161415611b1457611b0d878287611b088a868a30611c22565b611542565b9250611b39565b611b368282611b258a868a30611c22565b611b318a868a30611c22565b611542565b92505b5b50505b5b5b5b5b949350505050565b6000818284019150811015611bc6576040517f08c379a00000000000000000000000000000000000000000000000000000000081526004018080602001828103825260168152602001807f536166654d6174683a20416464204f766572666c6f770000000000000000000081525060200191505060405180910390fd5b92915050565b6000611c1a837f0000000000000000000000000000000000000000000000000000000000000000847f0000000000000000000000000000000000000000000000000000000000000000611c22565b905092915050565b6000807f000000000000000000000000000000000000000000000000000000000000000073ffffffffffffffffffffffffffffffffffffffff1663e6a4390587876040518363ffffffff1660e01b8152600401808373ffffffffffffffffffffffffffffffffffffffff1681526020018273ffffffffffffffffffffffffffffffffffffffff1681526020019250505060206040518083038186803b158015611cca57600080fd5b505afa158015611cde573d6000803e3d6000fd5b505050506040513d6020811015611cf457600080fd5b81019080805190602001909291905050509050600073ffffffffffffffffffffffffffffffffffffffff168173ffffffffffffffffffffffffffffffffffffffff161415611daa576040517f08c379a000000000000000000000000000000000000000000000000000000000815260040180806020018281038252601a8152602001807f4a6f654d616b657256323a2043616e6e6f7420636f6e7665727400000000000081525060200191505060405180910390fd5b6000808273ffffffffffffffffffffffffffffffffffffffff16630902f1ac6040518163ffffffff1660e01b815260040160606040518083038186803b158015611df357600080fd5b505afa158015611e07573d6000803e3d6000fd5b505050506040513d6060811015611e1d57600080fd5b81019080805190602001909291908051906020019092919080519060200190929190505050506dffffffffffffffffffffffffffff1691506dffffffffffffffffffffffffffff169150611e9283878a73ffffffffffffffffffffffffffffffffffffffff1661135f9092919063ffffffff16565b8273ffffffffffffffffffffffffffffffffffffffff16630dfe16816040518163ffffffff1660e01b815260040160206040518083038186803b158015611ed857600080fd5b505afa158015611eec573d6000803e3d6000fd5b505050506040513d6020811015611f0257600080fd5b810190808051906020019092919050505073ffffffffffffffffffffffffffffffffffffffff168873ffffffffffffffffffffffffffffffffffffffff161415611ff157818873ffffffffffffffffffffffffffffffffffffffff166370a08231856040518263ffffffff1660e01b8152600401808273ffffffffffffffffffffffffffffffffffffffff16815260200191505060206040518083038186803b158015611fae57600080fd5b505afa158015611fc2573d6000803e3d6000fd5b505050506040513d6020811015611fd857600080fd5b8101908080519060200190929190505050039550612098565b808873ffffffffffffffffffffffffffffffffffffffff166370a08231856040518263ffffffff1660e01b8152600401808273ffffffffffffffffffffffffffffffffffffffff16815260200191505060206040518083038186803b15801561205957600080fd5b505afa15801561206d573d6000803e3d6000fd5b505050506040513d602081101561208357600080fd5b81019080805190602001909291905050500395505b60008773ffffffffffffffffffffffffffffffffffffffff166370a08231876040518263ffffffff1660e01b8152600401808273ffffffffffffffffffffffffffffffffffffffff16815260200191505060206040518083038186803b15801561210157600080fd5b505afa158015612115573d6000803e3d6000fd5b505050506040513d602081101561212b57600080fd5b8101908080519060200190929190505050905060006121556103e5896125e690919063ffffffff16565b90508473ffffffffffffffffffffffffffffffffffffffff16630dfe16816040518163ffffffff1660e01b815260040160206040518083038186803b15801561219d57600080fd5b505afa1580156121b1573d6000803e3d6000fd5b505050506040513d60208110156121c757600080fd5b810190808051906020019092919050505073ffffffffffffffffffffffffffffffffffffffff168a73ffffffffffffffffffffffffffffffffffffffff1614156123a1576000612234826122266103e8886125e690919063ffffffff16565b611b4990919063ffffffff16565b61224785846125e690919063ffffffff16565b8161224e57fe5b0490508573ffffffffffffffffffffffffffffffffffffffff1663022c0d9f6000838b600067ffffffffffffffff8111801561228957600080fd5b506040519080825280601f01601f1916602001820160405280156122bc5781602001600182028036833780820191505090505b506040518563ffffffff1660e01b8152600401808581526020018481526020018373ffffffffffffffffffffffffffffffffffffffff16815260200180602001828103825283818151815260200191508051906020019080838360005b83811015612334578082015181840152602081019050612319565b50505050905090810190601f1680156123615780820380516001836020036101000a031916815260200191505b5095505050505050600060405180830381600087803b15801561238357600080fd5b505af1158015612397573d6000803e3d6000fd5b5050505050612533565b60006123ca826123bc6103e8876125e690919063ffffffff16565b611b4990919063ffffffff16565b6123dd86846125e690919063ffffffff16565b816123e457fe5b0490508573ffffffffffffffffffffffffffffffffffffffff1663022c0d9f8260008b600067ffffffffffffffff8111801561241f57600080fd5b506040519080825280601f01601f1916602001820160405280156124525781602001600182028036833780820191505090505b506040518563ffffffff1660e01b8152600401808581526020018481526020018373ffffffffffffffffffffffffffffffffffffffff16815260200180602001828103825283818151815260200191508051906020019080838360005b838110156124ca5780820151818401526020810190506124af565b50505050905090810190601f1680156124f75780820380516001836020036101000a031916815260200191505b5095505050505050600060405180830381600087803b15801561251957600080fd5b505af115801561252d573d6000803e3d6000fd5b50505050505b818973ffffffffffffffffffffffffffffffffffffffff166370a08231896040518263ffffffff1660e01b8152600401808273ffffffffffffffffffffffffffffffffffffffff16815260200191505060206040518083038186803b15801561259b57600080fd5b505afa1580156125af573d6000803e3d6000fd5b505050506040513d60208110156125c557600080fd5b81019080805190602001909291905050500395505050505050949350505050565b600080821480612603575082828385029250828161260057fe5b04145b612675576040517f08c379a00000000000000000000000000000000000000000000000000000000081526004018080602001828103825260168152602001807f536166654d6174683a204d756c204f766572666c6f770000000000000000000081525060200191505060405180910390fd5b9291505056fea264697066735822122016f6fa2bbc65aa24a69f17a32576135e3e38867ae450d12685ce942cf6a8313064736f6c634300060c0033",
  "devdoc": {
    "kind": "dev",
    "methods": {
      "transferOwnership(address,bool,bool)": {
        "params": {
          "direct": "True if `newOwner` should be set immediately. False if `newOwner` needs to use `claimOwnership`.",
          "newOwner": "Address of the new owner.",
          "renounce": "Allows the `newOwner` to be `address(0)` if `direct` and `renounce` is True. Has no effect otherwise."
        }
      }
    },
    "version": 1
  },
  "userdoc": {
    "kind": "user",
    "methods": {
      "claimOwnership()": {
        "notice": "Needs to be called by `pendingOwner` to claim ownership."
      },
      "transferOwnership(address,bool,bool)": {
        "notice": "Transfers ownership to `newOwner`. Either directly or claimable by the new pending owner. Can only be invoked by the current `owner`."
      }
    },
    "version": 1
  },
  "storageLayout": {
    "storage": [
      {
        "astId": 29214,
        "contract": "src/JoeMakerV2.sol:JoeMakerV2",
        "label": "owner",
        "offset": 0,
        "slot": "0",
        "type": "t_address"
      },
      {
        "astId": 29216,
        "contract": "src/JoeMakerV2.sol:JoeMakerV2",
        "label": "pendingOwner",
        "offset": 0,
        "slot": "1",
        "type": "t_address"
      },
      {
        "astId": 13448,
        "contract": "src/JoeMakerV2.sol:JoeMakerV2",
        "label": "_bridges",
        "offset": 0,
        "slot": "2",
        "type": "t_mapping(t_address,t_address)"
      }
    ],
    "types": {
      "t_address": {
        "encoding": "inplace",
        "label": "address",
        "numberOfBytes": "20"
      },
      "t_mapping(t_address,t_address)": {
        "encoding": "mapping",
        "key": "t_address",
        "label": "mapping(address => address)",
        "numberOfBytes": "32",
        "value": "t_address"
      }
    }
  }
}